{
  "contractName": "Certification",
  "abi": [
    {
      "inputs": [],
      "payable": false,
      "stateMutability": "nonpayable",
      "type": "constructor"
    },
    {
      "constant": true,
      "inputs": [],
      "name": "contractAddress",
      "outputs": [
        {
          "internalType": "address",
          "name": "",
          "type": "address"
        }
      ],
      "payable": false,
      "stateMutability": "view",
      "type": "function"
    },
    {
      "constant": true,
      "inputs": [],
      "name": "courseCount",
      "outputs": [
        {
          "internalType": "uint256",
          "name": "",
          "type": "uint256"
        }
      ],
      "payable": false,
      "stateMutability": "view",
      "type": "function"
    },
    {
      "constant": true,
      "inputs": [
        {
          "internalType": "uint256",
          "name": "",
          "type": "uint256"
        }
      ],
      "name": "courses",
      "outputs": [
        {
          "internalType": "uint256",
          "name": "id",
          "type": "uint256"
        },
        {
          "internalType": "string",
          "name": "title",
          "type": "string"
        },
        {
          "internalType": "address",
          "name": "issuer",
          "type": "address"
        },
        {
          "internalType": "bool",
          "name": "certificated",
          "type": "bool"
        },
        {
          "internalType": "uint256",
          "name": "participantCount",
          "type": "uint256"
        }
      ],
      "payable": false,
      "stateMutability": "view",
      "type": "function"
    },
    {
      "constant": true,
      "inputs": [
        {
          "internalType": "address",
          "name": "",
          "type": "address"
        },
        {
          "internalType": "uint256",
          "name": "",
          "type": "uint256"
        }
      ],
      "name": "issuerCertificates",
      "outputs": [
        {
          "internalType": "address",
          "name": "publisher",
          "type": "address"
        },
        {
          "internalType": "address",
          "name": "participant",
          "type": "address"
        },
        {
          "internalType": "string",
          "name": "title",
          "type": "string"
        },
        {
          "internalType": "uint256",
          "name": "courseId",
          "type": "uint256"
        },
        {
          "internalType": "string",
          "name": "course",
          "type": "string"
        },
        {
          "internalType": "string",
          "name": "imageId",
          "type": "string"
        }
      ],
      "payable": false,
      "stateMutability": "view",
      "type": "function"
    },
    {
      "constant": true,
      "inputs": [
        {
          "internalType": "address",
          "name": "",
          "type": "address"
        },
        {
          "internalType": "uint256",
          "name": "",
          "type": "uint256"
        }
      ],
      "name": "issuerCourses",
      "outputs": [
        {
          "internalType": "uint256",
          "name": "",
          "type": "uint256"
        }
      ],
      "payable": false,
      "stateMutability": "view",
      "type": "function"
    },
    {
      "constant": true,
      "inputs": [
        {
          "internalType": "address",
          "name": "",
          "type": "address"
        },
        {
          "internalType": "uint256",
          "name": "",
          "type": "uint256"
        }
      ],
      "name": "participantCertificates",
      "outputs": [
        {
          "internalType": "address",
          "name": "publisher",
          "type": "address"
        },
        {
          "internalType": "address",
          "name": "participant",
          "type": "address"
        },
        {
          "internalType": "string",
          "name": "title",
          "type": "string"
        },
        {
          "internalType": "uint256",
          "name": "courseId",
          "type": "uint256"
        },
        {
          "internalType": "string",
          "name": "course",
          "type": "string"
        },
        {
          "internalType": "string",
          "name": "imageId",
          "type": "string"
        }
      ],
      "payable": false,
      "stateMutability": "view",
      "type": "function"
    },
    {
      "constant": true,
      "inputs": [
        {
          "internalType": "address",
          "name": "",
          "type": "address"
        },
        {
          "internalType": "uint256",
          "name": "",
          "type": "uint256"
        }
      ],
      "name": "participantCourses",
      "outputs": [
        {
          "internalType": "uint256",
          "name": "",
          "type": "uint256"
        }
      ],
      "payable": false,
      "stateMutability": "view",
      "type": "function"
    },
    {
      "constant": false,
      "inputs": [
        {
          "internalType": "string",
          "name": "_title",
          "type": "string"
        },
        {
          "internalType": "uint256",
          "name": "_courseId",
          "type": "uint256"
        },
        {
          "internalType": "string",
          "name": "_courseTitle",
          "type": "string"
        },
        {
          "internalType": "string",
          "name": "_imageId",
          "type": "string"
        }
      ],
      "name": "addCourseCertificates",
      "outputs": [],
      "payable": false,
      "stateMutability": "nonpayable",
      "type": "function"
    },
    {
      "constant": true,
      "inputs": [
        {
          "internalType": "address",
          "name": "_user",
          "type": "address"
        }
      ],
      "name": "getIssuerCertificateCount",
      "outputs": [
        {
          "internalType": "uint256",
          "name": "count",
          "type": "uint256"
        }
      ],
      "payable": false,
      "stateMutability": "view",
      "type": "function"
    },
    {
      "constant": true,
      "inputs": [
        {
          "internalType": "address",
          "name": "_user",
          "type": "address"
        }
      ],
      "name": "getParticipantCertificateCount",
      "outputs": [
        {
          "internalType": "uint256",
          "name": "count",
          "type": "uint256"
        }
      ],
      "payable": false,
      "stateMutability": "view",
      "type": "function"
    },
    {
      "constant": true,
      "inputs": [
        {
          "internalType": "address",
          "name": "_issuer",
          "type": "address"
        }
      ],
      "name": "getIssuerCourseCount",
      "outputs": [
        {
          "internalType": "uint256",
          "name": "count",
          "type": "uint256"
        }
      ],
      "payable": false,
      "stateMutability": "view",
      "type": "function"
    },
    {
      "constant": true,
      "inputs": [
        {
          "internalType": "address",
          "name": "_participant",
          "type": "address"
        }
      ],
      "name": "getParticipantCourseCount",
      "outputs": [
        {
          "internalType": "uint256",
          "name": "count",
          "type": "uint256"
        }
      ],
      "payable": false,
      "stateMutability": "view",
      "type": "function"
    },
    {
      "constant": true,
      "inputs": [
        {
          "internalType": "uint256",
          "name": "_courseId",
          "type": "uint256"
        },
        {
          "internalType": "uint256",
          "name": "index",
          "type": "uint256"
        }
      ],
      "name": "getCourseParticipantAt",
      "outputs": [
        {
          "internalType": "address",
          "name": "count",
          "type": "address"
        }
      ],
      "payable": false,
      "stateMutability": "view",
      "type": "function"
    },
    {
      "constant": false,
      "inputs": [
        {
          "internalType": "string",
          "name": "_title",
          "type": "string"
        }
      ],
      "name": "addCourse",
      "outputs": [],
      "payable": false,
      "stateMutability": "nonpayable",
      "type": "function"
    },
    {
      "constant": false,
      "inputs": [
        {
          "internalType": "uint256",
          "name": "_courseId",
          "type": "uint256"
        },
        {
          "internalType": "address",
          "name": "_participant",
          "type": "address"
        }
      ],
      "name": "addParticipant",
      "outputs": [],
      "payable": false,
      "stateMutability": "nonpayable",
      "type": "function"
    }
  ],
  "bytecode": "0x608060405233600660006101000a81548173ffffffffffffffffffffffffffffffffffffffff021916908373ffffffffffffffffffffffffffffffffffffffff1602179055503480156200005257600080fd5b50620000996040518060400160405280601181526020017f57656220456e67696e656572696e6720310000000000000000000000000000008152506200016c60201b60201c565b620000df6040518060400160405280601381526020017f506f77657220456e67696e656572696e672031000000000000000000000000008152506200016c60201b60201c565b600073dcad3a6d3569df655070ded06cb7a1b2ccd1d3af9050600073fc9a8e621f0d8821a770a5cee4cef8a90d387e8d9050620001246000836200033760201b60201c565b620001376000826200033760201b60201c565b6200014a6001826200033760201b60201c565b60007353bde67d3614b1f85ed12b77ada1c0ca4e86b8409050505050620009cf565b6040518060c0016040528060055481526020018281526020013373ffffffffffffffffffffffffffffffffffffffff168152602001600015158152602001600081526020016000604051908082528060200260200182016040528015620001e25781602001602082028038833980820191505090505b5081525060046000600554815260200190815260200160002060008201518160000155602082015181600101908051906020019062000223929190620006e8565b5060408201518160020160006101000a81548173ffffffffffffffffffffffffffffffffffffffff021916908373ffffffffffffffffffffffffffffffffffffffff16021790555060608201518160020160146101000a81548160ff0219169083151502179055506080820151816003015560a0820151816004019080519060200190620002b39291906200076f565b50905050600260003373ffffffffffffffffffffffffffffffffffffffff1673ffffffffffffffffffffffffffffffffffffffff168152602001908152602001600020600554908060018154018082558091505090600182039060005260206000200160009091929091909150555060056000815480929190600101919050555050565b6000600260003373ffffffffffffffffffffffffffffffffffffffff1673ffffffffffffffffffffffffffffffffffffffff1681526020019081526020016000208054905011620003bf576040517f08c379a0000000000000000000000000000000000000000000000000000000008152600401620003b6906200097a565b60405180910390fd5b3373ffffffffffffffffffffffffffffffffffffffff166004600084815260200190815260200160002060020160009054906101000a900473ffffffffffffffffffffffffffffffffffffffff1673ffffffffffffffffffffffffffffffffffffffff161462000466576040517f08c379a00000000000000000000000000000000000000000000000000000000081526004016200045d9062000958565b60405180910390fd5b620004788282620005c860201b60201c565b15620004bb576040517f08c379a0000000000000000000000000000000000000000000000000000000008152600401620004b2906200099c565b60405180910390fd5b600460008381526020019081526020016000206004018190806001815401808255809150509060018203906000526020600020016000909192909190916101000a81548173ffffffffffffffffffffffffffffffffffffffff021916908373ffffffffffffffffffffffffffffffffffffffff16021790555050600360008273ffffffffffffffffffffffffffffffffffffffff1673ffffffffffffffffffffffffffffffffffffffff16815260200190815260200160002082908060018154018082558091505090600182039060005260206000200160009091929091909150555060046000838152602001908152602001600020600301600081548092919060010191905055505050565b60006060600460008581526020019081526020016000206004018054806020026020016040519081016040528092919081815260200182805480156200066457602002820191906000526020600020905b8160009054906101000a900473ffffffffffffffffffffffffffffffffffffffff1673ffffffffffffffffffffffffffffffffffffffff168152602001906001019080831162000619575b5050505050905060005b8151811015620006db578373ffffffffffffffffffffffffffffffffffffffff168282815181106200069c57fe5b602002602001015173ffffffffffffffffffffffffffffffffffffffff161415620006cd57600192505050620006e2565b80806001019150506200066e565b5060009150505b92915050565b828054600181600116156101000203166002900490600052602060002090601f016020900481019282601f106200072b57805160ff19168380011785556200075c565b828001600101855582156200075c579182015b828111156200075b5782518255916020019190600101906200073e565b5b5090506200076b9190620007fe565b5090565b828054828255906000526020600020908101928215620007eb579160200282015b82811115620007ea5782518260006101000a81548173ffffffffffffffffffffffffffffffffffffffff021916908373ffffffffffffffffffffffffffffffffffffffff1602179055509160200191906001019062000790565b5b509050620007fa919062000826565b5090565b6200082391905b808211156200081f57600081600090555060010162000805565b5090565b90565b6200086991905b808211156200086557600081816101000a81549073ffffffffffffffffffffffffffffffffffffffff0219169055506001016200082d565b5090565b90565b60006200087b602183620009be565b91507f596f7520617265206e6f74206f776e6572206f66207468697320636f7572736560008301527f21000000000000000000000000000000000000000000000000000000000000006020830152604082019050919050565b6000620008e3601083620009be565b91507f4e6f20636f7572736520666f756e6421000000000000000000000000000000006000830152602082019050919050565b600062000925601e83620009be565b91507f5061727469636970616e7420616c726561647920696e20636f757273652100006000830152602082019050919050565b6000602082019050818103600083015262000973816200086c565b9050919050565b600060208201905081810360008301526200099581620008d4565b9050919050565b60006020820190508181036000830152620009b78162000916565b9050919050565b600082825260208201905092915050565b611d2480620009df6000396000f3fe608060405234801561001057600080fd5b50600436106100f55760003560e01c80638f00931011610097578063b036299311610066578063b0362993146102ca578063b959097a146102fa578063f6b4dfb41461032a578063f850692f14610348576100f5565b80638f00931014610201578063947ff3241461023157806396f979d214610266578063a5399aaa1461029a576100f5565b80632e554076116100d35780632e55407614610162578063355a81651461017e578063401bcb0a146101b357806366055159146101e3576100f5565b806318d85e53146100fa5780632a4b78dd146101165780632dcfa82a14610132575b600080fd5b610114600480360361010f9190810190611879565b610378565b005b610130600480360361012b91908101906117a5565b6105f8565b005b61014c600480360361014791908101906116ff565b610a6c565b6040516101599190611b2e565b60405180910390f35b61017c60048036036101779190810190611764565b610ab8565b005b61019860048036036101939190810190611728565b610c7e565b6040516101aa96959493929190611a58565b60405180910390f35b6101cd60048036036101c891908101906116ff565b610edc565b6040516101da9190611b2e565b60405180910390f35b6101eb610f27565b6040516101f89190611b2e565b60405180910390f35b61021b60048036036102169190810190611728565b610f2d565b6040516102289190611b2e565b60405180910390f35b61024b60048036036102469190810190611728565b610f5b565b60405161025d96959493929190611a58565b60405180910390f35b610280600480360361027b9190810190611850565b6111b9565b604051610291959493929190611b49565b60405180910390f35b6102b460048036036102af91908101906118b5565b6112b4565b6040516102c19190611a3d565b60405180910390f35b6102e460048036036102df9190810190611728565b61130a565b6040516102f19190611b2e565b60405180910390f35b610314600480360361030f91908101906116ff565b611338565b6040516103219190611b2e565b60405180910390f35b610332611384565b60405161033f9190611a3d565b60405180910390f35b610362600480360361035d91908101906116ff565b6113aa565b60405161036f9190611b2e565b60405180910390f35b6000600260003373ffffffffffffffffffffffffffffffffffffffff1673ffffffffffffffffffffffffffffffffffffffff16815260200190815260200160002080549050116103fd576040517f08c379a00000000000000000000000000000000000000000000000000000000081526004016103f490611aee565b60405180910390fd5b3373ffffffffffffffffffffffffffffffffffffffff166004600084815260200190815260200160002060020160009054906101000a900473ffffffffffffffffffffffffffffffffffffffff1673ffffffffffffffffffffffffffffffffffffffff16146104a1576040517f08c379a000000000000000000000000000000000000000000000000000000000815260040161049890611ace565b60405180910390fd5b6104ab82826113f6565b156104eb576040517f08c379a00000000000000000000000000000000000000000000000000000000081526004016104e290611b0e565b60405180910390fd5b600460008381526020019081526020016000206004018190806001815401808255809150509060018203906000526020600020016000909192909190916101000a81548173ffffffffffffffffffffffffffffffffffffffff021916908373ffffffffffffffffffffffffffffffffffffffff16021790555050600360008273ffffffffffffffffffffffffffffffffffffffff1673ffffffffffffffffffffffffffffffffffffffff16815260200190815260200160002082908060018154018082558091505090600182039060005260206000200160009091929091909150555060046000838152602001908152602001600020600301600081548092919060010191905055505050565b60606004600085815260200190815260200160002060040180548060200260200160405190810160405280929190818152602001828054801561069057602002820191906000526020600020905b8160009054906101000a900473ffffffffffffffffffffffffffffffffffffffff1673ffffffffffffffffffffffffffffffffffffffff1681526020019060010190808311610646575b5050505050905060008090505b8151811015610a355760008282815181106106b457fe5b60200260200101519050600160008273ffffffffffffffffffffffffffffffffffffffff1673ffffffffffffffffffffffffffffffffffffffff1681526020019081526020016000206040518060c001604052803373ffffffffffffffffffffffffffffffffffffffff1681526020018373ffffffffffffffffffffffffffffffffffffffff168152602001898152602001888152602001878152602001868152509080600181540180825580915050906001820390600052602060002090600602016000909192909190915060008201518160000160006101000a81548173ffffffffffffffffffffffffffffffffffffffff021916908373ffffffffffffffffffffffffffffffffffffffff16021790555060208201518160010160006101000a81548173ffffffffffffffffffffffffffffffffffffffff021916908373ffffffffffffffffffffffffffffffffffffffff160217905550604082015181600201908051906020019061082b92919061150f565b5060608201518160030155608082015181600401908051906020019061085292919061150f565b5060a082015181600501908051906020019061086f92919061150f565b505050506000803373ffffffffffffffffffffffffffffffffffffffff1673ffffffffffffffffffffffffffffffffffffffff1681526020019081526020016000206040518060c001604052803373ffffffffffffffffffffffffffffffffffffffff1681526020018373ffffffffffffffffffffffffffffffffffffffff168152602001898152602001888152602001878152602001868152509080600181540180825580915050906001820390600052602060002090600602016000909192909190915060008201518160000160006101000a81548173ffffffffffffffffffffffffffffffffffffffff021916908373ffffffffffffffffffffffffffffffffffffffff16021790555060208201518160010160006101000a81548173ffffffffffffffffffffffffffffffffffffffff021916908373ffffffffffffffffffffffffffffffffffffffff16021790555060408201518160020190805190602001906109df92919061150f565b50606082015181600301556080820151816004019080519060200190610a0692919061150f565b5060a0820151816005019080519060200190610a2392919061150f565b5050505050808060010191505061069d565b5060016004600086815260200190815260200160002060020160146101000a81548160ff0219169083151502179055505050505050565b6000600360008373ffffffffffffffffffffffffffffffffffffffff1673ffffffffffffffffffffffffffffffffffffffff168152602001908152602001600020805490509050919050565b6040518060c0016040528060055481526020018281526020013373ffffffffffffffffffffffffffffffffffffffff168152602001600015158152602001600081526020016000604051908082528060200260200182016040528015610b2d5781602001602082028038833980820191505090505b50815250600460006005548152602001908152602001600020600082015181600001556020820151816001019080519060200190610b6c92919061150f565b5060408201518160020160006101000a81548173ffffffffffffffffffffffffffffffffffffffff021916908373ffffffffffffffffffffffffffffffffffffffff16021790555060608201518160020160146101000a81548160ff0219169083151502179055506080820151816003015560a0820151816004019080519060200190610bfa92919061158f565b50905050600260003373ffffffffffffffffffffffffffffffffffffffff1673ffffffffffffffffffffffffffffffffffffffff168152602001908152602001600020600554908060018154018082558091505090600182039060005260206000200160009091929091909150555060056000815480929190600101919050555050565b60016020528160005260406000208181548110610c9757fe5b9060005260206000209060060201600091509150508060000160009054906101000a900473ffffffffffffffffffffffffffffffffffffffff16908060010160009054906101000a900473ffffffffffffffffffffffffffffffffffffffff1690806002018054600181600116156101000203166002900480601f016020809104026020016040519081016040528092919081815260200182805460018160011615610100020316600290048015610d905780601f10610d6557610100808354040283529160200191610d90565b820191906000526020600020905b815481529060010190602001808311610d7357829003601f168201915b505050505090806003015490806004018054600181600116156101000203166002900480601f016020809104026020016040519081016040528092919081815260200182805460018160011615610100020316600290048015610e345780601f10610e0957610100808354040283529160200191610e34565b820191906000526020600020905b815481529060010190602001808311610e1757829003601f168201915b505050505090806005018054600181600116156101000203166002900480601f016020809104026020016040519081016040528092919081815260200182805460018160011615610100020316600290048015610ed25780601f10610ea757610100808354040283529160200191610ed2565b820191906000526020600020905b815481529060010190602001808311610eb557829003601f168201915b5050505050905086565b60008060008373ffffffffffffffffffffffffffffffffffffffff1673ffffffffffffffffffffffffffffffffffffffff168152602001908152602001600020805490509050919050565b60055481565b60036020528160005260406000208181548110610f4657fe5b90600052602060002001600091509150505481565b60006020528160005260406000208181548110610f7457fe5b9060005260206000209060060201600091509150508060000160009054906101000a900473ffffffffffffffffffffffffffffffffffffffff16908060010160009054906101000a900473ffffffffffffffffffffffffffffffffffffffff1690806002018054600181600116156101000203166002900480601f01602080910402602001604051908101604052809291908181526020018280546001816001161561010002031660029004801561106d5780601f106110425761010080835404028352916020019161106d565b820191906000526020600020905b81548152906001019060200180831161105057829003601f168201915b505050505090806003015490806004018054600181600116156101000203166002900480601f0160208091040260200160405190810160405280929190818152602001828054600181600116156101000203166002900480156111115780601f106110e657610100808354040283529160200191611111565b820191906000526020600020905b8154815290600101906020018083116110f457829003601f168201915b505050505090806005018054600181600116156101000203166002900480601f0160208091040260200160405190810160405280929190818152602001828054600181600116156101000203166002900480156111af5780601f10611184576101008083540402835291602001916111af565b820191906000526020600020905b81548152906001019060200180831161119257829003601f168201915b5050505050905086565b6004602052806000526040600020600091509050806000015490806001018054600181600116156101000203166002900480601f01602080910402602001604051908101604052809291908181526020018280546001816001161561010002031660029004801561126b5780601f106112405761010080835404028352916020019161126b565b820191906000526020600020905b81548152906001019060200180831161124e57829003601f168201915b5050505050908060020160009054906101000a900473ffffffffffffffffffffffffffffffffffffffff16908060020160149054906101000a900460ff16908060030154905085565b60006004600084815260200190815260200160002060040182815481106112d757fe5b9060005260206000200160009054906101000a900473ffffffffffffffffffffffffffffffffffffffff16905092915050565b6002602052816000526040600020818154811061132357fe5b90600052602060002001600091509150505481565b6000600260008373ffffffffffffffffffffffffffffffffffffffff1673ffffffffffffffffffffffffffffffffffffffff168152602001908152602001600020805490509050919050565b600660009054906101000a900473ffffffffffffffffffffffffffffffffffffffff1681565b6000600160008373ffffffffffffffffffffffffffffffffffffffff1673ffffffffffffffffffffffffffffffffffffffff168152602001908152602001600020805490509050919050565b600060606004600085815260200190815260200160002060040180548060200260200160405190810160405280929190818152602001828054801561149057602002820191906000526020600020905b8160009054906101000a900473ffffffffffffffffffffffffffffffffffffffff1673ffffffffffffffffffffffffffffffffffffffff1681526020019060010190808311611446575b5050505050905060005b8151811015611502578373ffffffffffffffffffffffffffffffffffffffff168282815181106114c657fe5b602002602001015173ffffffffffffffffffffffffffffffffffffffff1614156114f557600192505050611509565b808060010191505061149a565b5060009150505b92915050565b828054600181600116156101000203166002900490600052602060002090601f016020900481019282601f1061155057805160ff191683800117855561157e565b8280016001018555821561157e579182015b8281111561157d578251825591602001919060010190611562565b5b50905061158b9190611619565b5090565b828054828255906000526020600020908101928215611608579160200282015b828111156116075782518260006101000a81548173ffffffffffffffffffffffffffffffffffffffff021916908373ffffffffffffffffffffffffffffffffffffffff160217905550916020019190600101906115af565b5b509050611615919061163e565b5090565b61163b91905b8082111561163757600081600090555060010161161f565b5090565b90565b61167e91905b8082111561167a57600081816101000a81549073ffffffffffffffffffffffffffffffffffffffff021916905550600101611644565b5090565b90565b60008135905061169081611cb3565b92915050565b600082601f8301126116a757600080fd5b81356116ba6116b582611bd0565b611ba3565b915080825260208301602083018583830111156116d657600080fd5b6116e1838284611c60565b50505092915050565b6000813590506116f981611cca565b92915050565b60006020828403121561171157600080fd5b600061171f84828501611681565b91505092915050565b6000806040838503121561173b57600080fd5b600061174985828601611681565b925050602061175a858286016116ea565b9150509250929050565b60006020828403121561177657600080fd5b600082013567ffffffffffffffff81111561179057600080fd5b61179c84828501611696565b91505092915050565b600080600080608085870312156117bb57600080fd5b600085013567ffffffffffffffff8111156117d557600080fd5b6117e187828801611696565b94505060206117f2878288016116ea565b935050604085013567ffffffffffffffff81111561180f57600080fd5b61181b87828801611696565b925050606085013567ffffffffffffffff81111561183857600080fd5b61184487828801611696565b91505092959194509250565b60006020828403121561186257600080fd5b6000611870848285016116ea565b91505092915050565b6000806040838503121561188c57600080fd5b600061189a858286016116ea565b92505060206118ab85828601611681565b9150509250929050565b600080604083850312156118c857600080fd5b60006118d6858286016116ea565b92505060206118e7858286016116ea565b9150509250929050565b6118fa81611c18565b82525050565b61190981611c2a565b82525050565b600061191a82611bfc565b6119248185611c07565b9350611934818560208601611c6f565b61193d81611ca2565b840191505092915050565b6000611955602183611c07565b91507f596f7520617265206e6f74206f776e6572206f66207468697320636f7572736560008301527f21000000000000000000000000000000000000000000000000000000000000006020830152604082019050919050565b60006119bb601083611c07565b91507f4e6f20636f7572736520666f756e6421000000000000000000000000000000006000830152602082019050919050565b60006119fb601e83611c07565b91507f5061727469636970616e7420616c726561647920696e20636f757273652100006000830152602082019050919050565b611a3781611c56565b82525050565b6000602082019050611a5260008301846118f1565b92915050565b600060c082019050611a6d60008301896118f1565b611a7a60208301886118f1565b8181036040830152611a8c818761190f565b9050611a9b6060830186611a2e565b8181036080830152611aad818561190f565b905081810360a0830152611ac1818461190f565b9050979650505050505050565b60006020820190508181036000830152611ae781611948565b9050919050565b60006020820190508181036000830152611b07816119ae565b9050919050565b60006020820190508181036000830152611b27816119ee565b9050919050565b6000602082019050611b436000830184611a2e565b92915050565b600060a082019050611b5e6000830188611a2e565b8181036020830152611b70818761190f565b9050611b7f60408301866118f1565b611b8c6060830185611900565b611b996080830184611a2e565b9695505050505050565b6000604051905081810181811067ffffffffffffffff82111715611bc657600080fd5b8060405250919050565b600067ffffffffffffffff821115611be757600080fd5b601f19601f8301169050602081019050919050565b600081519050919050565b600082825260208201905092915050565b6000611c2382611c36565b9050919050565b60008115159050919050565b600073ffffffffffffffffffffffffffffffffffffffff82169050919050565b6000819050919050565b82818337600083830152505050565b60005b83811015611c8d578082015181840152602081019050611c72565b83811115611c9c576000848401525b50505050565b6000601f19601f8301169050919050565b611cbc81611c18565b8114611cc757600080fd5b50565b611cd381611c56565b8114611cde57600080fd5b5056fea365627a7a72315820f3731bf806c55f91a57950555e78b981db09bcaf21c776340716d454f95082ea6c6578706572696d656e74616cf564736f6c63430005100040",
  "source": "pragma solidity 0.5.16;\npragma experimental ABIEncoderV2;\n\ncontract Certification {\n\n    struct Certifate {\n        address publisher;\n        address participant;\n        string title;\n        uint courseId;\n        string course;\n        string imageId;\n    }\n\n    struct Course {\n        uint id;\n        string title;\n        address issuer;\n        bool certificated;\n\n        uint participantCount;\n        address[] participants;\n    }\n\n    // map issuer address to Certifate to get own created Certifates\n    mapping(address => Certifate[]) public issuerCertificates;\n    // map participant to Certifate to get received Certifates\n    mapping(address => Certifate[]) public participantCertificates;\n\n    // map issuer address to Courses to get own created Courses\n    mapping(address => uint[]) public issuerCourses;\n    // map participant to Courses to get Courses where the user is a participant\n    mapping(address => uint[]) public participantCourses;\n\n    mapping(uint => Course) public courses;\n\n    uint public courseCount;\n    address public contractAddress = msg.sender;\n\n    function addCourseCertificates(string memory _title, uint _courseId, string memory _courseTitle, string memory _imageId) public {\n        address[] memory participants = courses[_courseId].participants;\n    \n        for (uint i = 0; i < participants.length; i++) {\n            address participant = participants[i];\n            \n            participantCertificates[participant].push(\n                Certifate(msg.sender, participant, _title, _courseId, _courseTitle, _imageId)\n            );\n\n            issuerCertificates[msg.sender].push(\n                Certifate(msg.sender, participant, _title, _courseId, _courseTitle, _imageId)\n            );\n        }\n\n        courses[_courseId].certificated = true;\n    }\n\n    function getIssuerCertificateCount (address _user) public view returns (uint count){\n        return issuerCertificates[_user].length;\n    }\n    \n    function getParticipantCertificateCount (address _user) public view returns (uint count){\n        return participantCertificates[_user].length;\n    }\n\n    function getIssuerCourseCount (address _issuer) public view returns (uint count){\n        return issuerCourses[_issuer].length;\n    }\n\n    function getParticipantCourseCount(address _participant) public view returns (uint count) {\n        return participantCourses[_participant].length;\n    }\n\n    function getCourseParticipantAt(uint _courseId, uint index) public view returns (address count){\n        return courses[_courseId].participants[index];\n    }\n\n    function addCourse (string memory _title) public {\n        courses[courseCount] = Course(courseCount, _title, msg.sender, false, 0, new address[](0));\n        issuerCourses[msg.sender].push(courseCount);\n        courseCount++;\n    }\n\n    function addParticipant(uint _courseId, address _participant) public {\n\n        require(issuerCourses[msg.sender].length > 0, \"No course found!\");\n        require(courses[_courseId].issuer == msg.sender, \"You are not owner of this course!\");\n        require(!participantExists(_courseId, _participant), \"Participant already in course!\");\n\n        courses[_courseId].participants.push(_participant);\n        participantCourses[_participant].push(_courseId);\n        courses[_courseId].participantCount++;\n    }\n\n    function participantExists (uint _courseId, address _participant) private view returns (bool) {\n        address[] memory participants = courses[_courseId].participants;\n        for (uint i; i < participants.length; i++) {\n            if (participants[i]==_participant) {\n                return true;\n            }\n        }\n        return false;\n    }\n\n\n    constructor() public {\n        addCourse(\"Web Engineering 1\"); // course id: 0\n        addCourse(\"Power Engineering 1\"); // course id: 1\n\n        address participantA = 0xdCad3a6d3569DF655070DEd06cb7A1b2Ccd1D3AF;\n        address participantB = 0xfC9a8E621F0D8821A770a5Cee4cEF8a90D387e8D;\n        \n        addParticipant(0, participantA);\n        addParticipant(0, participantB);\n        addParticipant(1, participantB);\n\n        //issueCertificates(0, \"Web Engineer\");\n\n        // test adding of certificates\n        address receiver = 0x53bde67D3614B1f85eD12B77adA1c0Ca4e86b840;\n    }\n}",
  "sourcePath": "/Users/jacob/Desktop/Projects/Blockchain/BlockCertify/contracts/Certification.sol",
  "compiler": {
    "name": "solc",
    "version": "0.5.16+commit.9c3226ce.Emscripten.clang"
  },
  "schemaVersion": "3.3.1",
  "updatedAt": "2020-11-19T14:58:12.472Z",
  "networkType": "ethereum",
  "devdoc": {
    "methods": {}
  },
  "userdoc": {
    "methods": {}
  }
}