{
  "contractName": "Certification",
  "abi": [
    {
      "inputs": [],
      "payable": false,
      "stateMutability": "nonpayable",
      "type": "constructor"
    },
    {
      "constant": true,
      "inputs": [],
      "name": "contractAddress",
      "outputs": [
        {
          "internalType": "address",
          "name": "",
          "type": "address"
        }
      ],
      "payable": false,
      "stateMutability": "view",
      "type": "function"
    },
    {
      "constant": true,
      "inputs": [],
      "name": "courseCount",
      "outputs": [
        {
          "internalType": "uint256",
          "name": "",
          "type": "uint256"
        }
      ],
      "payable": false,
      "stateMutability": "view",
      "type": "function"
    },
    {
      "constant": true,
      "inputs": [
        {
          "internalType": "uint256",
          "name": "",
          "type": "uint256"
        }
      ],
      "name": "courses",
      "outputs": [
        {
          "internalType": "uint256",
          "name": "id",
          "type": "uint256"
        },
        {
          "internalType": "string",
          "name": "title",
          "type": "string"
        },
        {
          "internalType": "address",
          "name": "issuer",
          "type": "address"
        },
        {
          "internalType": "bool",
          "name": "certificated",
          "type": "bool"
        },
        {
          "internalType": "uint256",
          "name": "participantCount",
          "type": "uint256"
        }
      ],
      "payable": false,
      "stateMutability": "view",
      "type": "function"
    },
    {
      "constant": true,
      "inputs": [
        {
          "internalType": "address",
          "name": "",
          "type": "address"
        },
        {
          "internalType": "uint256",
          "name": "",
          "type": "uint256"
        }
      ],
      "name": "issuerCertificates",
      "outputs": [
        {
          "internalType": "address",
          "name": "issuer",
          "type": "address"
        },
        {
          "internalType": "address",
          "name": "participant",
          "type": "address"
        },
        {
          "internalType": "string",
          "name": "title",
          "type": "string"
        },
        {
          "internalType": "uint256",
          "name": "courseId",
          "type": "uint256"
        },
        {
          "internalType": "string",
          "name": "courseTitle",
          "type": "string"
        },
        {
          "internalType": "string",
          "name": "imageId",
          "type": "string"
        }
      ],
      "payable": false,
      "stateMutability": "view",
      "type": "function"
    },
    {
      "constant": true,
      "inputs": [
        {
          "internalType": "address",
          "name": "",
          "type": "address"
        },
        {
          "internalType": "uint256",
          "name": "",
          "type": "uint256"
        }
      ],
      "name": "issuerCourses",
      "outputs": [
        {
          "internalType": "uint256",
          "name": "",
          "type": "uint256"
        }
      ],
      "payable": false,
      "stateMutability": "view",
      "type": "function"
    },
    {
      "constant": true,
      "inputs": [
        {
          "internalType": "address",
          "name": "",
          "type": "address"
        },
        {
          "internalType": "uint256",
          "name": "",
          "type": "uint256"
        }
      ],
      "name": "participantCertificates",
      "outputs": [
        {
          "internalType": "address",
          "name": "issuer",
          "type": "address"
        },
        {
          "internalType": "address",
          "name": "participant",
          "type": "address"
        },
        {
          "internalType": "string",
          "name": "title",
          "type": "string"
        },
        {
          "internalType": "uint256",
          "name": "courseId",
          "type": "uint256"
        },
        {
          "internalType": "string",
          "name": "courseTitle",
          "type": "string"
        },
        {
          "internalType": "string",
          "name": "imageId",
          "type": "string"
        }
      ],
      "payable": false,
      "stateMutability": "view",
      "type": "function"
    },
    {
      "constant": true,
      "inputs": [
        {
          "internalType": "address",
          "name": "",
          "type": "address"
        },
        {
          "internalType": "uint256",
          "name": "",
          "type": "uint256"
        }
      ],
      "name": "participantCourses",
      "outputs": [
        {
          "internalType": "uint256",
          "name": "",
          "type": "uint256"
        }
      ],
      "payable": false,
      "stateMutability": "view",
      "type": "function"
    },
    {
      "constant": false,
      "inputs": [
        {
          "internalType": "uint256",
          "name": "_courseId",
          "type": "uint256"
        },
        {
          "internalType": "string",
          "name": "_title",
          "type": "string"
        },
        {
          "internalType": "string",
          "name": "_imageId",
          "type": "string"
        },
        {
          "internalType": "address[]",
          "name": "_issueParticipants",
          "type": "address[]"
        }
      ],
      "name": "issueCertificates",
      "outputs": [],
      "payable": false,
      "stateMutability": "nonpayable",
      "type": "function"
    },
    {
      "constant": true,
      "inputs": [
        {
          "internalType": "address",
          "name": "_user",
          "type": "address"
        }
      ],
      "name": "getIssuerCertificateCount",
      "outputs": [
        {
          "internalType": "uint256",
          "name": "count",
          "type": "uint256"
        }
      ],
      "payable": false,
      "stateMutability": "view",
      "type": "function"
    },
    {
      "constant": true,
      "inputs": [
        {
          "internalType": "address",
          "name": "_user",
          "type": "address"
        }
      ],
      "name": "getParticipantCertificateCount",
      "outputs": [
        {
          "internalType": "uint256",
          "name": "count",
          "type": "uint256"
        }
      ],
      "payable": false,
      "stateMutability": "view",
      "type": "function"
    },
    {
      "constant": true,
      "inputs": [
        {
          "internalType": "address",
          "name": "_issuer",
          "type": "address"
        }
      ],
      "name": "getIssuerCourseCount",
      "outputs": [
        {
          "internalType": "uint256",
          "name": "count",
          "type": "uint256"
        }
      ],
      "payable": false,
      "stateMutability": "view",
      "type": "function"
    },
    {
      "constant": true,
      "inputs": [
        {
          "internalType": "address",
          "name": "_participant",
          "type": "address"
        }
      ],
      "name": "getParticipantCourseCount",
      "outputs": [
        {
          "internalType": "uint256",
          "name": "count",
          "type": "uint256"
        }
      ],
      "payable": false,
      "stateMutability": "view",
      "type": "function"
    },
    {
      "constant": true,
      "inputs": [
        {
          "internalType": "uint256",
          "name": "_courseId",
          "type": "uint256"
        },
        {
          "internalType": "uint256",
          "name": "index",
          "type": "uint256"
        }
      ],
      "name": "getCourseParticipantAt",
      "outputs": [
        {
          "internalType": "address",
          "name": "count",
          "type": "address"
        }
      ],
      "payable": false,
      "stateMutability": "view",
      "type": "function"
    },
    {
      "constant": false,
      "inputs": [
        {
          "internalType": "string",
          "name": "_title",
          "type": "string"
        }
      ],
      "name": "addCourse",
      "outputs": [],
      "payable": false,
      "stateMutability": "nonpayable",
      "type": "function"
    },
    {
      "constant": false,
      "inputs": [
        {
          "internalType": "uint256",
          "name": "_courseId",
          "type": "uint256"
        },
        {
          "internalType": "address[]",
          "name": "_participants",
          "type": "address[]"
        }
      ],
      "name": "addCourseParticipants",
      "outputs": [],
      "payable": false,
      "stateMutability": "nonpayable",
      "type": "function"
    },
    {
      "constant": false,
      "inputs": [
        {
          "internalType": "uint256",
          "name": "_courseId",
          "type": "uint256"
        },
        {
          "internalType": "address[]",
          "name": "_participants",
          "type": "address[]"
        }
      ],
      "name": "removeCourseParticipants",
      "outputs": [],
      "payable": false,
      "stateMutability": "nonpayable",
      "type": "function"
    }
  ],
  "bytecode": "0x608060405233600660006101000a81548173ffffffffffffffffffffffffffffffffffffffff021916908373ffffffffffffffffffffffffffffffffffffffff1602179055503480156200005257600080fd5b50620000996040518060400160405280601181526020017f57656220456e67696e656572696e6720310000000000000000000000000000008152506200015460201b60201c565b620000df6040518060400160405280601381526020017f506f77657220456e67696e656572696e672031000000000000000000000000008152506200015460201b60201c565b600073ededb61b4efe88a65221109ddf44c85cde0b89ee9050806004600080815260200190815260200160002060020160006101000a81548173ffffffffffffffffffffffffffffffffffffffff021916908373ffffffffffffffffffffffffffffffffffffffff16021790555050620004a3565b6040518060c0016040528060055481526020018281526020013373ffffffffffffffffffffffffffffffffffffffff168152602001600015158152602001600081526020016000604051908082528060200260200182016040528015620001ca5781602001602082028038833980820191505090505b508152506004600060055481526020019081526020016000206000820151816000015560208201518160010190805190602001906200020b9291906200031f565b5060408201518160020160006101000a81548173ffffffffffffffffffffffffffffffffffffffff021916908373ffffffffffffffffffffffffffffffffffffffff16021790555060608201518160020160146101000a81548160ff0219169083151502179055506080820151816003015560a08201518160040190805190602001906200029b929190620003a6565b50905050600260003373ffffffffffffffffffffffffffffffffffffffff1673ffffffffffffffffffffffffffffffffffffffff168152602001908152602001600020600554908060018154018082558091505090600182039060005260206000200160009091929091909150555060056000815480929190600101919050555050565b828054600181600116156101000203166002900490600052602060002090601f016020900481019282601f106200036257805160ff191683800117855562000393565b8280016001018555821562000393579182015b828111156200039257825182559160200191906001019062000375565b5b509050620003a2919062000435565b5090565b82805482825590600052602060002090810192821562000422579160200282015b82811115620004215782518260006101000a81548173ffffffffffffffffffffffffffffffffffffffff021916908373ffffffffffffffffffffffffffffffffffffffff16021790555091602001919060010190620003c7565b5b5090506200043191906200045d565b5090565b6200045a91905b80821115620004565760008160009055506001016200043c565b5090565b90565b620004a091905b808211156200049c57600081816101000a81549073ffffffffffffffffffffffffffffffffffffffff02191690555060010162000464565b5090565b90565b6124cf80620004b36000396000f3fe608060405234801561001057600080fd5b50600436106101005760003560e01c80638f00931011610097578063b036299311610066578063b0362993146102f1578063b959097a14610321578063f6b4dfb414610351578063f850692f1461036f57610100565b80638f00931014610228578063947ff3241461025857806396f979d21461028d578063a5399aaa146102c157610100565b8063355a8165116100d3578063355a816514610189578063401bcb0a146101be5780635c523ae1146101ee578063660551591461020a57610100565b80631801604b146101055780631e0f92e9146101215780632dcfa82a1461013d5780632e5540761461016d575b600080fd5b61011f600480360361011a9190810190611f39565b61039f565b005b61013b60048036036101369190810190611f39565b610516565b005b61015760048036036101529190810190611e6a565b6107aa565b60405161016491906122b1565b60405180910390f35b61018760048036036101829190810190611ecf565b6107f6565b005b6101a3600480360361019e9190810190611e93565b6109bc565b6040516101b5969594939291906121db565b60405180910390f35b6101d860048036036101d39190810190611e6a565b610c1a565b6040516101e591906122b1565b60405180910390f35b61020860048036036102039190810190611f8d565b610c65565b005b610212611191565b60405161021f91906122b1565b60405180910390f35b610242600480360361023d9190810190611e93565b611197565b60405161024f91906122b1565b60405180910390f35b610272600480360361026d9190810190611e93565b6111c5565b604051610284969594939291906121db565b60405180910390f35b6102a760048036036102a29190810190611f10565b611423565b6040516102b89594939291906122cc565b60405180910390f35b6102db60048036036102d69190810190612038565b61151e565b6040516102e891906121c0565b60405180910390f35b61030b60048036036103069190810190611e93565b611574565b60405161031891906122b1565b60405180910390f35b61033b60048036036103369190810190611e6a565b6115a2565b60405161034891906122b1565b60405180910390f35b6103596115ee565b60405161036691906121c0565b60405180910390f35b61038960048036036103849190810190611e6a565b611614565b60405161039691906122b1565b60405180910390f35b6000600260003373ffffffffffffffffffffffffffffffffffffffff1673ffffffffffffffffffffffffffffffffffffffff1681526020019081526020016000208054905011610424576040517f08c379a000000000000000000000000000000000000000000000000000000000815260040161041b90612291565b60405180910390fd5b3373ffffffffffffffffffffffffffffffffffffffff166004600084815260200190815260200160002060020160009054906101000a900473ffffffffffffffffffffffffffffffffffffffff1673ffffffffffffffffffffffffffffffffffffffff16146104c8576040517f08c379a00000000000000000000000000000000000000000000000000000000081526004016104bf90612251565b60405180910390fd5b60008090505b81518110156105115760008282815181106104e557fe5b602002602001015190506104f98185611660565b6105038482611854565b5080806001019150506104ce565b505050565b6000600260003373ffffffffffffffffffffffffffffffffffffffff1673ffffffffffffffffffffffffffffffffffffffff168152602001908152602001600020805490501161059b576040517f08c379a000000000000000000000000000000000000000000000000000000000815260040161059290612291565b60405180910390fd5b3373ffffffffffffffffffffffffffffffffffffffff166004600084815260200190815260200160002060020160009054906101000a900473ffffffffffffffffffffffffffffffffffffffff1673ffffffffffffffffffffffffffffffffffffffff161461063f576040517f08c379a000000000000000000000000000000000000000000000000000000000815260040161063690612251565b60405180910390fd5b60008090505b81518110156107a557600061066d8484848151811061066057fe5b6020026020010151611a86565b90508061079757600083838151811061068257fe5b60200260200101519050600460008681526020019081526020016000206004018190806001815401808255809150509060018203906000526020600020016000909192909190916101000a81548173ffffffffffffffffffffffffffffffffffffffff021916908373ffffffffffffffffffffffffffffffffffffffff16021790555050600360008273ffffffffffffffffffffffffffffffffffffffff1673ffffffffffffffffffffffffffffffffffffffff1681526020019081526020016000208590806001815401808255809150509060018203906000526020600020016000909192909190915055506004600086815260200190815260200160002060030160008154809291906001019190505550505b508080600101915050610645565b505050565b6000600360008373ffffffffffffffffffffffffffffffffffffffff1673ffffffffffffffffffffffffffffffffffffffff168152602001908152602001600020805490509050919050565b6040518060c0016040528060055481526020018281526020013373ffffffffffffffffffffffffffffffffffffffff16815260200160001515815260200160008152602001600060405190808252806020026020018201604052801561086b5781602001602082028038833980820191505090505b508152506004600060055481526020019081526020016000206000820151816000015560208201518160010190805190602001906108aa929190611b9f565b5060408201518160020160006101000a81548173ffffffffffffffffffffffffffffffffffffffff021916908373ffffffffffffffffffffffffffffffffffffffff16021790555060608201518160020160146101000a81548160ff0219169083151502179055506080820151816003015560a0820151816004019080519060200190610938929190611c1f565b50905050600260003373ffffffffffffffffffffffffffffffffffffffff1673ffffffffffffffffffffffffffffffffffffffff168152602001908152602001600020600554908060018154018082558091505090600182039060005260206000200160009091929091909150555060056000815480929190600101919050555050565b600160205281600052604060002081815481106109d557fe5b9060005260206000209060060201600091509150508060000160009054906101000a900473ffffffffffffffffffffffffffffffffffffffff16908060010160009054906101000a900473ffffffffffffffffffffffffffffffffffffffff1690806002018054600181600116156101000203166002900480601f016020809104026020016040519081016040528092919081815260200182805460018160011615610100020316600290048015610ace5780601f10610aa357610100808354040283529160200191610ace565b820191906000526020600020905b815481529060010190602001808311610ab157829003601f168201915b505050505090806003015490806004018054600181600116156101000203166002900480601f016020809104026020016040519081016040528092919081815260200182805460018160011615610100020316600290048015610b725780601f10610b4757610100808354040283529160200191610b72565b820191906000526020600020905b815481529060010190602001808311610b5557829003601f168201915b505050505090806005018054600181600116156101000203166002900480601f016020809104026020016040519081016040528092919081815260200182805460018160011615610100020316600290048015610c105780601f10610be557610100808354040283529160200191610c10565b820191906000526020600020905b815481529060010190602001808311610bf357829003601f168201915b5050505050905086565b60008060008373ffffffffffffffffffffffffffffffffffffffff1673ffffffffffffffffffffffffffffffffffffffff168152602001908152602001600020805490509050919050565b6060600460008681526020019081526020016000206001018054600181600116156101000203166002900480601f016020809104026020016040519081016040528092919081815260200182805460018160011615610100020316600290048015610d115780601f10610ce657610100808354040283529160200191610d11565b820191906000526020600020905b815481529060010190602001808311610cf457829003601f168201915b505050505090503373ffffffffffffffffffffffffffffffffffffffff166004600087815260200190815260200160002060020160009054906101000a900473ffffffffffffffffffffffffffffffffffffffff1673ffffffffffffffffffffffffffffffffffffffff1614610dbc576040517f08c379a0000000000000000000000000000000000000000000000000000000008152600401610db390612271565b60405180910390fd5b60008090505b825181101561115a576000838281518110610dd957fe5b60200260200101519050600160008273ffffffffffffffffffffffffffffffffffffffff1673ffffffffffffffffffffffffffffffffffffffff1681526020019081526020016000206040518060c001604052803373ffffffffffffffffffffffffffffffffffffffff1681526020018373ffffffffffffffffffffffffffffffffffffffff168152602001888152602001898152602001858152602001878152509080600181540180825580915050906001820390600052602060002090600602016000909192909190915060008201518160000160006101000a81548173ffffffffffffffffffffffffffffffffffffffff021916908373ffffffffffffffffffffffffffffffffffffffff16021790555060208201518160010160006101000a81548173ffffffffffffffffffffffffffffffffffffffff021916908373ffffffffffffffffffffffffffffffffffffffff1602179055506040820151816002019080519060200190610f50929190611b9f565b50606082015181600301556080820151816004019080519060200190610f77929190611b9f565b5060a0820151816005019080519060200190610f94929190611b9f565b505050506000803373ffffffffffffffffffffffffffffffffffffffff1673ffffffffffffffffffffffffffffffffffffffff1681526020019081526020016000206040518060c001604052803373ffffffffffffffffffffffffffffffffffffffff1681526020018373ffffffffffffffffffffffffffffffffffffffff168152602001888152602001898152602001858152602001878152509080600181540180825580915050906001820390600052602060002090600602016000909192909190915060008201518160000160006101000a81548173ffffffffffffffffffffffffffffffffffffffff021916908373ffffffffffffffffffffffffffffffffffffffff16021790555060208201518160010160006101000a81548173ffffffffffffffffffffffffffffffffffffffff021916908373ffffffffffffffffffffffffffffffffffffffff1602179055506040820151816002019080519060200190611104929190611b9f565b5060608201518160030155608082015181600401908051906020019061112b929190611b9f565b5060a0820151816005019080519060200190611148929190611b9f565b50505050508080600101915050610dc2565b5060016004600087815260200190815260200160002060020160146101000a81548160ff0219169083151502179055505050505050565b60055481565b600360205281600052604060002081815481106111b057fe5b90600052602060002001600091509150505481565b600060205281600052604060002081815481106111de57fe5b9060005260206000209060060201600091509150508060000160009054906101000a900473ffffffffffffffffffffffffffffffffffffffff16908060010160009054906101000a900473ffffffffffffffffffffffffffffffffffffffff1690806002018054600181600116156101000203166002900480601f0160208091040260200160405190810160405280929190818152602001828054600181600116156101000203166002900480156112d75780601f106112ac576101008083540402835291602001916112d7565b820191906000526020600020905b8154815290600101906020018083116112ba57829003601f168201915b505050505090806003015490806004018054600181600116156101000203166002900480601f01602080910402602001604051908101604052809291908181526020018280546001816001161561010002031660029004801561137b5780601f106113505761010080835404028352916020019161137b565b820191906000526020600020905b81548152906001019060200180831161135e57829003601f168201915b505050505090806005018054600181600116156101000203166002900480601f0160208091040260200160405190810160405280929190818152602001828054600181600116156101000203166002900480156114195780601f106113ee57610100808354040283529160200191611419565b820191906000526020600020905b8154815290600101906020018083116113fc57829003601f168201915b5050505050905086565b6004602052806000526040600020600091509050806000015490806001018054600181600116156101000203166002900480601f0160208091040260200160405190810160405280929190818152602001828054600181600116156101000203166002900480156114d55780601f106114aa576101008083540402835291602001916114d5565b820191906000526020600020905b8154815290600101906020018083116114b857829003601f168201915b5050505050908060020160009054906101000a900473ffffffffffffffffffffffffffffffffffffffff16908060020160149054906101000a900460ff16908060030154905085565b600060046000848152602001908152602001600020600401828154811061154157fe5b9060005260206000200160009054906101000a900473ffffffffffffffffffffffffffffffffffffffff16905092915050565b6002602052816000526040600020818154811061158d57fe5b90600052602060002001600091509150505481565b6000600260008373ffffffffffffffffffffffffffffffffffffffff1673ffffffffffffffffffffffffffffffffffffffff168152602001908152602001600020805490509050919050565b600660009054906101000a900473ffffffffffffffffffffffffffffffffffffffff1681565b6000600160008373ffffffffffffffffffffffffffffffffffffffff1673ffffffffffffffffffffffffffffffffffffffff168152602001908152602001600020805490509050919050565b6060600360008473ffffffffffffffffffffffffffffffffffffffff1673ffffffffffffffffffffffffffffffffffffffff1681526020019081526020016000208054806020026020016040519081016040528092919081815260200182805480156116eb57602002820191906000526020600020905b8154815260200190600101908083116116d7575b5050505050905060008151905060005b8181101561184d578383828151811061171057fe5b602002602001015114156118405782600183038151811061172d57fe5b6020026020010151600360008773ffffffffffffffffffffffffffffffffffffffff1673ffffffffffffffffffffffffffffffffffffffff168152602001908152602001600020828154811061177f57fe5b9060005260206000200181905550600360008673ffffffffffffffffffffffffffffffffffffffff1673ffffffffffffffffffffffffffffffffffffffff16815260200190815260200160002060018303815481106117da57fe5b9060005260206000200160009055600360008673ffffffffffffffffffffffffffffffffffffffff1673ffffffffffffffffffffffffffffffffffffffff16815260200190815260200160002080548091906001900361183a9190611ca9565b5061184d565b80806001019150506116fb565b5050505050565b6060600460008481526020019081526020016000206004018054806020026020016040519081016040528092919081815260200182805480156118ec57602002820191906000526020600020905b8160009054906101000a900473ffffffffffffffffffffffffffffffffffffffff1673ffffffffffffffffffffffffffffffffffffffff16815260200190600101908083116118a2575b5050505050905060008151905060005b81811015611a7f578373ffffffffffffffffffffffffffffffffffffffff1683828151811061192757fe5b602002602001015173ffffffffffffffffffffffffffffffffffffffff161415611a725782600183038151811061195a57fe5b602002602001015160046000878152602001908152602001600020600401828154811061198357fe5b9060005260206000200160006101000a81548173ffffffffffffffffffffffffffffffffffffffff021916908373ffffffffffffffffffffffffffffffffffffffff1602179055506004600086815260200190815260200160002060040160018303815481106119ef57fe5b9060005260206000200160006101000a81549073ffffffffffffffffffffffffffffffffffffffff021916905560046000868152602001908152602001600020600401805480919060019003611a459190611cd5565b50600460008681526020019081526020016000206003016000815480929190600190039190505550611a7f565b80806001019150506118fc565b5050505050565b6000606060046000858152602001908152602001600020600401805480602002602001604051908101604052809291908181526020018280548015611b2057602002820191906000526020600020905b8160009054906101000a900473ffffffffffffffffffffffffffffffffffffffff1673ffffffffffffffffffffffffffffffffffffffff1681526020019060010190808311611ad6575b5050505050905060005b8151811015611b92578373ffffffffffffffffffffffffffffffffffffffff16828281518110611b5657fe5b602002602001015173ffffffffffffffffffffffffffffffffffffffff161415611b8557600192505050611b99565b8080600101915050611b2a565b5060009150505b92915050565b828054600181600116156101000203166002900490600052602060002090601f016020900481019282601f10611be057805160ff1916838001178555611c0e565b82800160010185558215611c0e579182015b82811115611c0d578251825591602001919060010190611bf2565b5b509050611c1b9190611d01565b5090565b828054828255906000526020600020908101928215611c98579160200282015b82811115611c975782518260006101000a81548173ffffffffffffffffffffffffffffffffffffffff021916908373ffffffffffffffffffffffffffffffffffffffff16021790555091602001919060010190611c3f565b5b509050611ca59190611d26565b5090565b815481835581811115611cd057818360005260206000209182019101611ccf9190611d01565b5b505050565b815481835581811115611cfc57818360005260206000209182019101611cfb9190611d01565b5b505050565b611d2391905b80821115611d1f576000816000905550600101611d07565b5090565b90565b611d6691905b80821115611d6257600081816101000a81549073ffffffffffffffffffffffffffffffffffffffff021916905550600101611d2c565b5090565b90565b600081359050611d788161245e565b92915050565b600082601f830112611d8f57600080fd5b8135611da2611d9d82612353565b612326565b91508181835260208401935060208101905083856020840282011115611dc757600080fd5b60005b83811015611df75781611ddd8882611d69565b845260208401935060208301925050600181019050611dca565b5050505092915050565b600082601f830112611e1257600080fd5b8135611e25611e208261237b565b612326565b91508082526020830160208301858383011115611e4157600080fd5b611e4c83828461240b565b50505092915050565b600081359050611e6481612475565b92915050565b600060208284031215611e7c57600080fd5b6000611e8a84828501611d69565b91505092915050565b60008060408385031215611ea657600080fd5b6000611eb485828601611d69565b9250506020611ec585828601611e55565b9150509250929050565b600060208284031215611ee157600080fd5b600082013567ffffffffffffffff811115611efb57600080fd5b611f0784828501611e01565b91505092915050565b600060208284031215611f2257600080fd5b6000611f3084828501611e55565b91505092915050565b60008060408385031215611f4c57600080fd5b6000611f5a85828601611e55565b925050602083013567ffffffffffffffff811115611f7757600080fd5b611f8385828601611d7e565b9150509250929050565b60008060008060808587031215611fa357600080fd5b6000611fb187828801611e55565b945050602085013567ffffffffffffffff811115611fce57600080fd5b611fda87828801611e01565b935050604085013567ffffffffffffffff811115611ff757600080fd5b61200387828801611e01565b925050606085013567ffffffffffffffff81111561202057600080fd5b61202c87828801611d7e565b91505092959194509250565b6000806040838503121561204b57600080fd5b600061205985828601611e55565b925050602061206a85828601611e55565b9150509250929050565b61207d816123c3565b82525050565b61208c816123d5565b82525050565b600061209d826123a7565b6120a781856123b2565b93506120b781856020860161241a565b6120c08161244d565b840191505092915050565b60006120d86021836123b2565b91507f596f7520617265206e6f74206f776e6572206f66207468697320636f7572736560008301527f21000000000000000000000000000000000000000000000000000000000000006020830152604082019050919050565b600061213e6020836123b2565b91507f596f7520617265206e6f74206f776e6572206f66207468697320636f757273656000830152602082019050919050565b600061217e6010836123b2565b91507f4e6f20636f7572736520666f756e6421000000000000000000000000000000006000830152602082019050919050565b6121ba81612401565b82525050565b60006020820190506121d56000830184612074565b92915050565b600060c0820190506121f06000830189612074565b6121fd6020830188612074565b818103604083015261220f8187612092565b905061221e60608301866121b1565b81810360808301526122308185612092565b905081810360a08301526122448184612092565b9050979650505050505050565b6000602082019050818103600083015261226a816120cb565b9050919050565b6000602082019050818103600083015261228a81612131565b9050919050565b600060208201905081810360008301526122aa81612171565b9050919050565b60006020820190506122c660008301846121b1565b92915050565b600060a0820190506122e160008301886121b1565b81810360208301526122f38187612092565b90506123026040830186612074565b61230f6060830185612083565b61231c60808301846121b1565b9695505050505050565b6000604051905081810181811067ffffffffffffffff8211171561234957600080fd5b8060405250919050565b600067ffffffffffffffff82111561236a57600080fd5b602082029050602081019050919050565b600067ffffffffffffffff82111561239257600080fd5b601f19601f8301169050602081019050919050565b600081519050919050565b600082825260208201905092915050565b60006123ce826123e1565b9050919050565b60008115159050919050565b600073ffffffffffffffffffffffffffffffffffffffff82169050919050565b6000819050919050565b82818337600083830152505050565b60005b8381101561243857808201518184015260208101905061241d565b83811115612447576000848401525b50505050565b6000601f19601f8301169050919050565b612467816123c3565b811461247257600080fd5b50565b61247e81612401565b811461248957600080fd5b5056fea365627a7a72315820f181e94f73843155abdffc22bb193db9d812aa75066799d697d1f7a154c5af466c6578706572696d656e74616cf564736f6c63430005100040",
  "source": "pragma solidity 0.5.16;\npragma experimental ABIEncoderV2;\n\ncontract Certification {\n\n    struct Certifate {\n        address issuer;\n        address participant;\n        string title;\n        uint courseId;\n        string courseTitle;\n        string imageId;\n    }\n\n    struct Course {\n        uint id;\n        string title;\n        address issuer;\n        bool certificated;\n\n        uint participantCount;\n        address[] participants;\n    }\n\n    // map issuer address to Certifate to get own created Certifates\n    mapping(address => Certifate[]) public issuerCertificates;\n    // map participant to Certifate to get received Certifates\n    mapping(address => Certifate[]) public participantCertificates;\n\n    // map issuer address to Courses to get own created Courses\n    mapping(address => uint[]) public issuerCourses;\n    // map participant to Courses to get Courses where the user is a participant\n    mapping(address => uint[]) public participantCourses;\n\n    mapping(uint => Course) public courses;\n\n    uint public courseCount;\n    address public contractAddress = msg.sender;\n\n    function issueCertificates(uint _courseId, string memory _title, string memory _imageId, address[] memory _issueParticipants) public {\n        string memory courseTitle = courses[_courseId].title;\n\n        require(courses[_courseId].issuer == msg.sender, \"You are not owner of this course\");\n\n        for (uint i = 0; i < _issueParticipants.length; i++) {\n            address participant = _issueParticipants[i];\n            \n            participantCertificates[participant].push(\n                Certifate(msg.sender, participant, _title, _courseId, courseTitle, _imageId)\n            );\n\n            issuerCertificates[msg.sender].push(\n                Certifate(msg.sender, participant, _title, _courseId, courseTitle, _imageId)\n            );\n        }\n\n        courses[_courseId].certificated = true;\n    }\n\n    function getIssuerCertificateCount (address _user) public view returns (uint count){\n        return issuerCertificates[_user].length;\n    }\n    \n    function getParticipantCertificateCount (address _user) public view returns (uint count){\n        return participantCertificates[_user].length;\n    }\n\n    function getIssuerCourseCount (address _issuer) public view returns (uint count){\n        return issuerCourses[_issuer].length;\n    }\n\n    function getParticipantCourseCount(address _participant) public view returns (uint count) {\n        return participantCourses[_participant].length;\n    }\n\n    function getCourseParticipantAt(uint _courseId, uint index) public view returns (address count){\n        return courses[_courseId].participants[index];\n    }\n\n    function addCourse (string memory _title) public {\n        courses[courseCount] = Course(courseCount, _title, msg.sender, false, 0, new address[](0));\n        issuerCourses[msg.sender].push(courseCount);\n        courseCount++;\n    }\n\n    function addCourseParticipants(uint _courseId, address[] memory _participants) public {\n\n        require(issuerCourses[msg.sender].length > 0, \"No course found!\");\n        require(courses[_courseId].issuer == msg.sender, \"You are not owner of this course!\");\n\n        for (uint i = 0; i < _participants.length; i++) {\n            // check if participant is already in course\n            bool exists = participantExists(_courseId, _participants[i]);\n            if (!exists) {\n                address participant = _participants[i];\n                courses[_courseId].participants.push(participant);\n                participantCourses[participant].push(_courseId);\n                courses[_courseId].participantCount++;\n            }\n        }\n    }\n\n    function removeCourseParticipants(uint _courseId, address[] memory _participants) public {\n\n        require(issuerCourses[msg.sender].length > 0, \"No course found!\");\n        require(courses[_courseId].issuer == msg.sender, \"You are not owner of this course!\");\n\n        for (uint i = 0; i < _participants.length; i++) {\n            // check if participant is already in course\n            address participant = _participants[i];\n            removeParticipantCourse(participant, _courseId);\n            removeCourseParticipant(_courseId, participant);\n        }\n    }\n\n    function removeParticipantCourse (address _participant, uint _courseId) private {\n        uint[] memory _courses = participantCourses[_participant];\n\n        // go through all participantCourses\n        uint numberOfCourses = _courses.length;\n        for (uint i; i < numberOfCourses; i++) {\n\n            // check if participantCourse is the target one\n            if (_courses[i] == _courseId) {\n                // delete participantCourse by \"swaping & delete\"\n                participantCourses[_participant][i] = _courses[numberOfCourses - 1];\n                delete participantCourses[_participant][numberOfCourses - 1];\n                participantCourses[_participant].length--;\n                break;\n            }\n        }\n    }\n\n    function removeCourseParticipant (uint _courseId, address _participant) private {\n        address[] memory _participants = courses[_courseId].participants;\n\n        // go through all courseParticipants\n        uint numberOfParticipants = _participants.length;\n        for (uint i; i < numberOfParticipants; i++) {\n\n            // check if courseParticipant is the target one\n            if (_participants[i] == _participant) {\n                // delete courseParticipant by \"swaping & delete\"\n                courses[_courseId].participants[i] = _participants[numberOfParticipants - 1];\n                delete courses[_courseId].participants[numberOfParticipants - 1];\n                courses[_courseId].participants.length--;\n                courses[_courseId].participantCount--;\n                break;\n            }\n        }\n    }\n\n    function participantExists (uint _courseId, address _participant) private view returns (bool) {\n        address[] memory participants = courses[_courseId].participants;\n        for (uint i; i < participants.length; i++) {\n            if (participants[i]==_participant) {\n                return true;\n            }\n        }\n        return false;\n    }\n\n\n    address[] participants;\n\n    constructor() public {\n        addCourse(\"Web Engineering 1\"); // course id: 0\n        addCourse(\"Power Engineering 1\"); // course id: 1\n        \n        // manually change owner of first course for testing if owner is correct\n        address mockIssuer = 0xededB61b4efE88a65221109ddF44C85cdE0B89ee;\n        courses[0].issuer = mockIssuer;\n\n        // addCourseParticipants(0, participants);\n        // addCourseParticipants(1, participants);\n    }\n}",
  "sourcePath": "/Users/jacob/Desktop/Projects/Blockchain/BlockCertify/contracts/Certification.sol",
  "compiler": {
    "name": "solc",
    "version": "0.5.16+commit.9c3226ce.Emscripten.clang"
  },
  "schemaVersion": "3.3.1",
  "updatedAt": "2020-12-05T15:04:09.965Z",
  "networkType": "ethereum",
  "devdoc": {
    "methods": {}
  },
  "userdoc": {
    "methods": {}
  }
}