{
  "contractName": "Certification",
  "abi": [
    {
      "inputs": [],
      "payable": false,
      "stateMutability": "nonpayable",
      "type": "constructor"
    },
    {
      "constant": true,
      "inputs": [],
      "name": "contractAddress",
      "outputs": [
        {
          "internalType": "address",
          "name": "",
          "type": "address"
        }
      ],
      "payable": false,
      "stateMutability": "view",
      "type": "function"
    },
    {
      "constant": true,
      "inputs": [],
      "name": "courseCount",
      "outputs": [
        {
          "internalType": "uint256",
          "name": "",
          "type": "uint256"
        }
      ],
      "payable": false,
      "stateMutability": "view",
      "type": "function"
    },
    {
      "constant": true,
      "inputs": [
        {
          "internalType": "uint256",
          "name": "",
          "type": "uint256"
        },
        {
          "internalType": "uint256",
          "name": "",
          "type": "uint256"
        }
      ],
      "name": "courseParticipants",
      "outputs": [
        {
          "internalType": "address",
          "name": "",
          "type": "address"
        }
      ],
      "payable": false,
      "stateMutability": "view",
      "type": "function"
    },
    {
      "constant": true,
      "inputs": [
        {
          "internalType": "address",
          "name": "",
          "type": "address"
        },
        {
          "internalType": "uint256",
          "name": "",
          "type": "uint256"
        }
      ],
      "name": "issuerCertificates",
      "outputs": [
        {
          "internalType": "address",
          "name": "publisher",
          "type": "address"
        },
        {
          "internalType": "address",
          "name": "participant",
          "type": "address"
        },
        {
          "internalType": "string",
          "name": "title",
          "type": "string"
        },
        {
          "internalType": "uint256",
          "name": "courseId",
          "type": "uint256"
        },
        {
          "internalType": "string",
          "name": "course",
          "type": "string"
        }
      ],
      "payable": false,
      "stateMutability": "view",
      "type": "function"
    },
    {
      "constant": true,
      "inputs": [
        {
          "internalType": "address",
          "name": "",
          "type": "address"
        },
        {
          "internalType": "uint256",
          "name": "",
          "type": "uint256"
        }
      ],
      "name": "issuerCourses",
      "outputs": [
        {
          "internalType": "uint256",
          "name": "id",
          "type": "uint256"
        },
        {
          "internalType": "string",
          "name": "title",
          "type": "string"
        }
      ],
      "payable": false,
      "stateMutability": "view",
      "type": "function"
    },
    {
      "constant": true,
      "inputs": [
        {
          "internalType": "address",
          "name": "",
          "type": "address"
        },
        {
          "internalType": "uint256",
          "name": "",
          "type": "uint256"
        }
      ],
      "name": "participantCertificates",
      "outputs": [
        {
          "internalType": "address",
          "name": "publisher",
          "type": "address"
        },
        {
          "internalType": "address",
          "name": "participant",
          "type": "address"
        },
        {
          "internalType": "string",
          "name": "title",
          "type": "string"
        },
        {
          "internalType": "uint256",
          "name": "courseId",
          "type": "uint256"
        },
        {
          "internalType": "string",
          "name": "course",
          "type": "string"
        }
      ],
      "payable": false,
      "stateMutability": "view",
      "type": "function"
    },
    {
      "constant": true,
      "inputs": [
        {
          "internalType": "address",
          "name": "",
          "type": "address"
        },
        {
          "internalType": "uint256",
          "name": "",
          "type": "uint256"
        }
      ],
      "name": "participantCourses",
      "outputs": [
        {
          "internalType": "uint256",
          "name": "id",
          "type": "uint256"
        },
        {
          "internalType": "string",
          "name": "title",
          "type": "string"
        }
      ],
      "payable": false,
      "stateMutability": "view",
      "type": "function"
    },
    {
      "constant": false,
      "inputs": [
        {
          "internalType": "address",
          "name": "_participant",
          "type": "address"
        },
        {
          "internalType": "string",
          "name": "_title",
          "type": "string"
        },
        {
          "internalType": "uint256",
          "name": "_courseId",
          "type": "uint256"
        },
        {
          "internalType": "string",
          "name": "_courseTitle",
          "type": "string"
        }
      ],
      "name": "addCertificate",
      "outputs": [],
      "payable": false,
      "stateMutability": "nonpayable",
      "type": "function"
    },
    {
      "constant": true,
      "inputs": [
        {
          "internalType": "address",
          "name": "_user",
          "type": "address"
        }
      ],
      "name": "getIssuerCertificateCount",
      "outputs": [
        {
          "internalType": "uint256",
          "name": "count",
          "type": "uint256"
        }
      ],
      "payable": false,
      "stateMutability": "view",
      "type": "function"
    },
    {
      "constant": true,
      "inputs": [
        {
          "internalType": "address",
          "name": "_user",
          "type": "address"
        }
      ],
      "name": "getParticipantCertificateCount",
      "outputs": [
        {
          "internalType": "uint256",
          "name": "count",
          "type": "uint256"
        }
      ],
      "payable": false,
      "stateMutability": "view",
      "type": "function"
    },
    {
      "constant": true,
      "inputs": [
        {
          "internalType": "address",
          "name": "_issuer",
          "type": "address"
        }
      ],
      "name": "getIssuerCourseCount",
      "outputs": [
        {
          "internalType": "uint256",
          "name": "count",
          "type": "uint256"
        }
      ],
      "payable": false,
      "stateMutability": "view",
      "type": "function"
    },
    {
      "constant": true,
      "inputs": [
        {
          "internalType": "address",
          "name": "_issuer",
          "type": "address"
        },
        {
          "internalType": "uint256",
          "name": "_courseId",
          "type": "uint256"
        }
      ],
      "name": "getIssuerCourseById",
      "outputs": [
        {
          "components": [
            {
              "internalType": "uint256",
              "name": "id",
              "type": "uint256"
            },
            {
              "internalType": "string",
              "name": "title",
              "type": "string"
            }
          ],
          "internalType": "struct Certification.Course",
          "name": "course",
          "type": "tuple"
        }
      ],
      "payable": false,
      "stateMutability": "view",
      "type": "function"
    },
    {
      "constant": true,
      "inputs": [
        {
          "internalType": "address",
          "name": "_participant",
          "type": "address"
        }
      ],
      "name": "getParticipantCourseCount",
      "outputs": [
        {
          "internalType": "uint256",
          "name": "count",
          "type": "uint256"
        }
      ],
      "payable": false,
      "stateMutability": "view",
      "type": "function"
    },
    {
      "constant": true,
      "inputs": [
        {
          "internalType": "uint256",
          "name": "_courseId",
          "type": "uint256"
        },
        {
          "internalType": "uint256",
          "name": "_index",
          "type": "uint256"
        }
      ],
      "name": "getCourseParticipant",
      "outputs": [
        {
          "internalType": "address",
          "name": "",
          "type": "address"
        }
      ],
      "payable": false,
      "stateMutability": "view",
      "type": "function"
    },
    {
      "constant": false,
      "inputs": [
        {
          "internalType": "string",
          "name": "_title",
          "type": "string"
        }
      ],
      "name": "addCourse",
      "outputs": [],
      "payable": false,
      "stateMutability": "nonpayable",
      "type": "function"
    },
    {
      "constant": false,
      "inputs": [
        {
          "internalType": "uint256",
          "name": "_courseId",
          "type": "uint256"
        },
        {
          "internalType": "address",
          "name": "_participant",
          "type": "address"
        }
      ],
      "name": "addParticipant",
      "outputs": [],
      "payable": false,
      "stateMutability": "nonpayable",
      "type": "function"
    }
  ],
  "bytecode": "0x608060405233600660006101000a81548173ffffffffffffffffffffffffffffffffffffffff021916908373ffffffffffffffffffffffffffffffffffffffff1602179055503480156200005257600080fd5b50620000996040518060400160405280601181526020017f57656220456e67696e656572696e672031000000000000000000000000000000815250620005be60201b60201c565b620000df6040518060400160405280601381526020017f506f77657220456e67696e656572696e67203100000000000000000000000000815250620005be60201b60201c565b600073dcad3a6d3569df655070ded06cb7a1b2ccd1d3af9050600073fc9a8e621f0d8821a770a5cee4cef8a90d387e8d905062000180600260003373ffffffffffffffffffffffffffffffffffffffff1673ffffffffffffffffffffffffffffffffffffffff1681526020019081526020016000206000815481106200016157fe5b906000526020600020906002020160000154836200068060201b60201c565b620001ef600260003373ffffffffffffffffffffffffffffffffffffffff1673ffffffffffffffffffffffffffffffffffffffff168152602001908152602001600020600081548110620001d057fe5b906000526020600020906002020160000154826200068060201b60201c565b6200025e600260003373ffffffffffffffffffffffffffffffffffffffff1673ffffffffffffffffffffffffffffffffffffffff1681526020019081526020016000206001815481106200023f57fe5b906000526020600020906002020160000154826200068060201b60201c565b60007353bde67d3614b1f85ed12b77ada1c0ca4e86b840905062000416816040518060400160405280600c81526020017f57656220456e67696e6565720000000000000000000000000000000000000000815250600260003373ffffffffffffffffffffffffffffffffffffffff1673ffffffffffffffffffffffffffffffffffffffff168152602001908152602001600020600081548110620002fe57fe5b906000526020600020906002020160000154600260003373ffffffffffffffffffffffffffffffffffffffff1673ffffffffffffffffffffffffffffffffffffffff1681526020019081526020016000206000815481106200035c57fe5b90600052602060002090600202016001018054600181600116156101000203166002900480601f016020809104026020016040519081016040528092919081815260200182805460018160011615610100020316600290048015620004055780601f10620003d95761010080835404028352916020019162000405565b820191906000526020600020905b815481529060010190602001808311620003e757829003601f168201915b505050505062000a7b60201b60201c565b620005b5816040518060400160405280600e81526020017f506f77657220456e67696e656572000000000000000000000000000000000000815250600260003373ffffffffffffffffffffffffffffffffffffffff1673ffffffffffffffffffffffffffffffffffffffff1681526020019081526020016000206001815481106200049d57fe5b906000526020600020906002020160000154600260003373ffffffffffffffffffffffffffffffffffffffff1673ffffffffffffffffffffffffffffffffffffffff168152602001908152602001600020600181548110620004fb57fe5b90600052602060002090600202016001018054600181600116156101000203166002900480601f016020809104026020016040519081016040528092919081815260200182805460018160011615610100020316600290048015620005a45780601f106200057857610100808354040283529160200191620005a4565b820191906000526020600020905b8154815290600101906020018083116200058657829003601f168201915b505050505062000a7b60201b60201c565b505050620010cf565b600260003373ffffffffffffffffffffffffffffffffffffffff1673ffffffffffffffffffffffffffffffffffffffff1681526020019081526020016000206040518060400160405280600554815260200183815250908060018154018082558091505090600182039060005260206000209060020201600090919290919091506000820151816000015560208201518160010190805190602001906200066792919062000ec9565b5050505060056000815480929190600101919050555050565b6000600260003373ffffffffffffffffffffffffffffffffffffffff1673ffffffffffffffffffffffffffffffffffffffff168152602001908152602001600020805490501162000708576040517f08c379a0000000000000000000000000000000000000000000000000000000008152600401620006ff9062001058565b60405180910390fd5b6060600260003373ffffffffffffffffffffffffffffffffffffffff1673ffffffffffffffffffffffffffffffffffffffff168152602001908152602001600020805480602002602001604051908101604052809291908181526020016000905b828210156200084d578382906000526020600020906002020160405180604001604052908160008201548152602001600182018054600181600116156101000203166002900480601f016020809104026020016040519081016040528092919081815260200182805460018160011615610100020316600290048015620008345780601f10620008085761010080835404028352916020019162000834565b820191906000526020600020905b8154815290600101906020018083116200081657829003601f168201915b5050505050815250508152602001906001019062000769565b50505050905060008151905060008090506200086862000f50565b60008090505b83811015620008cc57868582815181106200088557fe5b602002602001015160000151146200089d57620008be565b60019250848181518110620008ae57fe5b60200260200101519150620008cc565b80806001019150506200086e565b508162000910576040517f08c379a000000000000000000000000000000000000000000000000000000000815260040162000907906200109c565b60405180910390fd5b62000922868662000dac60201b60201c565b1562000965576040517f08c379a00000000000000000000000000000000000000000000000000000000081526004016200095c906200107a565b60405180910390fd5b600460008781526020019081526020016000208590806001815401808255809150509060018203906000526020600020016000909192909190916101000a81548173ffffffffffffffffffffffffffffffffffffffff021916908373ffffffffffffffffffffffffffffffffffffffff16021790555050600360008673ffffffffffffffffffffffffffffffffffffffff1673ffffffffffffffffffffffffffffffffffffffff168152602001908152602001600020819080600181540180825580915050906001820390600052602060002090600202016000909192909190915060008201518160000155602082015181600101908051906020019062000a6f92919062000ec9565b50505050505050505050565b600160008573ffffffffffffffffffffffffffffffffffffffff1673ffffffffffffffffffffffffffffffffffffffff1681526020019081526020016000206040518060a001604052803373ffffffffffffffffffffffffffffffffffffffff1681526020018673ffffffffffffffffffffffffffffffffffffffff168152602001858152602001848152602001838152509080600181540180825580915050906001820390600052602060002090600502016000909192909190915060008201518160000160006101000a81548173ffffffffffffffffffffffffffffffffffffffff021916908373ffffffffffffffffffffffffffffffffffffffff16021790555060208201518160010160006101000a81548173ffffffffffffffffffffffffffffffffffffffff021916908373ffffffffffffffffffffffffffffffffffffffff160217905550604082015181600201908051906020019062000be492919062000ec9565b5060608201518160030155608082015181600401908051906020019062000c0d92919062000ec9565b505050506000803373ffffffffffffffffffffffffffffffffffffffff1673ffffffffffffffffffffffffffffffffffffffff1681526020019081526020016000206040518060a001604052803373ffffffffffffffffffffffffffffffffffffffff1681526020018673ffffffffffffffffffffffffffffffffffffffff168152602001858152602001848152602001838152509080600181540180825580915050906001820390600052602060002090600502016000909192909190915060008201518160000160006101000a81548173ffffffffffffffffffffffffffffffffffffffff021916908373ffffffffffffffffffffffffffffffffffffffff16021790555060208201518160010160006101000a81548173ffffffffffffffffffffffffffffffffffffffff021916908373ffffffffffffffffffffffffffffffffffffffff160217905550604082015181600201908051906020019062000d7992919062000ec9565b5060608201518160030155608082015181600401908051906020019062000da292919062000ec9565b5050505050505050565b600060606004600085815260200190815260200160002080548060200260200160405190810160405280929190818152602001828054801562000e4557602002820191906000526020600020905b8160009054906101000a900473ffffffffffffffffffffffffffffffffffffffff1673ffffffffffffffffffffffffffffffffffffffff168152602001906001019080831162000dfa575b5050505050905060005b815181101562000ebc578373ffffffffffffffffffffffffffffffffffffffff1682828151811062000e7d57fe5b602002602001015173ffffffffffffffffffffffffffffffffffffffff16141562000eae5760019250505062000ec3565b808060010191505062000e4f565b5060009150505b92915050565b828054600181600116156101000203166002900490600052602060002090601f016020900481019282601f1062000f0c57805160ff191683800117855562000f3d565b8280016001018555821562000f3d579182015b8281111562000f3c57825182559160200191906001019062000f1f565b5b50905062000f4c919062000f6a565b5090565b604051806040016040528060008152602001606081525090565b62000f8f91905b8082111562000f8b57600081600090555060010162000f71565b5090565b90565b600062000fa1601083620010be565b91507f4e6f20636f7572736520666f756e6421000000000000000000000000000000006000830152602082019050919050565b600062000fe3601e83620010be565b91507f5061727469636970616e7420616c726561647920696e20636f757273652100006000830152602082019050919050565b600062001025601683620010be565b91507f436f7572736520646f6573206e6f7420657869737421000000000000000000006000830152602082019050919050565b60006020820190508181036000830152620010738162000f92565b9050919050565b60006020820190508181036000830152620010958162000fd4565b9050919050565b60006020820190508181036000830152620010b78162001016565b9050919050565b600082825260208201905092915050565b611cbd80620010df6000396000f3fe608060405234801561001057600080fd5b50600436106101005760003560e01c80638f00931011610097578063b959097a11610066578063b959097a14610315578063e725d50014610345578063f6b4dfb414610361578063f850692f1461037f57610100565b80638f0093101461024f578063947ff32414610280578063a34b132a146102b4578063b0362993146102e457610100565b806339fd6089116100d357806339fd6089146101a15780633f9c0cba146101d1578063401bcb0a14610201578063660551591461023157610100565b806318d85e53146101055780632dcfa82a146101215780632e55407614610151578063355a81651461016d575b600080fd5b61011f600480360361011a91908101906117da565b6103af565b005b61013b600480360361013691908101906116a1565b610788565b6040516101489190611aec565b60405180910390f35b61016b60048036036101669190810190611799565b6107d4565b005b6101876004803603610182919081019061175d565b610894565b604051610198959493929190611a09565b60405180910390f35b6101bb60048036036101b69190810190611816565b610a54565b6040516101c891906119ee565b60405180910390f35b6101eb60048036036101e6919081019061175d565b610a9f565b6040516101f89190611aca565b60405180910390f35b61021b600480360361021691908101906116a1565b610c57565b6040516102289190611aec565b60405180910390f35b610239610ca2565b6040516102469190611aec565b60405180910390f35b6102696004803603610264919081019061175d565b610ca8565b604051610277929190611b07565b60405180910390f35b61029a6004803603610295919081019061175d565b610d7e565b6040516102ab959493929190611a09565b60405180910390f35b6102ce60048036036102c99190810190611816565b610f3e565b6040516102db91906119ee565b60405180910390f35b6102fe60048036036102f9919081019061175d565b610f91565b60405161030c929190611b07565b60405180910390f35b61032f600480360361032a91908101906116a1565b611067565b60405161033c9190611aec565b60405180910390f35b61035f600480360361035a91908101906116ca565b6110b3565b005b6103696113dc565b60405161037691906119ee565b60405180910390f35b610399600480360361039491908101906116a1565b611402565b6040516103a69190611aec565b60405180910390f35b6000600260003373ffffffffffffffffffffffffffffffffffffffff1673ffffffffffffffffffffffffffffffffffffffff1681526020019081526020016000208054905011610434576040517f08c379a000000000000000000000000000000000000000000000000000000000815260040161042b90611a6a565b60405180910390fd5b6060600260003373ffffffffffffffffffffffffffffffffffffffff1673ffffffffffffffffffffffffffffffffffffffff168152602001908152602001600020805480602002602001604051908101604052809291908181526020016000905b82821015610573578382906000526020600020906002020160405180604001604052908160008201548152602001600182018054600181600116156101000203166002900480601f01602080910402602001604051908101604052809291908181526020018280546001816001161561010002031660029004801561055b5780601f106105305761010080835404028352916020019161055b565b820191906000526020600020905b81548152906001019060200180831161053e57829003601f168201915b50505050508152505081526020019060010190610495565b505050509050600081519050600080905061058c611564565b60008090505b838110156105e957868582815181106105a757fe5b602002602001015160000151146105bd576105dc565b600192508481815181106105cd57fe5b602002602001015191506105e9565b8080600101915050610592565b508161062a576040517f08c379a000000000000000000000000000000000000000000000000000000000815260040161062190611aaa565b60405180910390fd5b610634868661144e565b15610674576040517f08c379a000000000000000000000000000000000000000000000000000000000815260040161066b90611a8a565b60405180910390fd5b600460008781526020019081526020016000208590806001815401808255809150509060018203906000526020600020016000909192909190916101000a81548173ffffffffffffffffffffffffffffffffffffffff021916908373ffffffffffffffffffffffffffffffffffffffff16021790555050600360008673ffffffffffffffffffffffffffffffffffffffff1673ffffffffffffffffffffffffffffffffffffffff168152602001908152602001600020819080600181540180825580915050906001820390600052602060002090600202016000909192909190915060008201518160000155602082015181600101908051906020019061077c92919061157e565b50505050505050505050565b6000600360008373ffffffffffffffffffffffffffffffffffffffff1673ffffffffffffffffffffffffffffffffffffffff168152602001908152602001600020805490509050919050565b600260003373ffffffffffffffffffffffffffffffffffffffff1673ffffffffffffffffffffffffffffffffffffffff16815260200190815260200160002060405180604001604052806005548152602001838152509080600181540180825580915050906001820390600052602060002090600202016000909192909190915060008201518160000155602082015181600101908051906020019061087b92919061157e565b5050505060056000815480929190600101919050555050565b600160205281600052604060002081815481106108ad57fe5b9060005260206000209060050201600091509150508060000160009054906101000a900473ffffffffffffffffffffffffffffffffffffffff16908060010160009054906101000a900473ffffffffffffffffffffffffffffffffffffffff1690806002018054600181600116156101000203166002900480601f0160208091040260200160405190810160405280929190818152602001828054600181600116156101000203166002900480156109a65780601f1061097b576101008083540402835291602001916109a6565b820191906000526020600020905b81548152906001019060200180831161098957829003601f168201915b505050505090806003015490806004018054600181600116156101000203166002900480601f016020809104026020016040519081016040528092919081815260200182805460018160011615610100020316600290048015610a4a5780601f10610a1f57610100808354040283529160200191610a4a565b820191906000526020600020905b815481529060010190602001808311610a2d57829003601f168201915b5050505050905085565b60046020528160005260406000208181548110610a6d57fe5b906000526020600020016000915091509054906101000a900473ffffffffffffffffffffffffffffffffffffffff1681565b610aa7611564565b6060600260008573ffffffffffffffffffffffffffffffffffffffff1673ffffffffffffffffffffffffffffffffffffffff168152602001908152602001600020805480602002602001604051908101604052809291908181526020016000905b82821015610be6578382906000526020600020906002020160405180604001604052908160008201548152602001600182018054600181600116156101000203166002900480601f016020809104026020016040519081016040528092919081815260200182805460018160011615610100020316600290048015610bce5780601f10610ba357610100808354040283529160200191610bce565b820191906000526020600020905b815481529060010190602001808311610bb157829003601f168201915b50505050508152505081526020019060010190610b08565b50505050905060008151905060008090505b81811015610c4b5784838281518110610c0d57fe5b60200260200101516000015114610c2357610c3e565b828181518110610c2f57fe5b60200260200101519350610c4b565b8080600101915050610bf8565b50829250505092915050565b60008060008373ffffffffffffffffffffffffffffffffffffffff1673ffffffffffffffffffffffffffffffffffffffff168152602001908152602001600020805490509050919050565b60055481565b60036020528160005260406000208181548110610cc157fe5b906000526020600020906002020160009150915050806000015490806001018054600181600116156101000203166002900480601f016020809104026020016040519081016040528092919081815260200182805460018160011615610100020316600290048015610d745780601f10610d4957610100808354040283529160200191610d74565b820191906000526020600020905b815481529060010190602001808311610d5757829003601f168201915b5050505050905082565b60006020528160005260406000208181548110610d9757fe5b9060005260206000209060050201600091509150508060000160009054906101000a900473ffffffffffffffffffffffffffffffffffffffff16908060010160009054906101000a900473ffffffffffffffffffffffffffffffffffffffff1690806002018054600181600116156101000203166002900480601f016020809104026020016040519081016040528092919081815260200182805460018160011615610100020316600290048015610e905780601f10610e6557610100808354040283529160200191610e90565b820191906000526020600020905b815481529060010190602001808311610e7357829003601f168201915b505050505090806003015490806004018054600181600116156101000203166002900480601f016020809104026020016040519081016040528092919081815260200182805460018160011615610100020316600290048015610f345780601f10610f0957610100808354040283529160200191610f34565b820191906000526020600020905b815481529060010190602001808311610f1757829003601f168201915b5050505050905085565b6000600460008481526020019081526020016000208281548110610f5e57fe5b9060005260206000200160009054906101000a900473ffffffffffffffffffffffffffffffffffffffff16905092915050565b60026020528160005260406000208181548110610faa57fe5b906000526020600020906002020160009150915050806000015490806001018054600181600116156101000203166002900480601f01602080910402602001604051908101604052809291908181526020018280546001816001161561010002031660029004801561105d5780601f106110325761010080835404028352916020019161105d565b820191906000526020600020905b81548152906001019060200180831161104057829003601f168201915b5050505050905082565b6000600260008373ffffffffffffffffffffffffffffffffffffffff1673ffffffffffffffffffffffffffffffffffffffff168152602001908152602001600020805490509050919050565b600160008573ffffffffffffffffffffffffffffffffffffffff1673ffffffffffffffffffffffffffffffffffffffff1681526020019081526020016000206040518060a001604052803373ffffffffffffffffffffffffffffffffffffffff1681526020018673ffffffffffffffffffffffffffffffffffffffff168152602001858152602001848152602001838152509080600181540180825580915050906001820390600052602060002090600502016000909192909190915060008201518160000160006101000a81548173ffffffffffffffffffffffffffffffffffffffff021916908373ffffffffffffffffffffffffffffffffffffffff16021790555060208201518160010160006101000a81548173ffffffffffffffffffffffffffffffffffffffff021916908373ffffffffffffffffffffffffffffffffffffffff160217905550604082015181600201908051906020019061121a92919061157e565b5060608201518160030155608082015181600401908051906020019061124192919061157e565b505050506000803373ffffffffffffffffffffffffffffffffffffffff1673ffffffffffffffffffffffffffffffffffffffff1681526020019081526020016000206040518060a001604052803373ffffffffffffffffffffffffffffffffffffffff1681526020018673ffffffffffffffffffffffffffffffffffffffff168152602001858152602001848152602001838152509080600181540180825580915050906001820390600052602060002090600502016000909192909190915060008201518160000160006101000a81548173ffffffffffffffffffffffffffffffffffffffff021916908373ffffffffffffffffffffffffffffffffffffffff16021790555060208201518160010160006101000a81548173ffffffffffffffffffffffffffffffffffffffff021916908373ffffffffffffffffffffffffffffffffffffffff16021790555060408201518160020190805190602001906113ab92919061157e565b506060820151816003015560808201518160040190805190602001906113d292919061157e565b5050505050505050565b600660009054906101000a900473ffffffffffffffffffffffffffffffffffffffff1681565b6000600160008373ffffffffffffffffffffffffffffffffffffffff1673ffffffffffffffffffffffffffffffffffffffff168152602001908152602001600020805490509050919050565b60006060600460008581526020019081526020016000208054806020026020016040519081016040528092919081815260200182805480156114e557602002820191906000526020600020905b8160009054906101000a900473ffffffffffffffffffffffffffffffffffffffff1673ffffffffffffffffffffffffffffffffffffffff168152602001906001019080831161149b575b5050505050905060005b8151811015611557578373ffffffffffffffffffffffffffffffffffffffff1682828151811061151b57fe5b602002602001015173ffffffffffffffffffffffffffffffffffffffff16141561154a5760019250505061155e565b80806001019150506114ef565b5060009150505b92915050565b604051806040016040528060008152602001606081525090565b828054600181600116156101000203166002900490600052602060002090601f016020900481019282601f106115bf57805160ff19168380011785556115ed565b828001600101855582156115ed579182015b828111156115ec5782518255916020019190600101906115d1565b5b5090506115fa91906115fe565b5090565b61162091905b8082111561161c576000816000905550600101611604565b5090565b90565b60008135905061163281611c4c565b92915050565b600082601f83011261164957600080fd5b813561165c61165782611b64565b611b37565b9150808252602083016020830185838301111561167857600080fd5b611683838284611bf9565b50505092915050565b60008135905061169b81611c63565b92915050565b6000602082840312156116b357600080fd5b60006116c184828501611623565b91505092915050565b600080600080608085870312156116e057600080fd5b60006116ee87828801611623565b945050602085013567ffffffffffffffff81111561170b57600080fd5b61171787828801611638565b93505060406117288782880161168c565b925050606085013567ffffffffffffffff81111561174557600080fd5b61175187828801611638565b91505092959194509250565b6000806040838503121561177057600080fd5b600061177e85828601611623565b925050602061178f8582860161168c565b9150509250929050565b6000602082840312156117ab57600080fd5b600082013567ffffffffffffffff8111156117c557600080fd5b6117d184828501611638565b91505092915050565b600080604083850312156117ed57600080fd5b60006117fb8582860161168c565b925050602061180c85828601611623565b9150509250929050565b6000806040838503121561182957600080fd5b60006118378582860161168c565b92505060206118488582860161168c565b9150509250929050565b61185b81611bbd565b82525050565b600061186c82611b90565b6118768185611b9b565b9350611886818560208601611c08565b61188f81611c3b565b840191505092915050565b60006118a582611b90565b6118af8185611bac565b93506118bf818560208601611c08565b6118c881611c3b565b840191505092915050565b60006118e0601083611bac565b91507f4e6f20636f7572736520666f756e6421000000000000000000000000000000006000830152602082019050919050565b6000611920601e83611bac565b91507f5061727469636970616e7420616c726561647920696e20636f757273652100006000830152602082019050919050565b6000611960601683611bac565b91507f436f7572736520646f6573206e6f7420657869737421000000000000000000006000830152602082019050919050565b60006040830160008301516119ab60008601826119d0565b50602083015184820360208601526119c38282611861565b9150508091505092915050565b6119d981611bef565b82525050565b6119e881611bef565b82525050565b6000602082019050611a036000830184611852565b92915050565b600060a082019050611a1e6000830188611852565b611a2b6020830187611852565b8181036040830152611a3d818661189a565b9050611a4c60608301856119df565b8181036080830152611a5e818461189a565b90509695505050505050565b60006020820190508181036000830152611a83816118d3565b9050919050565b60006020820190508181036000830152611aa381611913565b9050919050565b60006020820190508181036000830152611ac381611953565b9050919050565b60006020820190508181036000830152611ae48184611993565b905092915050565b6000602082019050611b0160008301846119df565b92915050565b6000604082019050611b1c60008301856119df565b8181036020830152611b2e818461189a565b90509392505050565b6000604051905081810181811067ffffffffffffffff82111715611b5a57600080fd5b8060405250919050565b600067ffffffffffffffff821115611b7b57600080fd5b601f19601f8301169050602081019050919050565b600081519050919050565b600082825260208201905092915050565b600082825260208201905092915050565b6000611bc882611bcf565b9050919050565b600073ffffffffffffffffffffffffffffffffffffffff82169050919050565b6000819050919050565b82818337600083830152505050565b60005b83811015611c26578082015181840152602081019050611c0b565b83811115611c35576000848401525b50505050565b6000601f19601f8301169050919050565b611c5581611bbd565b8114611c6057600080fd5b50565b611c6c81611bef565b8114611c7757600080fd5b5056fea365627a7a72315820b836297dfb680bce0732a0eff33eb7ced041cda4964fc183379a196f9bf3c0d86c6578706572696d656e74616cf564736f6c63430005100040",
  "source": "pragma solidity 0.5.16;\npragma experimental ABIEncoderV2;\n\ncontract Certification {\n\n    struct Certifate {\n        address publisher;\n        address participant;\n        string title;\n        uint courseId;\n        string course;\n    }\n\n    struct Course {\n        uint id;\n        string title;\n    }\n\n    // map issuer address to Certifate to get own created Certifates\n    mapping(address => Certifate[]) public issuerCertificates;\n    // map participant to Certifate to get received Certifates\n    mapping(address => Certifate[]) public participantCertificates;\n\n    // map issuer address to Courses to get own created Courses\n    mapping(address => Course[]) public issuerCourses;\n    // map participant to Courses to get Courses where the user is a participant\n    mapping(address => Course[]) public participantCourses;\n    \n    // map Course ID to participant address for issuer to get all participants of a course\n    mapping(uint => address[]) public courseParticipants;\n\n    uint public courseCount;\n    address public contractAddress = msg.sender;\n\n    function addCertificate (address _participant, string memory _title, uint _courseId, string memory _courseTitle) public {\n        participantCertificates[_participant].push(\n            Certifate(msg.sender, _participant, _title, _courseId, _courseTitle)\n        );\n        issuerCertificates[msg.sender].push(\n            Certifate(msg.sender, _participant, _title, _courseId, _courseTitle)\n        );\n    }\n\n    function getIssuerCertificateCount (address _user) public view returns (uint count){\n        return issuerCertificates[_user].length;\n    }\n    \n    function getParticipantCertificateCount (address _user) public view returns (uint count){\n        return participantCertificates[_user].length;\n    }\n\n    function getIssuerCourseCount (address _issuer) public view returns (uint count){\n        return issuerCourses[_issuer].length;\n    }\n\n    function getIssuerCourseById(address _issuer, uint _courseId) public view returns (Course memory course) {\n        Course[] memory courses = issuerCourses[_issuer];\n        uint length = courses.length;\n        for (uint i = 0; i < length; i++) {\n            if (courses[i].id != _courseId) {\n                continue;\n            }\n            course = courses[i];\n            break;\n        }\n        return course;\n    }\n    \n    function getParticipantCourseCount(address _participant) public view returns (uint count) {\n        return participantCourses[_participant].length;\n    }\n\n    function getCourseParticipant(uint _courseId, uint _index) public view returns (address){\n        return courseParticipants[_courseId][_index];\n    }\n\n    function addCourse (string memory _title) public {\n        issuerCourses[msg.sender].push(\n            Course(courseCount, _title)\n        );\n        courseCount++;\n    }\n\n    function addParticipant(uint _courseId, address _participant) public {\n\n        require(issuerCourses[msg.sender].length > 0, \"No course found!\");\n        \n        // check if course exists\n        Course[] memory myCourses = issuerCourses[msg.sender];\n\n        uint length = myCourses.length;\n        bool exists = false;\n        Course memory course;\n        for (uint i = 0; i < length; i++) {\n            if (myCourses[i].id != _courseId) {\n                continue;\n            }\n            exists = true;\n            course = myCourses[i];\n            break;\n        }\n\n        require(exists, \"Course does not exist!\");\n        require(!participantExists(_courseId, _participant), \"Participant already in course!\");\n\n        courseParticipants[_courseId].push(_participant);\n        participantCourses[_participant].push(course);\n    }\n\n    function participantExists (uint _courseId, address _participant) private view returns (bool) {\n        address[] memory participants = courseParticipants[_courseId];\n        for (uint i; i < participants.length; i++) {\n            if (participants[i]==_participant) {\n                return true;\n            }\n        }\n        return false;\n    }\n\n\n    constructor() public {\n        addCourse(\"Web Engineering 1\"); // course id: 0\n        addCourse(\"Power Engineering 1\"); // course id: 1\n\n        address participantA = 0xdCad3a6d3569DF655070DEd06cb7A1b2Ccd1D3AF;\n        address participantB = 0xfC9a8E621F0D8821A770a5Cee4cEF8a90D387e8D;\n        \n        addParticipant(issuerCourses[msg.sender][0].id, participantA);\n        addParticipant(issuerCourses[msg.sender][0].id, participantB);\n        addParticipant(issuerCourses[msg.sender][1].id, participantB);\n\n        //issueCertificates(0, \"Web Engineer\");\n\n        // test adding of certificates\n        address receiver = 0x53bde67D3614B1f85eD12B77adA1c0Ca4e86b840;\n        addCertificate(receiver, \"Web Engineer\", issuerCourses[msg.sender][0].id, issuerCourses[msg.sender][0].title);\n        addCertificate(receiver, \"Power Engineer\", issuerCourses[msg.sender][1].id, issuerCourses[msg.sender][1].title);\n    }\n}",
  "sourcePath": "/Users/jacob/Desktop/Projects/Blockchain/BlockCertify/contracts/Certification.sol",
  "compiler": {
    "name": "solc",
    "version": "0.5.16+commit.9c3226ce.Emscripten.clang"
  },
  "schemaVersion": "3.3.1",
  "updatedAt": "2020-11-17T11:25:12.777Z",
  "networkType": "ethereum",
  "devdoc": {
    "methods": {}
  },
  "userdoc": {
    "methods": {}
  }
}