{
  "contractName": "Certification",
  "abi": [
    {
      "inputs": [],
      "payable": false,
      "stateMutability": "nonpayable",
      "type": "constructor"
    },
    {
      "constant": true,
      "inputs": [],
      "name": "contractAddress",
      "outputs": [
        {
          "internalType": "address",
          "name": "",
          "type": "address"
        }
      ],
      "payable": false,
      "stateMutability": "view",
      "type": "function"
    },
    {
      "constant": true,
      "inputs": [
        {
          "internalType": "uint256",
          "name": "",
          "type": "uint256"
        }
      ],
      "name": "courseCertificated",
      "outputs": [
        {
          "internalType": "bool",
          "name": "",
          "type": "bool"
        }
      ],
      "payable": false,
      "stateMutability": "view",
      "type": "function"
    },
    {
      "constant": true,
      "inputs": [],
      "name": "courseCount",
      "outputs": [
        {
          "internalType": "uint256",
          "name": "",
          "type": "uint256"
        }
      ],
      "payable": false,
      "stateMutability": "view",
      "type": "function"
    },
    {
      "constant": true,
      "inputs": [
        {
          "internalType": "uint256",
          "name": "",
          "type": "uint256"
        },
        {
          "internalType": "uint256",
          "name": "",
          "type": "uint256"
        }
      ],
      "name": "courseParticipants",
      "outputs": [
        {
          "internalType": "address",
          "name": "",
          "type": "address"
        }
      ],
      "payable": false,
      "stateMutability": "view",
      "type": "function"
    },
    {
      "constant": true,
      "inputs": [
        {
          "internalType": "address",
          "name": "",
          "type": "address"
        },
        {
          "internalType": "uint256",
          "name": "",
          "type": "uint256"
        }
      ],
      "name": "issuerCertificates",
      "outputs": [
        {
          "internalType": "address",
          "name": "publisher",
          "type": "address"
        },
        {
          "internalType": "address",
          "name": "participant",
          "type": "address"
        },
        {
          "internalType": "string",
          "name": "title",
          "type": "string"
        },
        {
          "internalType": "uint256",
          "name": "courseId",
          "type": "uint256"
        },
        {
          "internalType": "string",
          "name": "course",
          "type": "string"
        }
      ],
      "payable": false,
      "stateMutability": "view",
      "type": "function"
    },
    {
      "constant": true,
      "inputs": [
        {
          "internalType": "address",
          "name": "",
          "type": "address"
        },
        {
          "internalType": "uint256",
          "name": "",
          "type": "uint256"
        }
      ],
      "name": "issuerCourses",
      "outputs": [
        {
          "internalType": "uint256",
          "name": "id",
          "type": "uint256"
        },
        {
          "internalType": "string",
          "name": "title",
          "type": "string"
        },
        {
          "internalType": "address",
          "name": "issuer",
          "type": "address"
        }
      ],
      "payable": false,
      "stateMutability": "view",
      "type": "function"
    },
    {
      "constant": true,
      "inputs": [
        {
          "internalType": "address",
          "name": "",
          "type": "address"
        },
        {
          "internalType": "uint256",
          "name": "",
          "type": "uint256"
        }
      ],
      "name": "participantCertificates",
      "outputs": [
        {
          "internalType": "address",
          "name": "publisher",
          "type": "address"
        },
        {
          "internalType": "address",
          "name": "participant",
          "type": "address"
        },
        {
          "internalType": "string",
          "name": "title",
          "type": "string"
        },
        {
          "internalType": "uint256",
          "name": "courseId",
          "type": "uint256"
        },
        {
          "internalType": "string",
          "name": "course",
          "type": "string"
        }
      ],
      "payable": false,
      "stateMutability": "view",
      "type": "function"
    },
    {
      "constant": true,
      "inputs": [
        {
          "internalType": "address",
          "name": "",
          "type": "address"
        },
        {
          "internalType": "uint256",
          "name": "",
          "type": "uint256"
        }
      ],
      "name": "participantCourses",
      "outputs": [
        {
          "internalType": "uint256",
          "name": "id",
          "type": "uint256"
        },
        {
          "internalType": "string",
          "name": "title",
          "type": "string"
        },
        {
          "internalType": "address",
          "name": "issuer",
          "type": "address"
        }
      ],
      "payable": false,
      "stateMutability": "view",
      "type": "function"
    },
    {
      "constant": false,
      "inputs": [
        {
          "internalType": "string",
          "name": "_title",
          "type": "string"
        },
        {
          "internalType": "uint256",
          "name": "_courseId",
          "type": "uint256"
        },
        {
          "internalType": "string",
          "name": "_courseTitle",
          "type": "string"
        }
      ],
      "name": "addCourseCertificates",
      "outputs": [],
      "payable": false,
      "stateMutability": "nonpayable",
      "type": "function"
    },
    {
      "constant": true,
      "inputs": [
        {
          "internalType": "address",
          "name": "_user",
          "type": "address"
        }
      ],
      "name": "getIssuerCertificateCount",
      "outputs": [
        {
          "internalType": "uint256",
          "name": "count",
          "type": "uint256"
        }
      ],
      "payable": false,
      "stateMutability": "view",
      "type": "function"
    },
    {
      "constant": true,
      "inputs": [
        {
          "internalType": "address",
          "name": "_user",
          "type": "address"
        }
      ],
      "name": "getParticipantCertificateCount",
      "outputs": [
        {
          "internalType": "uint256",
          "name": "count",
          "type": "uint256"
        }
      ],
      "payable": false,
      "stateMutability": "view",
      "type": "function"
    },
    {
      "constant": true,
      "inputs": [
        {
          "internalType": "address",
          "name": "_issuer",
          "type": "address"
        }
      ],
      "name": "getIssuerCourseCount",
      "outputs": [
        {
          "internalType": "uint256",
          "name": "count",
          "type": "uint256"
        }
      ],
      "payable": false,
      "stateMutability": "view",
      "type": "function"
    },
    {
      "constant": true,
      "inputs": [
        {
          "internalType": "address",
          "name": "_participant",
          "type": "address"
        }
      ],
      "name": "getParticipantCourseCount",
      "outputs": [
        {
          "internalType": "uint256",
          "name": "count",
          "type": "uint256"
        }
      ],
      "payable": false,
      "stateMutability": "view",
      "type": "function"
    },
    {
      "constant": true,
      "inputs": [
        {
          "internalType": "uint256",
          "name": "_courseId",
          "type": "uint256"
        }
      ],
      "name": "getCourseParticipantCount",
      "outputs": [
        {
          "internalType": "uint256",
          "name": "count",
          "type": "uint256"
        }
      ],
      "payable": false,
      "stateMutability": "view",
      "type": "function"
    },
    {
      "constant": false,
      "inputs": [
        {
          "internalType": "string",
          "name": "_title",
          "type": "string"
        }
      ],
      "name": "addCourse",
      "outputs": [],
      "payable": false,
      "stateMutability": "nonpayable",
      "type": "function"
    },
    {
      "constant": false,
      "inputs": [
        {
          "internalType": "uint256",
          "name": "_courseId",
          "type": "uint256"
        },
        {
          "internalType": "address",
          "name": "_participant",
          "type": "address"
        }
      ],
      "name": "addParticipant",
      "outputs": [],
      "payable": false,
      "stateMutability": "nonpayable",
      "type": "function"
    }
  ],
  "bytecode": "0x608060405233600760006101000a81548173ffffffffffffffffffffffffffffffffffffffff021916908373ffffffffffffffffffffffffffffffffffffffff1602179055503480156200005257600080fd5b50620000996040518060400160405280601181526020017f57656220456e67696e656572696e6720310000000000000000000000000000008152506200028060201b60201c565b620000df6040518060400160405280601381526020017f506f77657220456e67696e656572696e672031000000000000000000000000008152506200028060201b60201c565b600073dcad3a6d3569df655070ded06cb7a1b2ccd1d3af9050600073fc9a8e621f0d8821a770a5cee4cef8a90d387e8d905062000180600260003373ffffffffffffffffffffffffffffffffffffffff1673ffffffffffffffffffffffffffffffffffffffff1681526020019081526020016000206000815481106200016157fe5b90600052602060002090600302016000015483620003a560201b60201c565b620001ef600260003373ffffffffffffffffffffffffffffffffffffffff1673ffffffffffffffffffffffffffffffffffffffff168152602001908152602001600020600081548110620001d057fe5b90600052602060002090600302016000015482620003a560201b60201c565b6200025e600260003373ffffffffffffffffffffffffffffffffffffffff1673ffffffffffffffffffffffffffffffffffffffff1681526020019081526020016000206001815481106200023f57fe5b90600052602060002090600302016000015482620003a560201b60201c565b60007353bde67d3614b1f85ed12b77ada1c0ca4e86b840905050505062000ad3565b600260003373ffffffffffffffffffffffffffffffffffffffff1673ffffffffffffffffffffffffffffffffffffffff168152602001908152602001600020604051806060016040528060065481526020018381526020013373ffffffffffffffffffffffffffffffffffffffff168152509080600181540180825580915050906001820390600052602060002090600302016000909192909190915060008201518160000155602082015181600101908051906020019062000345929190620009ed565b5060408201518160020160006101000a81548173ffffffffffffffffffffffffffffffffffffffff021916908373ffffffffffffffffffffffffffffffffffffffff16021790555050505060066000815480929190600101919050555050565b6000600260003373ffffffffffffffffffffffffffffffffffffffff1673ffffffffffffffffffffffffffffffffffffffff16815260200190815260200160002080549050116200045e576040517f08c379a00000000000000000000000000000000000000000000000000000000081526004018080602001828103825260108152602001807f4e6f20636f7572736520666f756e64210000000000000000000000000000000081525060200191505060405180910390fd5b6060600260003373ffffffffffffffffffffffffffffffffffffffff1673ffffffffffffffffffffffffffffffffffffffff168152602001908152602001600020805480602002602001604051908101604052809291908181526020016000905b82821015620005f9578382906000526020600020906003020160405180606001604052908160008201548152602001600182018054600181600116156101000203166002900480601f0160208091040260200160405190810160405280929190818152602001828054600181600116156101000203166002900480156200058a5780601f106200055e576101008083540402835291602001916200058a565b820191906000526020600020905b8154815290600101906020018083116200056c57829003601f168201915b505050505081526020016002820160009054906101000a900473ffffffffffffffffffffffffffffffffffffffff1673ffffffffffffffffffffffffffffffffffffffff1673ffffffffffffffffffffffffffffffffffffffff168152505081526020019060010190620004bf565b50505050905060008151905060008090506200061462000a74565b60008090505b838110156200067857868582815181106200063157fe5b6020026020010151600001511462000649576200066a565b600192508481815181106200065a57fe5b6020026020010151915062000678565b80806001019150506200061a565b5081620006ed576040517f08c379a00000000000000000000000000000000000000000000000000000000081526004018080602001828103825260168152602001807f436f7572736520646f6573206e6f74206578697374210000000000000000000081525060200191505060405180910390fd5b620006ff8686620008d060201b60201c565b1562000773576040517f08c379a000000000000000000000000000000000000000000000000000000000815260040180806020018281038252601e8152602001807f5061727469636970616e7420616c726561647920696e20636f7572736521000081525060200191505060405180910390fd5b600460008781526020019081526020016000208590806001815401808255809150509060018203906000526020600020016000909192909190916101000a81548173ffffffffffffffffffffffffffffffffffffffff021916908373ffffffffffffffffffffffffffffffffffffffff16021790555050600360008673ffffffffffffffffffffffffffffffffffffffff1673ffffffffffffffffffffffffffffffffffffffff16815260200190815260200160002081908060018154018082558091505090600182039060005260206000209060030201600090919290919091506000820151816000015560208201518160010190805190602001906200087d929190620009ed565b5060408201518160020160006101000a81548173ffffffffffffffffffffffffffffffffffffffff021916908373ffffffffffffffffffffffffffffffffffffffff160217905550505050505050505050565b60006060600460008581526020019081526020016000208054806020026020016040519081016040528092919081815260200182805480156200096957602002820191906000526020600020905b8160009054906101000a900473ffffffffffffffffffffffffffffffffffffffff1673ffffffffffffffffffffffffffffffffffffffff16815260200190600101908083116200091e575b5050505050905060005b8151811015620009e0578373ffffffffffffffffffffffffffffffffffffffff16828281518110620009a157fe5b602002602001015173ffffffffffffffffffffffffffffffffffffffff161415620009d257600192505050620009e7565b808060010191505062000973565b5060009150505b92915050565b828054600181600116156101000203166002900490600052602060002090601f016020900481019282601f1062000a3057805160ff191683800117855562000a61565b8280016001018555821562000a61579182015b8281111562000a6057825182559160200191906001019062000a43565b5b50905062000a70919062000aab565b5090565b60405180606001604052806000815260200160608152602001600073ffffffffffffffffffffffffffffffffffffffff1681525090565b62000ad091905b8082111562000acc57600081600090555060010162000ab2565b5090565b90565b611fe68062000ae36000396000f3fe608060405234801561001057600080fd5b50600436106101005760003560e01c80638f00931011610097578063d167aa4211610066578063d167aa4214610a4a578063e019600814610a90578063f6b4dfb414610ad2578063f850692f14610b1c57610100565b80638f00931014610650578063947ff32414610751578063b0362993146108f1578063b959097a146109f257610100565b806339fd6089116100d357806339fd608914610406578063401bcb0a1461047e5780635bbc1c43146104d6578063660551591461063257610100565b806318d85e53146101055780632dcfa82a146101535780632e554076146101ab578063355a816514610266575b600080fd5b6101516004803603604081101561011b57600080fd5b8101908080359060200190929190803573ffffffffffffffffffffffffffffffffffffffff169060200190929190505050610b74565b005b6101956004803603602081101561016957600080fd5b81019080803573ffffffffffffffffffffffffffffffffffffffff169060200190929190505050611083565b6040518082815260200191505060405180910390f35b610264600480360360208110156101c157600080fd5b81019080803590602001906401000000008111156101de57600080fd5b8201836020820111156101f057600080fd5b8035906020019184600183028401116401000000008311171561021257600080fd5b91908080601f016020809104026020016040519081016040528093929190818152602001838380828437600081840152601f19601f8201169050808301925050505050505091929192905050506110cf565b005b6102b26004803603604081101561027c57600080fd5b81019080803573ffffffffffffffffffffffffffffffffffffffff169060200190929190803590602001909291905050506111f2565b604051808673ffffffffffffffffffffffffffffffffffffffff1673ffffffffffffffffffffffffffffffffffffffff1681526020018573ffffffffffffffffffffffffffffffffffffffff1673ffffffffffffffffffffffffffffffffffffffff1681526020018060200184815260200180602001838103835286818151815260200191508051906020019080838360005b83811015610360578082015181840152602081019050610345565b50505050905090810190601f16801561038d5780820380516001836020036101000a031916815260200191505b50838103825284818151815260200191508051906020019080838360005b838110156103c65780820151818401526020810190506103ab565b50505050905090810190601f1680156103f35780820380516001836020036101000a031916815260200191505b5097505050505050505060405180910390f35b61043c6004803603604081101561041c57600080fd5b8101908080359060200190929190803590602001909291905050506113b2565b604051808273ffffffffffffffffffffffffffffffffffffffff1673ffffffffffffffffffffffffffffffffffffffff16815260200191505060405180910390f35b6104c06004803603602081101561049457600080fd5b81019080803573ffffffffffffffffffffffffffffffffffffffff1690602001909291905050506113fd565b6040518082815260200191505060405180910390f35b610630600480360360608110156104ec57600080fd5b810190808035906020019064010000000081111561050957600080fd5b82018360208201111561051b57600080fd5b8035906020019184600183028401116401000000008311171561053d57600080fd5b91908080601f016020809104026020016040519081016040528093929190818152602001838380828437600081840152601f19601f82011690508083019250505050505050919291929080359060200190929190803590602001906401000000008111156105aa57600080fd5b8201836020820111156105bc57600080fd5b803590602001918460018302840111640100000000831117156105de57600080fd5b91908080601f016020809104026020016040519081016040528093929190818152602001838380828437600081840152601f19601f820116905080830192505050505050509192919290505050611448565b005b61063a611903565b6040518082815260200191505060405180910390f35b61069c6004803603604081101561066657600080fd5b81019080803573ffffffffffffffffffffffffffffffffffffffff16906020019092919080359060200190929190505050611909565b60405180848152602001806020018373ffffffffffffffffffffffffffffffffffffffff1673ffffffffffffffffffffffffffffffffffffffff168152602001828103825284818151815260200191508051906020019080838360005b838110156107145780820151818401526020810190506106f9565b50505050905090810190601f1680156107415780820380516001836020036101000a031916815260200191505b5094505050505060405180910390f35b61079d6004803603604081101561076757600080fd5b81019080803573ffffffffffffffffffffffffffffffffffffffff16906020019092919080359060200190929190505050611a05565b604051808673ffffffffffffffffffffffffffffffffffffffff1673ffffffffffffffffffffffffffffffffffffffff1681526020018573ffffffffffffffffffffffffffffffffffffffff1673ffffffffffffffffffffffffffffffffffffffff1681526020018060200184815260200180602001838103835286818151815260200191508051906020019080838360005b8381101561084b578082015181840152602081019050610830565b50505050905090810190601f1680156108785780820380516001836020036101000a031916815260200191505b50838103825284818151815260200191508051906020019080838360005b838110156108b1578082015181840152602081019050610896565b50505050905090810190601f1680156108de5780820380516001836020036101000a031916815260200191505b5097505050505050505060405180910390f35b61093d6004803603604081101561090757600080fd5b81019080803573ffffffffffffffffffffffffffffffffffffffff16906020019092919080359060200190929190505050611bc5565b60405180848152602001806020018373ffffffffffffffffffffffffffffffffffffffff1673ffffffffffffffffffffffffffffffffffffffff168152602001828103825284818151815260200191508051906020019080838360005b838110156109b557808201518184015260208101905061099a565b50505050905090810190601f1680156109e25780820380516001836020036101000a031916815260200191505b5094505050505060405180910390f35b610a3460048036036020811015610a0857600080fd5b81019080803573ffffffffffffffffffffffffffffffffffffffff169060200190929190505050611cc1565b6040518082815260200191505060405180910390f35b610a7660048036036020811015610a6057600080fd5b8101908080359060200190929190505050611d0d565b604051808215151515815260200191505060405180910390f35b610abc60048036036020811015610aa657600080fd5b8101908080359060200190929190505050611d2d565b6040518082815260200191505060405180910390f35b610ada611d4d565b604051808273ffffffffffffffffffffffffffffffffffffffff1673ffffffffffffffffffffffffffffffffffffffff16815260200191505060405180910390f35b610b5e60048036036020811015610b3257600080fd5b81019080803573ffffffffffffffffffffffffffffffffffffffff169060200190929190505050611d73565b6040518082815260200191505060405180910390f35b6000600260003373ffffffffffffffffffffffffffffffffffffffff1673ffffffffffffffffffffffffffffffffffffffff1681526020019081526020016000208054905011610c2c576040517f08c379a00000000000000000000000000000000000000000000000000000000081526004018080602001828103825260108152602001807f4e6f20636f7572736520666f756e64210000000000000000000000000000000081525060200191505060405180910390fd5b6060600260003373ffffffffffffffffffffffffffffffffffffffff1673ffffffffffffffffffffffffffffffffffffffff168152602001908152602001600020805480602002602001604051908101604052809291908181526020016000905b82821015610dc1578382906000526020600020906003020160405180606001604052908160008201548152602001600182018054600181600116156101000203166002900480601f016020809104026020016040519081016040528092919081815260200182805460018160011615610100020316600290048015610d535780601f10610d2857610100808354040283529160200191610d53565b820191906000526020600020905b815481529060010190602001808311610d3657829003601f168201915b505050505081526020016002820160009054906101000a900473ffffffffffffffffffffffffffffffffffffffff1673ffffffffffffffffffffffffffffffffffffffff1673ffffffffffffffffffffffffffffffffffffffff168152505081526020019060010190610c8d565b5050505090506000815190506000809050610dda611ed5565b60008090505b83811015610e375786858281518110610df557fe5b60200260200101516000015114610e0b57610e2a565b60019250848181518110610e1b57fe5b60200260200101519150610e37565b8080600101915050610de0565b5081610eab576040517f08c379a00000000000000000000000000000000000000000000000000000000081526004018080602001828103825260168152602001807f436f7572736520646f6573206e6f74206578697374210000000000000000000081525060200191505060405180910390fd5b610eb58686611dbf565b15610f28576040517f08c379a000000000000000000000000000000000000000000000000000000000815260040180806020018281038252601e8152602001807f5061727469636970616e7420616c726561647920696e20636f7572736521000081525060200191505060405180910390fd5b600460008781526020019081526020016000208590806001815401808255809150509060018203906000526020600020016000909192909190916101000a81548173ffffffffffffffffffffffffffffffffffffffff021916908373ffffffffffffffffffffffffffffffffffffffff16021790555050600360008673ffffffffffffffffffffffffffffffffffffffff1673ffffffffffffffffffffffffffffffffffffffff1681526020019081526020016000208190806001815401808255809150509060018203906000526020600020906003020160009091929091909150600082015181600001556020820151816001019080519060200190611030929190611f0c565b5060408201518160020160006101000a81548173ffffffffffffffffffffffffffffffffffffffff021916908373ffffffffffffffffffffffffffffffffffffffff160217905550505050505050505050565b6000600360008373ffffffffffffffffffffffffffffffffffffffff1673ffffffffffffffffffffffffffffffffffffffff168152602001908152602001600020805490509050919050565b600260003373ffffffffffffffffffffffffffffffffffffffff1673ffffffffffffffffffffffffffffffffffffffff168152602001908152602001600020604051806060016040528060065481526020018381526020013373ffffffffffffffffffffffffffffffffffffffff1681525090806001815401808255809150509060018203906000526020600020906003020160009091929091909150600082015181600001556020820151816001019080519060200190611192929190611f0c565b5060408201518160020160006101000a81548173ffffffffffffffffffffffffffffffffffffffff021916908373ffffffffffffffffffffffffffffffffffffffff16021790555050505060066000815480929190600101919050555050565b6001602052816000526040600020818154811061120b57fe5b9060005260206000209060050201600091509150508060000160009054906101000a900473ffffffffffffffffffffffffffffffffffffffff16908060010160009054906101000a900473ffffffffffffffffffffffffffffffffffffffff1690806002018054600181600116156101000203166002900480601f0160208091040260200160405190810160405280929190818152602001828054600181600116156101000203166002900480156113045780601f106112d957610100808354040283529160200191611304565b820191906000526020600020905b8154815290600101906020018083116112e757829003601f168201915b505050505090806003015490806004018054600181600116156101000203166002900480601f0160208091040260200160405190810160405280929190818152602001828054600181600116156101000203166002900480156113a85780601f1061137d576101008083540402835291602001916113a8565b820191906000526020600020905b81548152906001019060200180831161138b57829003601f168201915b5050505050905085565b600460205281600052604060002081815481106113cb57fe5b906000526020600020016000915091509054906101000a900473ffffffffffffffffffffffffffffffffffffffff1681565b60008060008373ffffffffffffffffffffffffffffffffffffffff1673ffffffffffffffffffffffffffffffffffffffff168152602001908152602001600020805490509050919050565b6005600083815260200190815260200160002060009054906101000a900460ff16156114dc576040517f08c379a00000000000000000000000000000000000000000000000000000000081526004018080602001828103825260198152602001807f436f7572736520616c726561647920636572746966696564210000000000000081525060200191505060405180910390fd5b60606004600084815260200190815260200160002080548060200260200160405190810160405280929190818152602001828054801561157157602002820191906000526020600020905b8160009054906101000a900473ffffffffffffffffffffffffffffffffffffffff1673ffffffffffffffffffffffffffffffffffffffff1681526020019060010190808311611527575b5050505050905060008090505b81518110156118d057600082828151811061159557fe5b60200260200101519050600160008273ffffffffffffffffffffffffffffffffffffffff1673ffffffffffffffffffffffffffffffffffffffff1681526020019081526020016000206040518060a001604052803373ffffffffffffffffffffffffffffffffffffffff1681526020018373ffffffffffffffffffffffffffffffffffffffff168152602001888152602001878152602001868152509080600181540180825580915050906001820390600052602060002090600502016000909192909190915060008201518160000160006101000a81548173ffffffffffffffffffffffffffffffffffffffff021916908373ffffffffffffffffffffffffffffffffffffffff16021790555060208201518160010160006101000a81548173ffffffffffffffffffffffffffffffffffffffff021916908373ffffffffffffffffffffffffffffffffffffffff1602179055506040820151816002019080519060200190611706929190611f0c565b5060608201518160030155608082015181600401908051906020019061172d929190611f0c565b505050506000803373ffffffffffffffffffffffffffffffffffffffff1673ffffffffffffffffffffffffffffffffffffffff1681526020019081526020016000206040518060a001604052803373ffffffffffffffffffffffffffffffffffffffff1681526020018373ffffffffffffffffffffffffffffffffffffffff168152602001888152602001878152602001868152509080600181540180825580915050906001820390600052602060002090600502016000909192909190915060008201518160000160006101000a81548173ffffffffffffffffffffffffffffffffffffffff021916908373ffffffffffffffffffffffffffffffffffffffff16021790555060208201518160010160006101000a81548173ffffffffffffffffffffffffffffffffffffffff021916908373ffffffffffffffffffffffffffffffffffffffff1602179055506040820151816002019080519060200190611897929190611f0c565b506060820151816003015560808201518160040190805190602001906118be929190611f0c565b5050505050808060010191505061157e565b5060016005600085815260200190815260200160002060006101000a81548160ff02191690831515021790555050505050565b60065481565b6003602052816000526040600020818154811061192257fe5b906000526020600020906003020160009150915050806000015490806001018054600181600116156101000203166002900480601f0160208091040260200160405190810160405280929190818152602001828054600181600116156101000203166002900480156119d55780601f106119aa576101008083540402835291602001916119d5565b820191906000526020600020905b8154815290600101906020018083116119b857829003601f168201915b5050505050908060020160009054906101000a900473ffffffffffffffffffffffffffffffffffffffff16905083565b60006020528160005260406000208181548110611a1e57fe5b9060005260206000209060050201600091509150508060000160009054906101000a900473ffffffffffffffffffffffffffffffffffffffff16908060010160009054906101000a900473ffffffffffffffffffffffffffffffffffffffff1690806002018054600181600116156101000203166002900480601f016020809104026020016040519081016040528092919081815260200182805460018160011615610100020316600290048015611b175780601f10611aec57610100808354040283529160200191611b17565b820191906000526020600020905b815481529060010190602001808311611afa57829003601f168201915b505050505090806003015490806004018054600181600116156101000203166002900480601f016020809104026020016040519081016040528092919081815260200182805460018160011615610100020316600290048015611bbb5780601f10611b9057610100808354040283529160200191611bbb565b820191906000526020600020905b815481529060010190602001808311611b9e57829003601f168201915b5050505050905085565b60026020528160005260406000208181548110611bde57fe5b906000526020600020906003020160009150915050806000015490806001018054600181600116156101000203166002900480601f016020809104026020016040519081016040528092919081815260200182805460018160011615610100020316600290048015611c915780601f10611c6657610100808354040283529160200191611c91565b820191906000526020600020905b815481529060010190602001808311611c7457829003601f168201915b5050505050908060020160009054906101000a900473ffffffffffffffffffffffffffffffffffffffff16905083565b6000600260008373ffffffffffffffffffffffffffffffffffffffff1673ffffffffffffffffffffffffffffffffffffffff168152602001908152602001600020805490509050919050565b60056020528060005260406000206000915054906101000a900460ff1681565b600060046000838152602001908152602001600020805490509050919050565b600760009054906101000a900473ffffffffffffffffffffffffffffffffffffffff1681565b6000600160008373ffffffffffffffffffffffffffffffffffffffff1673ffffffffffffffffffffffffffffffffffffffff168152602001908152602001600020805490509050919050565b6000606060046000858152602001908152602001600020805480602002602001604051908101604052809291908181526020018280548015611e5657602002820191906000526020600020905b8160009054906101000a900473ffffffffffffffffffffffffffffffffffffffff1673ffffffffffffffffffffffffffffffffffffffff1681526020019060010190808311611e0c575b5050505050905060005b8151811015611ec8578373ffffffffffffffffffffffffffffffffffffffff16828281518110611e8c57fe5b602002602001015173ffffffffffffffffffffffffffffffffffffffff161415611ebb57600192505050611ecf565b8080600101915050611e60565b5060009150505b92915050565b60405180606001604052806000815260200160608152602001600073ffffffffffffffffffffffffffffffffffffffff1681525090565b828054600181600116156101000203166002900490600052602060002090601f016020900481019282601f10611f4d57805160ff1916838001178555611f7b565b82800160010185558215611f7b579182015b82811115611f7a578251825591602001919060010190611f5f565b5b509050611f889190611f8c565b5090565b611fae91905b80821115611faa576000816000905550600101611f92565b5090565b9056fea265627a7a723158205e5839305710476bdf32dccc7b9488b5fe673c25b1d5b811f10af82debc1c26d64736f6c63430005100032",
  "source": "pragma solidity 0.5.16;\n\ncontract Certification {\n\n    struct Certifate {\n        address publisher;\n        address participant;\n        string title;\n        uint courseId;\n        string course;\n    }\n\n    struct Course {\n        uint id;\n        string title;\n        address issuer;\n    }\n\n    // map issuer address to Certifate to get own created Certifates\n    mapping(address => Certifate[]) public issuerCertificates;\n    // map participant to Certifate to get received Certifates\n    mapping(address => Certifate[]) public participantCertificates;\n\n    // map issuer address to Courses to get own created Courses\n    mapping(address => Course[]) public issuerCourses;\n    // map participant to Courses to get Courses where the user is a participant\n    mapping(address => Course[]) public participantCourses;\n    \n    // map Course ID to participant address for issuer to get all participants of a course\n    mapping(uint => address[]) public courseParticipants;\n\n    mapping(uint => bool) public courseCertificated;\n\n    uint public courseCount;\n    address public contractAddress = msg.sender;\n\n    function addCourseCertificates(string memory _title, uint _courseId, string memory _courseTitle) public {\n        require(!courseCertificated[_courseId], \"Course already certified!\");\n\n        address[] memory participants = courseParticipants[_courseId];\n        \n        for (uint i = 0; i < participants.length; i++) {\n            address participant = participants[i];\n            \n            participantCertificates[participant].push(\n                Certifate(msg.sender, participant, _title, _courseId, _courseTitle)\n            );\n\n            issuerCertificates[msg.sender].push(\n                Certifate(msg.sender, participant, _title, _courseId, _courseTitle)\n            );\n        }\n\n        courseCertificated[_courseId] = true;\n    }\n\n    function getIssuerCertificateCount (address _user) public view returns (uint count){\n        return issuerCertificates[_user].length;\n    }\n    \n    function getParticipantCertificateCount (address _user) public view returns (uint count){\n        return participantCertificates[_user].length;\n    }\n\n    function getIssuerCourseCount (address _issuer) public view returns (uint count){\n        return issuerCourses[_issuer].length;\n    }\n\n    function getParticipantCourseCount(address _participant) public view returns (uint count) {\n        return participantCourses[_participant].length;\n    }\n\n    function getCourseParticipantCount(uint _courseId) public view returns (uint count){\n        return courseParticipants[_courseId].length;\n    }\n\n    function addCourse (string memory _title) public {\n        issuerCourses[msg.sender].push(\n            Course(courseCount, _title, msg.sender)\n        );\n        courseCount++;\n    }\n\n    function addParticipant(uint _courseId, address _participant) public {\n\n        require(issuerCourses[msg.sender].length > 0, \"No course found!\");\n        \n        // check if course exists\n        Course[] memory myCourses = issuerCourses[msg.sender];\n\n        uint length = myCourses.length;\n        bool exists = false;\n        Course memory course;\n        for (uint i = 0; i < length; i++) {\n            if (myCourses[i].id != _courseId) {\n                continue;\n            }\n            exists = true;\n            course = myCourses[i];\n            break;\n        }\n\n        require(exists, \"Course does not exist!\");\n        require(!participantExists(_courseId, _participant), \"Participant already in course!\");\n\n        courseParticipants[_courseId].push(_participant);\n        participantCourses[_participant].push(course);\n    }\n\n    function participantExists (uint _courseId, address _participant) private view returns (bool) {\n        address[] memory participants = courseParticipants[_courseId];\n        for (uint i; i < participants.length; i++) {\n            if (participants[i]==_participant) {\n                return true;\n            }\n        }\n        return false;\n    }\n\n\n    constructor() public {\n        addCourse(\"Web Engineering 1\"); // course id: 0\n        addCourse(\"Power Engineering 1\"); // course id: 1\n\n        address participantA = 0xdCad3a6d3569DF655070DEd06cb7A1b2Ccd1D3AF;\n        address participantB = 0xfC9a8E621F0D8821A770a5Cee4cEF8a90D387e8D;\n        \n        addParticipant(issuerCourses[msg.sender][0].id, participantA);\n        addParticipant(issuerCourses[msg.sender][0].id, participantB);\n        addParticipant(issuerCourses[msg.sender][1].id, participantB);\n\n        //issueCertificates(0, \"Web Engineer\");\n\n        // test adding of certificates\n        address receiver = 0x53bde67D3614B1f85eD12B77adA1c0Ca4e86b840;\n    }\n}",
  "sourcePath": "/Users/jacob/Desktop/Projects/Blockchain/BlockCertify/contracts/Certification.sol",
  "compiler": {
    "name": "solc",
    "version": "0.5.16+commit.9c3226ce.Emscripten.clang"
  },
  "schemaVersion": "3.3.1",
  "updatedAt": "2020-11-19T12:08:54.163Z",
  "networkType": "ethereum",
  "devdoc": {
    "methods": {}
  },
  "userdoc": {
    "methods": {}
  }
}