{
  "contractName": "Certification",
  "abi": [
    {
      "inputs": [],
      "payable": false,
      "stateMutability": "nonpayable",
      "type": "constructor"
    },
    {
      "constant": true,
      "inputs": [],
      "name": "certificateCount",
      "outputs": [
        {
          "internalType": "uint256",
          "name": "",
          "type": "uint256"
        }
      ],
      "payable": false,
      "stateMutability": "view",
      "type": "function"
    },
    {
      "constant": true,
      "inputs": [
        {
          "internalType": "uint256",
          "name": "",
          "type": "uint256"
        }
      ],
      "name": "certificates",
      "outputs": [
        {
          "internalType": "uint256",
          "name": "courseId",
          "type": "uint256"
        },
        {
          "internalType": "address",
          "name": "publisher",
          "type": "address"
        },
        {
          "internalType": "address",
          "name": "participant",
          "type": "address"
        },
        {
          "internalType": "string",
          "name": "title",
          "type": "string"
        },
        {
          "internalType": "string",
          "name": "course",
          "type": "string"
        }
      ],
      "payable": false,
      "stateMutability": "view",
      "type": "function"
    },
    {
      "constant": true,
      "inputs": [],
      "name": "courseCount",
      "outputs": [
        {
          "internalType": "uint256",
          "name": "",
          "type": "uint256"
        }
      ],
      "payable": false,
      "stateMutability": "view",
      "type": "function"
    },
    {
      "constant": true,
      "inputs": [
        {
          "internalType": "uint256",
          "name": "",
          "type": "uint256"
        },
        {
          "internalType": "uint256",
          "name": "",
          "type": "uint256"
        }
      ],
      "name": "courseParticipants",
      "outputs": [
        {
          "internalType": "address",
          "name": "",
          "type": "address"
        }
      ],
      "payable": false,
      "stateMutability": "view",
      "type": "function"
    },
    {
      "constant": true,
      "inputs": [
        {
          "internalType": "address",
          "name": "",
          "type": "address"
        },
        {
          "internalType": "uint256",
          "name": "",
          "type": "uint256"
        }
      ],
      "name": "courses",
      "outputs": [
        {
          "internalType": "uint256",
          "name": "id",
          "type": "uint256"
        },
        {
          "internalType": "string",
          "name": "title",
          "type": "string"
        }
      ],
      "payable": false,
      "stateMutability": "view",
      "type": "function"
    },
    {
      "constant": false,
      "inputs": [
        {
          "internalType": "address",
          "name": "_collector",
          "type": "address"
        },
        {
          "internalType": "string",
          "name": "_title",
          "type": "string"
        },
        {
          "internalType": "string",
          "name": "_course",
          "type": "string"
        }
      ],
      "name": "addCertificate",
      "outputs": [],
      "payable": false,
      "stateMutability": "nonpayable",
      "type": "function"
    },
    {
      "constant": false,
      "inputs": [
        {
          "internalType": "string",
          "name": "_title",
          "type": "string"
        }
      ],
      "name": "addCourse",
      "outputs": [],
      "payable": false,
      "stateMutability": "nonpayable",
      "type": "function"
    },
    {
      "constant": false,
      "inputs": [
        {
          "internalType": "uint256",
          "name": "_courseId",
          "type": "uint256"
        },
        {
          "internalType": "address",
          "name": "_participant",
          "type": "address"
        }
      ],
      "name": "addParticipant",
      "outputs": [],
      "payable": false,
      "stateMutability": "nonpayable",
      "type": "function"
    }
  ],
  "bytecode": "0x60806040523480156200001157600080fd5b50620000586040518060400160405280601181526020017f57656220456e67696e656572696e6720310000000000000000000000000000008152506200037460201b60201c565b6200009e6040518060400160405280601381526020017f506f77657220456e67696e656572696e672031000000000000000000000000008152506200037460201b60201c565b600073dcad3a6d3569df655070ded06cb7a1b2ccd1d3af9050600073fc9a8e621f0d8821a770a5cee4cef8a90d387e8d9050600073dcad3a6d3569df655070ded06cb7a1b2ccd1d3af90506200022a816040518060400160405280600c81526020017f57656220456e67696e6565720000000000000000000000000000000000000000815250600160003373ffffffffffffffffffffffffffffffffffffffff1673ffffffffffffffffffffffffffffffffffffffff1681526020019081526020016000206000815481106200017057fe5b90600052602060002090600202016001018054600181600116156101000203166002900480601f016020809104026020016040519081016040528092919081815260200182805460018160011615610100020316600290048015620002195780601f10620001ed5761010080835404028352916020019162000219565b820191906000526020600020905b815481529060010190602001808311620001fb57829003601f168201915b50505050506200043660201b60201c565b6200036b816040518060400160405280600e81526020017f506f77657220456e67696e656572000000000000000000000000000000000000815250600160003373ffffffffffffffffffffffffffffffffffffffff1673ffffffffffffffffffffffffffffffffffffffff168152602001908152602001600020600181548110620002b157fe5b90600052602060002090600202016001018054600181600116156101000203166002900480601f0160208091040260200160405190810160405280929190818152602001828054600181600116156101000203166002900480156200035a5780601f106200032e576101008083540402835291602001916200035a565b820191906000526020600020905b8154815290600101906020018083116200033c57829003601f168201915b50505050506200043660201b60201c565b5050506200063e565b600460008154809291906001019190505550600160003373ffffffffffffffffffffffffffffffffffffffff1673ffffffffffffffffffffffffffffffffffffffff1681526020019081526020016000206040518060400160405280600454815260200183815250908060018154018082558091505090600182039060005260206000209060020201600090919290919091506000820151816000015560208201518160010190805190602001906200042f9291906200058f565b5050505050565b6003600081548092919060010191905055506040518060a0016040528060035481526020013373ffffffffffffffffffffffffffffffffffffffff1681526020018473ffffffffffffffffffffffffffffffffffffffff1681526020018381526020018281525060008060035481526020019081526020016000206000820151816000015560208201518160010160006101000a81548173ffffffffffffffffffffffffffffffffffffffff021916908373ffffffffffffffffffffffffffffffffffffffff16021790555060408201518160020160006101000a81548173ffffffffffffffffffffffffffffffffffffffff021916908373ffffffffffffffffffffffffffffffffffffffff1602179055506060820151816003019080519060200190620005679291906200058f565b506080820151816004019080519060200190620005869291906200058f565b50905050505050565b828054600181600116156101000203166002900490600052602060002090601f016020900481019282601f10620005d257805160ff191683800117855562000603565b8280016001018555821562000603579182015b8281111562000602578251825591602001919060010190620005e5565b5b50905062000612919062000616565b5090565b6200063b91905b80821115620006375760008160009055506001016200061d565b5090565b90565b61109b806200064e6000396000f3fe608060405234801561001057600080fd5b50600436106100885760003560e01c8063660551591161005b578063660551591461022c578063663b3e221461024a578063c1e478cb146103ca578063ffecb92f1461049857610088565b806318d85e531461008d5780632e554076146100db57806339fd60891461019657806352d7b89c1461020e575b600080fd5b6100d9600480360360408110156100a357600080fd5b8101908080359060200190929190803573ffffffffffffffffffffffffffffffffffffffff16906020019092919050505061060a565b005b610194600480360360208110156100f157600080fd5b810190808035906020019064010000000081111561010e57600080fd5b82018360208201111561012057600080fd5b8035906020019184600183028401116401000000008311171561014257600080fd5b91908080601f016020809104026020016040519081016040528093929190818152602001838380828437600081840152601f19601f8201169050808301925050505050505091929192905050506109c7565b005b6101cc600480360360408110156101ac57600080fd5b810190808035906020019092919080359060200190929190505050610a87565b604051808273ffffffffffffffffffffffffffffffffffffffff1673ffffffffffffffffffffffffffffffffffffffff16815260200191505060405180910390f35b610216610ad2565b6040518082815260200191505060405180910390f35b610234610ad8565b6040518082815260200191505060405180910390f35b6102766004803603602081101561026057600080fd5b8101908080359060200190929190505050610ade565b604051808681526020018573ffffffffffffffffffffffffffffffffffffffff1673ffffffffffffffffffffffffffffffffffffffff1681526020018473ffffffffffffffffffffffffffffffffffffffff1673ffffffffffffffffffffffffffffffffffffffff1681526020018060200180602001838103835285818151815260200191508051906020019080838360005b83811015610324578082015181840152602081019050610309565b50505050905090810190601f1680156103515780820380516001836020036101000a031916815260200191505b50838103825284818151815260200191508051906020019080838360005b8381101561038a57808201518184015260208101905061036f565b50505050905090810190601f1680156103b75780820380516001836020036101000a031916815260200191505b5097505050505050505060405180910390f35b610416600480360360408110156103e057600080fd5b81019080803573ffffffffffffffffffffffffffffffffffffffff16906020019092919080359060200190929190505050610c84565b6040518083815260200180602001828103825283818151815260200191508051906020019080838360005b8381101561045c578082015181840152602081019050610441565b50505050905090810190601f1680156104895780820380516001836020036101000a031916815260200191505b50935050505060405180910390f35b610608600480360360608110156104ae57600080fd5b81019080803573ffffffffffffffffffffffffffffffffffffffff169060200190929190803590602001906401000000008111156104eb57600080fd5b8201836020820111156104fd57600080fd5b8035906020019184600183028401116401000000008311171561051f57600080fd5b91908080601f016020809104026020016040519081016040528093929190818152602001838380828437600081840152601f19601f8201169050808301925050505050505091929192908035906020019064010000000081111561058257600080fd5b82018360208201111561059457600080fd5b803590602001918460018302840111640100000000831117156105b657600080fd5b91908080601f016020809104026020016040519081016040528093929190818152602001838380828437600081840152601f19601f820116905080830192505050505050509192919290505050610d5a565b005b6000600160003373ffffffffffffffffffffffffffffffffffffffff1673ffffffffffffffffffffffffffffffffffffffff16815260200190815260200160002080549050116106c2576040517f08c379a00000000000000000000000000000000000000000000000000000000081526004018080602001828103825260108152602001807f4e6f20636f7572736520666f756e64210000000000000000000000000000000081525060200191505060405180910390fd5b6060600160003373ffffffffffffffffffffffffffffffffffffffff1673ffffffffffffffffffffffffffffffffffffffff168152602001908152602001600020805480602002602001604051908101604052809291908181526020016000905b82821015610801578382906000526020600020906002020160405180604001604052908160008201548152602001600182018054600181600116156101000203166002900480601f0160208091040260200160405190810160405280929190818152602001828054600181600116156101000203166002900480156107e95780601f106107be576101008083540402835291602001916107e9565b820191906000526020600020905b8154815290600101906020018083116107cc57829003601f168201915b50505050508152505081526020019060010190610723565b505050509050600081519050600080905060008090505b82811015610859578584828151811061082d57fe5b602002602001015160000151146108435761084c565b60019150610859565b8080600101915050610818565b50806108cd576040517f08c379a00000000000000000000000000000000000000000000000000000000081526004018080602001828103825260168152602001807f436f7572736520646f6573206e6f74206578697374210000000000000000000081525060200191505060405180910390fd5b6108d78585610eaf565b610949576040517f08c379a000000000000000000000000000000000000000000000000000000000815260040180806020018281038252601e8152602001807f5061727469636970616e7420616c726561647920696e20636f7572736521000081525060200191505060405180910390fd5b600260008681526020019081526020016000208490806001815401808255809150509060018203906000526020600020016000909192909190916101000a81548173ffffffffffffffffffffffffffffffffffffffff021916908373ffffffffffffffffffffffffffffffffffffffff160217905550505050505050565b600460008154809291906001019190505550600160003373ffffffffffffffffffffffffffffffffffffffff1673ffffffffffffffffffffffffffffffffffffffff168152602001908152602001600020604051806040016040528060045481526020018381525090806001815401808255809150509060018203906000526020600020906002020160009091929091909150600082015181600001556020820151816001019080519060200190610a80929190610fc1565b5050505050565b60026020528160005260406000208181548110610aa057fe5b906000526020600020016000915091509054906101000a900473ffffffffffffffffffffffffffffffffffffffff1681565b60035481565b60045481565b60006020528060005260406000206000915090508060000154908060010160009054906101000a900473ffffffffffffffffffffffffffffffffffffffff16908060020160009054906101000a900473ffffffffffffffffffffffffffffffffffffffff1690806003018054600181600116156101000203166002900480601f016020809104026020016040519081016040528092919081815260200182805460018160011615610100020316600290048015610bdc5780601f10610bb157610100808354040283529160200191610bdc565b820191906000526020600020905b815481529060010190602001808311610bbf57829003601f168201915b505050505090806004018054600181600116156101000203166002900480601f016020809104026020016040519081016040528092919081815260200182805460018160011615610100020316600290048015610c7a5780601f10610c4f57610100808354040283529160200191610c7a565b820191906000526020600020905b815481529060010190602001808311610c5d57829003601f168201915b5050505050905085565b60016020528160005260406000208181548110610c9d57fe5b906000526020600020906002020160009150915050806000015490806001018054600181600116156101000203166002900480601f016020809104026020016040519081016040528092919081815260200182805460018160011615610100020316600290048015610d505780601f10610d2557610100808354040283529160200191610d50565b820191906000526020600020905b815481529060010190602001808311610d3357829003601f168201915b5050505050905082565b6003600081548092919060010191905055506040518060a0016040528060035481526020013373ffffffffffffffffffffffffffffffffffffffff1681526020018473ffffffffffffffffffffffffffffffffffffffff1681526020018381526020018281525060008060035481526020019081526020016000206000820151816000015560208201518160010160006101000a81548173ffffffffffffffffffffffffffffffffffffffff021916908373ffffffffffffffffffffffffffffffffffffffff16021790555060408201518160020160006101000a81548173ffffffffffffffffffffffffffffffffffffffff021916908373ffffffffffffffffffffffffffffffffffffffff1602179055506060820151816003019080519060200190610e89929190610fc1565b506080820151816004019080519060200190610ea6929190610fc1565b50905050505050565b6000606060026000858152602001908152602001600020805480602002602001604051908101604052809291908181526020018280548015610f4657602002820191906000526020600020905b8160009054906101000a900473ffffffffffffffffffffffffffffffffffffffff1673ffffffffffffffffffffffffffffffffffffffff1681526020019060010190808311610efc575b5050505050905060005b8151811015610fb8578373ffffffffffffffffffffffffffffffffffffffff16828281518110610f7c57fe5b602002602001015173ffffffffffffffffffffffffffffffffffffffff161415610fab57600192505050610fbb565b8080600101915050610f50565b50505b92915050565b828054600181600116156101000203166002900490600052602060002090601f016020900481019282601f1061100257805160ff1916838001178555611030565b82800160010185558215611030579182015b8281111561102f578251825591602001919060010190611014565b5b50905061103d9190611041565b5090565b61106391905b8082111561105f576000816000905550600101611047565b5090565b9056fea265627a7a723158204407194634b5cb10d4276f48c849b6aac64f0e0bb47c23a5b2f5b176da02fc7e64736f6c63430005100032",
  "source": "pragma solidity 0.5.16;\n\ncontract Certification {\n\n    struct Certifate {\n        uint courseId;\n        address publisher;\n        address participant;\n        string title;\n        string course;\n    }\n\n    struct Course {\n        uint id;\n        string title;\n    }\n\n    mapping(uint => Certifate) public certificates; // adress is the collector\n    mapping(address => Course[]) public courses;\n    mapping(uint => address[]) public courseParticipants;\n\n    uint public certificateCount;\n    uint public courseCount;\n\n     function addCertificate (address _collector, string memory _title, string memory _course) public {\n        certificateCount++;\n        certificates[certificateCount] = Certifate(certificateCount, msg.sender, _collector, _title, _course);\n    }\n\n    // function issueCertificates (uint _courseId, string memory _title) public {\n    //     certificateCount++;\n    //     certificates[] = Certifate(certificateCount, _courseId, msg.sender, _title);\n    // }\n\n    function addCourse (string memory _title) public {\n        courseCount++;\n        courses[msg.sender].push(\n            Course(courseCount, _title)\n        );\n    }\n\n    function addParticipant(uint _courseId, address _participant) public {\n\n        require(courses[msg.sender].length > 0, \"No course found!\");\n        \n        // check if course exists\n        Course[] memory myCourses = courses[msg.sender];\n        uint length = myCourses.length;\n        bool exists = false;\n\n        for (uint i = 0; i < length; i++) {\n            if (myCourses[i].id != _courseId) {\n                continue;\n            }\n            exists = true;\n            break;\n        }\n\n        require(exists, \"Course does not exist!\");\n        require(participantExists(_courseId, _participant), \"Participant already in course!\");\n\n        courseParticipants[_courseId].push(_participant);\n    }\n\n    function participantExists (uint _courseId, address _participant) private view returns (bool) {\n        address[] memory participants = courseParticipants[_courseId];\n        for (uint i; i < participants.length; i++) {\n            if (participants[i]==_participant) {\n                return true;\n            }\n        }\n    }\n\n\n    constructor() public {\n        addCourse(\"Web Engineering 1\"); // course id: 0\n        addCourse(\"Power Engineering 1\"); // course id: 1\n\n        address participantA = 0xdCad3a6d3569DF655070DEd06cb7A1b2Ccd1D3AF;\n        address participantB = 0xfC9a8E621F0D8821A770a5Cee4cEF8a90D387e8D;\n        \n        //addParticipant(0, participantA);\n        //addParticipant(1, participantB);\n\n        //issueCertificates(0, \"Web Engineer\");\n\n\n        // test adding of certificates\n        address receiver = 0xdCad3a6d3569DF655070DEd06cb7A1b2Ccd1D3AF;\n        addCertificate(receiver, \"Web Engineer\", courses[msg.sender][0].title);\n        addCertificate(receiver, \"Power Engineer\", courses[msg.sender][1].title);\n    }\n}",
  "sourcePath": "/home/daniel/src/blockchain/BlockCertify/contracts/Certification.sol",
  "compiler": {
    "name": "solc",
    "version": "0.5.16+commit.9c3226ce.Emscripten.clang"
  },
  "schemaVersion": "3.3.1",
  "updatedAt": "2020-11-04T14:58:02.075Z",
  "networkType": "ethereum",
  "devdoc": {
    "methods": {}
  },
  "userdoc": {
    "methods": {}
  }
}