{
  "contractName": "Certification",
  "abi": [
    {
      "inputs": [],
      "payable": false,
      "stateMutability": "nonpayable",
      "type": "constructor"
    },
    {
      "constant": true,
      "inputs": [
        {
          "internalType": "address",
          "name": "",
          "type": "address"
        },
        {
          "internalType": "uint256",
          "name": "",
          "type": "uint256"
        }
      ],
      "name": "certificates",
      "outputs": [
        {
          "internalType": "address",
          "name": "publisher",
          "type": "address"
        },
        {
          "internalType": "address",
          "name": "participant",
          "type": "address"
        },
        {
          "internalType": "string",
          "name": "title",
          "type": "string"
        },
        {
          "internalType": "uint256",
          "name": "courseId",
          "type": "uint256"
        },
        {
          "internalType": "string",
          "name": "course",
          "type": "string"
        }
      ],
      "payable": false,
      "stateMutability": "view",
      "type": "function"
    },
    {
      "constant": true,
      "inputs": [],
      "name": "contractAddress",
      "outputs": [
        {
          "internalType": "address",
          "name": "",
          "type": "address"
        }
      ],
      "payable": false,
      "stateMutability": "view",
      "type": "function"
    },
    {
      "constant": true,
      "inputs": [],
      "name": "courseCount",
      "outputs": [
        {
          "internalType": "uint256",
          "name": "",
          "type": "uint256"
        }
      ],
      "payable": false,
      "stateMutability": "view",
      "type": "function"
    },
    {
      "constant": true,
      "inputs": [
        {
          "internalType": "uint256",
          "name": "",
          "type": "uint256"
        },
        {
          "internalType": "uint256",
          "name": "",
          "type": "uint256"
        }
      ],
      "name": "courseParticipants",
      "outputs": [
        {
          "internalType": "address",
          "name": "",
          "type": "address"
        }
      ],
      "payable": false,
      "stateMutability": "view",
      "type": "function"
    },
    {
      "constant": true,
      "inputs": [
        {
          "internalType": "address",
          "name": "",
          "type": "address"
        },
        {
          "internalType": "uint256",
          "name": "",
          "type": "uint256"
        }
      ],
      "name": "courses",
      "outputs": [
        {
          "internalType": "uint256",
          "name": "id",
          "type": "uint256"
        },
        {
          "internalType": "string",
          "name": "title",
          "type": "string"
        }
      ],
      "payable": false,
      "stateMutability": "view",
      "type": "function"
    },
    {
      "constant": false,
      "inputs": [
        {
          "internalType": "address",
          "name": "_collector",
          "type": "address"
        },
        {
          "internalType": "string",
          "name": "_title",
          "type": "string"
        },
        {
          "internalType": "uint256",
          "name": "_courseId",
          "type": "uint256"
        },
        {
          "internalType": "string",
          "name": "_courseTitle",
          "type": "string"
        }
      ],
      "name": "addCertificate",
      "outputs": [],
      "payable": false,
      "stateMutability": "nonpayable",
      "type": "function"
    },
    {
      "constant": false,
      "inputs": [
        {
          "internalType": "string",
          "name": "_title",
          "type": "string"
        }
      ],
      "name": "addCourse",
      "outputs": [],
      "payable": false,
      "stateMutability": "nonpayable",
      "type": "function"
    },
    {
      "constant": true,
      "inputs": [
        {
          "internalType": "address",
          "name": "_user",
          "type": "address"
        }
      ],
      "name": "getCertificateCount",
      "outputs": [
        {
          "internalType": "uint256",
          "name": "count",
          "type": "uint256"
        }
      ],
      "payable": false,
      "stateMutability": "view",
      "type": "function"
    },
    {
      "constant": false,
      "inputs": [
        {
          "internalType": "uint256",
          "name": "_courseId",
          "type": "uint256"
        },
        {
          "internalType": "address",
          "name": "_participant",
          "type": "address"
        }
      ],
      "name": "addParticipant",
      "outputs": [],
      "payable": false,
      "stateMutability": "nonpayable",
      "type": "function"
    },
    {
      "constant": true,
      "inputs": [
        {
          "internalType": "uint256",
          "name": "_courseId",
          "type": "uint256"
        }
      ],
      "name": "getCourseParticipants",
      "outputs": [
        {
          "internalType": "address[]",
          "name": "",
          "type": "address[]"
        }
      ],
      "payable": false,
      "stateMutability": "view",
      "type": "function"
    }
  ],
  "bytecode": "0x608060405233600460006101000a81548173ffffffffffffffffffffffffffffffffffffffff021916908373ffffffffffffffffffffffffffffffffffffffff1602179055503480156200005257600080fd5b50620000996040518060400160405280601181526020017f57656220456e67696e656572696e672031000000000000000000000000000000815250620005be60201b60201c565b620000df6040518060400160405280601381526020017f506f77657220456e67696e656572696e67203100000000000000000000000000815250620005be60201b60201c565b600073dcad3a6d3569df655070ded06cb7a1b2ccd1d3af9050600073fc9a8e621f0d8821a770a5cee4cef8a90d387e8d905062000180600160003373ffffffffffffffffffffffffffffffffffffffff1673ffffffffffffffffffffffffffffffffffffffff1681526020019081526020016000206000815481106200016157fe5b906000526020600020906002020160000154836200068060201b60201c565b620001ef600160003373ffffffffffffffffffffffffffffffffffffffff1673ffffffffffffffffffffffffffffffffffffffff168152602001908152602001600020600081548110620001d057fe5b906000526020600020906002020160000154826200068060201b60201c565b6200025e600160003373ffffffffffffffffffffffffffffffffffffffff1673ffffffffffffffffffffffffffffffffffffffff1681526020019081526020016000206001815481106200023f57fe5b906000526020600020906002020160000154826200068060201b60201c565b60007353bde67d3614b1f85ed12b77ada1c0ca4e86b840905062000416816040518060400160405280600c81526020017f57656220456e67696e6565720000000000000000000000000000000000000000815250600160003373ffffffffffffffffffffffffffffffffffffffff1673ffffffffffffffffffffffffffffffffffffffff168152602001908152602001600020600081548110620002fe57fe5b906000526020600020906002020160000154600160003373ffffffffffffffffffffffffffffffffffffffff1673ffffffffffffffffffffffffffffffffffffffff1681526020019081526020016000206000815481106200035c57fe5b90600052602060002090600202016001018054600181600116156101000203166002900480601f016020809104026020016040519081016040528092919081815260200182805460018160011615610100020316600290048015620004055780601f10620003d95761010080835404028352916020019162000405565b820191906000526020600020905b815481529060010190602001808311620003e757829003601f168201915b5050505050620009c260201b60201c565b620005b5816040518060400160405280600e81526020017f506f77657220456e67696e656572000000000000000000000000000000000000815250600160003373ffffffffffffffffffffffffffffffffffffffff1673ffffffffffffffffffffffffffffffffffffffff1681526020019081526020016000206001815481106200049d57fe5b906000526020600020906002020160000154600160003373ffffffffffffffffffffffffffffffffffffffff1673ffffffffffffffffffffffffffffffffffffffff168152602001908152602001600020600181548110620004fb57fe5b90600052602060002090600202016001018054600181600116156101000203166002900480601f016020809104026020016040519081016040528092919081815260200182805460018160011615610100020316600290048015620005a45780601f106200057857610100808354040283529160200191620005a4565b820191906000526020600020905b8154815290600101906020018083116200058657829003601f168201915b5050505050620009c260201b60201c565b50505062000e66565b600160003373ffffffffffffffffffffffffffffffffffffffff1673ffffffffffffffffffffffffffffffffffffffff1681526020019081526020016000206040518060400160405280600354815260200183815250908060018154018082558091505090600182039060005260206000209060020201600090919290919091506000820151816000015560208201518160010190805190602001906200066792919062000c7a565b5050505060036000815480929190600101919050555050565b6000600160003373ffffffffffffffffffffffffffffffffffffffff1673ffffffffffffffffffffffffffffffffffffffff168152602001908152602001600020805490501162000708576040517f08c379a0000000000000000000000000000000000000000000000000000000008152600401620006ff9062000def565b60405180910390fd5b6060600160003373ffffffffffffffffffffffffffffffffffffffff1673ffffffffffffffffffffffffffffffffffffffff168152602001908152602001600020805480602002602001604051908101604052809291908181526020016000905b828210156200084d578382906000526020600020906002020160405180604001604052908160008201548152602001600182018054600181600116156101000203166002900480601f016020809104026020016040519081016040528092919081815260200182805460018160011615610100020316600290048015620008345780601f10620008085761010080835404028352916020019162000834565b820191906000526020600020905b8154815290600101906020018083116200081657829003601f168201915b5050505050815250508152602001906001019062000769565b505050509050600081519050600080905060008090505b82811015620008ab57858482815181106200087b57fe5b6020026020010151600001511462000893576200089d565b60019150620008ab565b808060010191505062000864565b5080620008ef576040517f08c379a0000000000000000000000000000000000000000000000000000000008152600401620008e69062000e33565b60405180910390fd5b62000901858562000b5d60201b60201c565b1562000944576040517f08c379a00000000000000000000000000000000000000000000000000000000081526004016200093b9062000e11565b60405180910390fd5b600260008681526020019081526020016000208490806001815401808255809150509060018203906000526020600020016000909192909190916101000a81548173ffffffffffffffffffffffffffffffffffffffff021916908373ffffffffffffffffffffffffffffffffffffffff160217905550505050505050565b6000808573ffffffffffffffffffffffffffffffffffffffff1673ffffffffffffffffffffffffffffffffffffffff1681526020019081526020016000206040518060a001604052803373ffffffffffffffffffffffffffffffffffffffff1681526020018673ffffffffffffffffffffffffffffffffffffffff168152602001858152602001848152602001838152509080600181540180825580915050906001820390600052602060002090600502016000909192909190915060008201518160000160006101000a81548173ffffffffffffffffffffffffffffffffffffffff021916908373ffffffffffffffffffffffffffffffffffffffff16021790555060208201518160010160006101000a81548173ffffffffffffffffffffffffffffffffffffffff021916908373ffffffffffffffffffffffffffffffffffffffff160217905550604082015181600201908051906020019062000b2a92919062000c7a565b5060608201518160030155608082015181600401908051906020019062000b5392919062000c7a565b5050505050505050565b600060606002600085815260200190815260200160002080548060200260200160405190810160405280929190818152602001828054801562000bf657602002820191906000526020600020905b8160009054906101000a900473ffffffffffffffffffffffffffffffffffffffff1673ffffffffffffffffffffffffffffffffffffffff168152602001906001019080831162000bab575b5050505050905060005b815181101562000c6d578373ffffffffffffffffffffffffffffffffffffffff1682828151811062000c2e57fe5b602002602001015173ffffffffffffffffffffffffffffffffffffffff16141562000c5f5760019250505062000c74565b808060010191505062000c00565b5060009150505b92915050565b828054600181600116156101000203166002900490600052602060002090601f016020900481019282601f1062000cbd57805160ff191683800117855562000cee565b8280016001018555821562000cee579182015b8281111562000ced57825182559160200191906001019062000cd0565b5b50905062000cfd919062000d01565b5090565b62000d2691905b8082111562000d2257600081600090555060010162000d08565b5090565b90565b600062000d3860108362000e55565b91507f4e6f20636f7572736520666f756e6421000000000000000000000000000000006000830152602082019050919050565b600062000d7a601e8362000e55565b91507f5061727469636970616e7420616c726561647920696e20636f757273652100006000830152602082019050919050565b600062000dbc60168362000e55565b91507f436f7572736520646f6573206e6f7420657869737421000000000000000000006000830152602082019050919050565b6000602082019050818103600083015262000e0a8162000d29565b9050919050565b6000602082019050818103600083015262000e2c8162000d6b565b9050919050565b6000602082019050818103600083015262000e4e8162000dad565b9050919050565b600082825260208201905092915050565b6114438062000e766000396000f3fe608060405234801561001057600080fd5b506004361061009e5760003560e01c806399aa3f5d1161006657806399aa3f5d1461015d578063b1d5ccf81461018d578063c1e478cb146101bd578063e725d500146101ee578063f6b4dfb41461020a5761009e565b806318d85e53146100a35780632e554076146100bf57806339fd6089146100db57806346f3141c1461010b578063660551591461013f575b600080fd5b6100bd60048036036100b89190810190610f38565b610228565b005b6100d960048036036100d49190810190610ece565b61054d565b005b6100f560048036036100f09190810190610f74565b61060d565b604051610102919061114c565b60405180910390f35b61012560048036036101209190810190610e92565b610658565b604051610136959493929190611167565b60405180910390f35b610147610818565b604051610154919061124a565b60405180910390f35b61017760048036036101729190810190610f0f565b61081e565b60405161018491906111c8565b60405180910390f35b6101a760048036036101a29190810190610dd6565b6108bf565b6040516101b4919061124a565b60405180910390f35b6101d760048036036101d29190810190610e92565b61090a565b6040516101e5929190611265565b60405180910390f35b61020860048036036102039190810190610dff565b6109e0565b005b610212610b77565b60405161021f919061114c565b60405180910390f35b6000600160003373ffffffffffffffffffffffffffffffffffffffff1673ffffffffffffffffffffffffffffffffffffffff16815260200190815260200160002080549050116102ad576040517f08c379a00000000000000000000000000000000000000000000000000000000081526004016102a4906111ea565b60405180910390fd5b6060600160003373ffffffffffffffffffffffffffffffffffffffff1673ffffffffffffffffffffffffffffffffffffffff168152602001908152602001600020805480602002602001604051908101604052809291908181526020016000905b828210156103ec578382906000526020600020906002020160405180604001604052908160008201548152602001600182018054600181600116156101000203166002900480601f0160208091040260200160405190810160405280929190818152602001828054600181600116156101000203166002900480156103d45780601f106103a9576101008083540402835291602001916103d4565b820191906000526020600020905b8154815290600101906020018083116103b757829003601f168201915b5050505050815250508152602001906001019061030e565b505050509050600081519050600080905060008090505b82811015610444578584828151811061041857fe5b6020026020010151600001511461042e57610437565b60019150610444565b8080600101915050610403565b5080610485576040517f08c379a000000000000000000000000000000000000000000000000000000000815260040161047c9061122a565b60405180910390fd5b61048f8585610b9d565b156104cf576040517f08c379a00000000000000000000000000000000000000000000000000000000081526004016104c69061120a565b60405180910390fd5b600260008681526020019081526020016000208490806001815401808255809150509060018203906000526020600020016000909192909190916101000a81548173ffffffffffffffffffffffffffffffffffffffff021916908373ffffffffffffffffffffffffffffffffffffffff160217905550505050505050565b600160003373ffffffffffffffffffffffffffffffffffffffff1673ffffffffffffffffffffffffffffffffffffffff1681526020019081526020016000206040518060400160405280600354815260200183815250908060018154018082558091505090600182039060005260206000209060020201600090919290919091506000820151816000015560208201518160010190805190602001906105f4929190610cb3565b5050505060036000815480929190600101919050555050565b6002602052816000526040600020818154811061062657fe5b906000526020600020016000915091509054906101000a900473ffffffffffffffffffffffffffffffffffffffff1681565b6000602052816000526040600020818154811061067157fe5b9060005260206000209060050201600091509150508060000160009054906101000a900473ffffffffffffffffffffffffffffffffffffffff16908060010160009054906101000a900473ffffffffffffffffffffffffffffffffffffffff1690806002018054600181600116156101000203166002900480601f01602080910402602001604051908101604052809291908181526020018280546001816001161561010002031660029004801561076a5780601f1061073f5761010080835404028352916020019161076a565b820191906000526020600020905b81548152906001019060200180831161074d57829003601f168201915b505050505090806003015490806004018054600181600116156101000203166002900480601f01602080910402602001604051908101604052809291908181526020018280546001816001161561010002031660029004801561080e5780601f106107e35761010080835404028352916020019161080e565b820191906000526020600020905b8154815290600101906020018083116107f157829003601f168201915b5050505050905085565b60035481565b6060600260008381526020019081526020016000208054806020026020016040519081016040528092919081815260200182805480156108b357602002820191906000526020600020905b8160009054906101000a900473ffffffffffffffffffffffffffffffffffffffff1673ffffffffffffffffffffffffffffffffffffffff1681526020019060010190808311610869575b50505050509050919050565b60008060008373ffffffffffffffffffffffffffffffffffffffff1673ffffffffffffffffffffffffffffffffffffffff168152602001908152602001600020805490509050919050565b6001602052816000526040600020818154811061092357fe5b906000526020600020906002020160009150915050806000015490806001018054600181600116156101000203166002900480601f0160208091040260200160405190810160405280929190818152602001828054600181600116156101000203166002900480156109d65780601f106109ab576101008083540402835291602001916109d6565b820191906000526020600020905b8154815290600101906020018083116109b957829003601f168201915b5050505050905082565b6000808573ffffffffffffffffffffffffffffffffffffffff1673ffffffffffffffffffffffffffffffffffffffff1681526020019081526020016000206040518060a001604052803373ffffffffffffffffffffffffffffffffffffffff1681526020018673ffffffffffffffffffffffffffffffffffffffff168152602001858152602001848152602001838152509080600181540180825580915050906001820390600052602060002090600502016000909192909190915060008201518160000160006101000a81548173ffffffffffffffffffffffffffffffffffffffff021916908373ffffffffffffffffffffffffffffffffffffffff16021790555060208201518160010160006101000a81548173ffffffffffffffffffffffffffffffffffffffff021916908373ffffffffffffffffffffffffffffffffffffffff1602179055506040820151816002019080519060200190610b46929190610cb3565b50606082015181600301556080820151816004019080519060200190610b6d929190610cb3565b5050505050505050565b600460009054906101000a900473ffffffffffffffffffffffffffffffffffffffff1681565b6000606060026000858152602001908152602001600020805480602002602001604051908101604052809291908181526020018280548015610c3457602002820191906000526020600020905b8160009054906101000a900473ffffffffffffffffffffffffffffffffffffffff1673ffffffffffffffffffffffffffffffffffffffff1681526020019060010190808311610bea575b5050505050905060005b8151811015610ca6578373ffffffffffffffffffffffffffffffffffffffff16828281518110610c6a57fe5b602002602001015173ffffffffffffffffffffffffffffffffffffffff161415610c9957600192505050610cad565b8080600101915050610c3e565b5060009150505b92915050565b828054600181600116156101000203166002900490600052602060002090601f016020900481019282601f10610cf457805160ff1916838001178555610d22565b82800160010185558215610d22579182015b82811115610d21578251825591602001919060010190610d06565b5b509050610d2f9190610d33565b5090565b610d5591905b80821115610d51576000816000905550600101610d39565b5090565b90565b600081359050610d67816113d2565b92915050565b600082601f830112610d7e57600080fd5b8135610d91610d8c826112c2565b611295565b91508082526020830160208301858383011115610dad57600080fd5b610db883828461137f565b50505092915050565b600081359050610dd0816113e9565b92915050565b600060208284031215610de857600080fd5b6000610df684828501610d58565b91505092915050565b60008060008060808587031215610e1557600080fd5b6000610e2387828801610d58565b945050602085013567ffffffffffffffff811115610e4057600080fd5b610e4c87828801610d6d565b9350506040610e5d87828801610dc1565b925050606085013567ffffffffffffffff811115610e7a57600080fd5b610e8687828801610d6d565b91505092959194509250565b60008060408385031215610ea557600080fd5b6000610eb385828601610d58565b9250506020610ec485828601610dc1565b9150509250929050565b600060208284031215610ee057600080fd5b600082013567ffffffffffffffff811115610efa57600080fd5b610f0684828501610d6d565b91505092915050565b600060208284031215610f2157600080fd5b6000610f2f84828501610dc1565b91505092915050565b60008060408385031215610f4b57600080fd5b6000610f5985828601610dc1565b9250506020610f6a85828601610d58565b9150509250929050565b60008060408385031215610f8757600080fd5b6000610f9585828601610dc1565b9250506020610fa685828601610dc1565b9150509250929050565b6000610fbc8383610fc8565b60208301905092915050565b610fd181611343565b82525050565b610fe081611343565b82525050565b6000610ff1826112fe565b610ffb8185611321565b9350611006836112ee565b8060005b8381101561103757815161101e8882610fb0565b975061102983611314565b92505060018101905061100a565b5085935050505092915050565b600061104f82611309565b6110598185611332565b935061106981856020860161138e565b611072816113c1565b840191505092915050565b600061108a601083611332565b91507f4e6f20636f7572736520666f756e6421000000000000000000000000000000006000830152602082019050919050565b60006110ca601e83611332565b91507f5061727469636970616e7420616c726561647920696e20636f757273652100006000830152602082019050919050565b600061110a601683611332565b91507f436f7572736520646f6573206e6f7420657869737421000000000000000000006000830152602082019050919050565b61114681611375565b82525050565b60006020820190506111616000830184610fd7565b92915050565b600060a08201905061117c6000830188610fd7565b6111896020830187610fd7565b818103604083015261119b8186611044565b90506111aa606083018561113d565b81810360808301526111bc8184611044565b90509695505050505050565b600060208201905081810360008301526111e28184610fe6565b905092915050565b600060208201905081810360008301526112038161107d565b9050919050565b60006020820190508181036000830152611223816110bd565b9050919050565b60006020820190508181036000830152611243816110fd565b9050919050565b600060208201905061125f600083018461113d565b92915050565b600060408201905061127a600083018561113d565b818103602083015261128c8184611044565b90509392505050565b6000604051905081810181811067ffffffffffffffff821117156112b857600080fd5b8060405250919050565b600067ffffffffffffffff8211156112d957600080fd5b601f19601f8301169050602081019050919050565b6000819050602082019050919050565b600081519050919050565b600081519050919050565b6000602082019050919050565b600082825260208201905092915050565b600082825260208201905092915050565b600061134e82611355565b9050919050565b600073ffffffffffffffffffffffffffffffffffffffff82169050919050565b6000819050919050565b82818337600083830152505050565b60005b838110156113ac578082015181840152602081019050611391565b838111156113bb576000848401525b50505050565b6000601f19601f8301169050919050565b6113db81611343565b81146113e657600080fd5b50565b6113f281611375565b81146113fd57600080fd5b5056fea365627a7a7231582036d4936faf8b0d57dca1a8c93cfc2e21a763caa53a487e17bacabc7b8af6f0026c6578706572696d656e74616cf564736f6c63430005100040",
  "source": "pragma solidity 0.5.16;\npragma experimental ABIEncoderV2;\n\ncontract Certification {\n\n    struct Certifate {\n        address publisher;\n        address participant;\n        string title;\n        uint courseId;\n        string course;\n    }\n\n    struct Course {\n        uint id;\n        string title;\n    }\n\n    mapping(address => Certifate[]) public certificates;\n    mapping(address => Course[]) public courses;\n    mapping(uint => address[]) public courseParticipants;\n\n    uint public courseCount;\n    address public contractAddress = msg.sender;\n\n    function addCertificate (address _collector, string memory _title, uint _courseId, string memory _courseTitle) public {\n        certificates[_collector].push(\n            Certifate(msg.sender, _collector, _title, _courseId, _courseTitle)\n        );\n    }\n\n    // function issueCertificates (uint _courseId, string memory _title) public {\n    //     certificateCount++;\n    //     certificates[] = Certifate(certificateCount, _courseId, msg.sender, _title);\n    // }\n\n    function addCourse (string memory _title) public {\n        courses[msg.sender].push(\n            Course(courseCount, _title)\n        );\n        courseCount++;\n    }\n\n    function getCertificateCount (address _user) public view returns (uint count){\n        return certificates[_user].length;\n    }\n\n    function addParticipant(uint _courseId, address _participant) public {\n\n        require(courses[msg.sender].length > 0, \"No course found!\");\n        \n        // check if course exists\n        Course[] memory myCourses = courses[msg.sender];\n\n        uint length = myCourses.length;\n        bool exists = false;\n\n        for (uint i = 0; i < length; i++) {\n            if (myCourses[i].id != _courseId) {\n                continue;\n            }\n            exists = true;\n            break;\n        }\n\n        require(exists, \"Course does not exist!\");\n        require(!participantExists(_courseId, _participant), \"Participant already in course!\");\n\n        courseParticipants[_courseId].push(_participant);\n    }\n\n    function participantExists (uint _courseId, address _participant) private view returns (bool) {\n        address[] memory participants = courseParticipants[_courseId];\n        for (uint i; i < participants.length; i++) {\n            if (participants[i]==_participant) {\n                return true;\n            }\n        }\n        return false;\n    }\n\n    function getCourseParticipants(uint _courseId) public view returns (address[] memory){\n        return courseParticipants[_courseId];\n    }\n\n\n    constructor() public {\n        addCourse(\"Web Engineering 1\"); // course id: 0\n        addCourse(\"Power Engineering 1\"); // course id: 1\n\n        address participantA = 0xdCad3a6d3569DF655070DEd06cb7A1b2Ccd1D3AF;\n        address participantB = 0xfC9a8E621F0D8821A770a5Cee4cEF8a90D387e8D;\n        \n        addParticipant(courses[msg.sender][0].id, participantA);\n        addParticipant(courses[msg.sender][0].id, participantB);\n        addParticipant(courses[msg.sender][1].id, participantB);\n\n        //issueCertificates(0, \"Web Engineer\");\n\n        // test adding of certificates\n        address receiver = 0x53bde67D3614B1f85eD12B77adA1c0Ca4e86b840;\n        addCertificate(receiver, \"Web Engineer\", courses[msg.sender][0].id, courses[msg.sender][0].title);\n        addCertificate(receiver, \"Power Engineer\", courses[msg.sender][1].id, courses[msg.sender][1].title);\n    }\n}",
  "sourcePath": "/home/daniel/src/blockchain/BlockCertify/contracts/Certification.sol",
  "compiler": {
    "name": "solc",
    "version": "0.5.16+commit.9c3226ce.Emscripten.clang"
  },
  "schemaVersion": "3.3.1",
  "updatedAt": "2020-11-10T15:04:36.155Z",
  "networkType": "ethereum",
  "devdoc": {
    "methods": {}
  },
  "userdoc": {
    "methods": {}
  }
}