{
  "contractName": "Certification",
  "abi": [
    {
      "inputs": [],
      "payable": false,
      "stateMutability": "nonpayable",
      "type": "constructor"
    },
    {
      "constant": true,
      "inputs": [],
      "name": "contractAddress",
      "outputs": [
        {
          "internalType": "address",
          "name": "",
          "type": "address"
        }
      ],
      "payable": false,
      "stateMutability": "view",
      "type": "function"
    },
    {
      "constant": true,
      "inputs": [],
      "name": "courseCount",
      "outputs": [
        {
          "internalType": "uint256",
          "name": "",
          "type": "uint256"
        }
      ],
      "payable": false,
      "stateMutability": "view",
      "type": "function"
    },
    {
      "constant": true,
      "inputs": [
        {
          "internalType": "uint256",
          "name": "",
          "type": "uint256"
        },
        {
          "internalType": "uint256",
          "name": "",
          "type": "uint256"
        }
      ],
      "name": "courseParticipants",
      "outputs": [
        {
          "internalType": "address",
          "name": "",
          "type": "address"
        }
      ],
      "payable": false,
      "stateMutability": "view",
      "type": "function"
    },
    {
      "constant": true,
      "inputs": [
        {
          "internalType": "address",
          "name": "",
          "type": "address"
        },
        {
          "internalType": "uint256",
          "name": "",
          "type": "uint256"
        }
      ],
      "name": "issuerCertificates",
      "outputs": [
        {
          "internalType": "address",
          "name": "publisher",
          "type": "address"
        },
        {
          "internalType": "address",
          "name": "participant",
          "type": "address"
        },
        {
          "internalType": "string",
          "name": "title",
          "type": "string"
        },
        {
          "internalType": "uint256",
          "name": "courseId",
          "type": "uint256"
        },
        {
          "internalType": "string",
          "name": "course",
          "type": "string"
        }
      ],
      "payable": false,
      "stateMutability": "view",
      "type": "function"
    },
    {
      "constant": true,
      "inputs": [
        {
          "internalType": "address",
          "name": "",
          "type": "address"
        },
        {
          "internalType": "uint256",
          "name": "",
          "type": "uint256"
        }
      ],
      "name": "issuerCourses",
      "outputs": [
        {
          "internalType": "uint256",
          "name": "id",
          "type": "uint256"
        },
        {
          "internalType": "string",
          "name": "title",
          "type": "string"
        },
        {
          "internalType": "address",
          "name": "issuer",
          "type": "address"
        }
      ],
      "payable": false,
      "stateMutability": "view",
      "type": "function"
    },
    {
      "constant": true,
      "inputs": [
        {
          "internalType": "address",
          "name": "",
          "type": "address"
        },
        {
          "internalType": "uint256",
          "name": "",
          "type": "uint256"
        }
      ],
      "name": "participantCertificates",
      "outputs": [
        {
          "internalType": "address",
          "name": "publisher",
          "type": "address"
        },
        {
          "internalType": "address",
          "name": "participant",
          "type": "address"
        },
        {
          "internalType": "string",
          "name": "title",
          "type": "string"
        },
        {
          "internalType": "uint256",
          "name": "courseId",
          "type": "uint256"
        },
        {
          "internalType": "string",
          "name": "course",
          "type": "string"
        }
      ],
      "payable": false,
      "stateMutability": "view",
      "type": "function"
    },
    {
      "constant": true,
      "inputs": [
        {
          "internalType": "address",
          "name": "",
          "type": "address"
        },
        {
          "internalType": "uint256",
          "name": "",
          "type": "uint256"
        }
      ],
      "name": "participantCourses",
      "outputs": [
        {
          "internalType": "uint256",
          "name": "id",
          "type": "uint256"
        },
        {
          "internalType": "string",
          "name": "title",
          "type": "string"
        },
        {
          "internalType": "address",
          "name": "issuer",
          "type": "address"
        }
      ],
      "payable": false,
      "stateMutability": "view",
      "type": "function"
    },
    {
      "constant": false,
      "inputs": [
        {
          "internalType": "address",
          "name": "_participant",
          "type": "address"
        },
        {
          "internalType": "string",
          "name": "_title",
          "type": "string"
        },
        {
          "internalType": "uint256",
          "name": "_courseId",
          "type": "uint256"
        },
        {
          "internalType": "string",
          "name": "_courseTitle",
          "type": "string"
        }
      ],
      "name": "addCertificate",
      "outputs": [],
      "payable": false,
      "stateMutability": "nonpayable",
      "type": "function"
    },
    {
      "constant": true,
      "inputs": [
        {
          "internalType": "address",
          "name": "_user",
          "type": "address"
        }
      ],
      "name": "getIssuerCertificateCount",
      "outputs": [
        {
          "internalType": "uint256",
          "name": "count",
          "type": "uint256"
        }
      ],
      "payable": false,
      "stateMutability": "view",
      "type": "function"
    },
    {
      "constant": true,
      "inputs": [
        {
          "internalType": "address",
          "name": "_user",
          "type": "address"
        }
      ],
      "name": "getParticipantCertificateCount",
      "outputs": [
        {
          "internalType": "uint256",
          "name": "count",
          "type": "uint256"
        }
      ],
      "payable": false,
      "stateMutability": "view",
      "type": "function"
    },
    {
      "constant": true,
      "inputs": [
        {
          "internalType": "address",
          "name": "_issuer",
          "type": "address"
        }
      ],
      "name": "getIssuerCourseCount",
      "outputs": [
        {
          "internalType": "uint256",
          "name": "count",
          "type": "uint256"
        }
      ],
      "payable": false,
      "stateMutability": "view",
      "type": "function"
    },
    {
      "constant": true,
      "inputs": [
        {
          "internalType": "address",
          "name": "_participant",
          "type": "address"
        }
      ],
      "name": "getParticipantCourseCount",
      "outputs": [
        {
          "internalType": "uint256",
          "name": "count",
          "type": "uint256"
        }
      ],
      "payable": false,
      "stateMutability": "view",
      "type": "function"
    },
    {
      "constant": true,
      "inputs": [
        {
          "internalType": "uint256",
          "name": "_courseId",
          "type": "uint256"
        }
      ],
      "name": "getCourseParticipantCount",
      "outputs": [
        {
          "internalType": "uint256",
          "name": "count",
          "type": "uint256"
        }
      ],
      "payable": false,
      "stateMutability": "view",
      "type": "function"
    },
    {
      "constant": false,
      "inputs": [
        {
          "internalType": "string",
          "name": "_title",
          "type": "string"
        }
      ],
      "name": "addCourse",
      "outputs": [],
      "payable": false,
      "stateMutability": "nonpayable",
      "type": "function"
    },
    {
      "constant": false,
      "inputs": [
        {
          "internalType": "uint256",
          "name": "_courseId",
          "type": "uint256"
        },
        {
          "internalType": "address",
          "name": "_participant",
          "type": "address"
        }
      ],
      "name": "addParticipant",
      "outputs": [],
      "payable": false,
      "stateMutability": "nonpayable",
      "type": "function"
    }
  ],
  "bytecode": "0x608060405233600660006101000a81548173ffffffffffffffffffffffffffffffffffffffff021916908373ffffffffffffffffffffffffffffffffffffffff1602179055503480156200005257600080fd5b50620000996040518060400160405280601181526020017f57656220456e67696e656572696e672031000000000000000000000000000000815250620005be60201b60201c565b620000df6040518060400160405280601381526020017f506f77657220456e67696e656572696e67203100000000000000000000000000815250620005be60201b60201c565b600073dcad3a6d3569df655070ded06cb7a1b2ccd1d3af9050600073fc9a8e621f0d8821a770a5cee4cef8a90d387e8d905062000180600260003373ffffffffffffffffffffffffffffffffffffffff1673ffffffffffffffffffffffffffffffffffffffff1681526020019081526020016000206000815481106200016157fe5b90600052602060002090600302016000015483620006e360201b60201c565b620001ef600260003373ffffffffffffffffffffffffffffffffffffffff1673ffffffffffffffffffffffffffffffffffffffff168152602001908152602001600020600081548110620001d057fe5b90600052602060002090600302016000015482620006e360201b60201c565b6200025e600260003373ffffffffffffffffffffffffffffffffffffffff1673ffffffffffffffffffffffffffffffffffffffff1681526020019081526020016000206001815481106200023f57fe5b90600052602060002090600302016000015482620006e360201b60201c565b60007353bde67d3614b1f85ed12b77ada1c0ca4e86b840905062000416816040518060400160405280600c81526020017f57656220456e67696e6565720000000000000000000000000000000000000000815250600260003373ffffffffffffffffffffffffffffffffffffffff1673ffffffffffffffffffffffffffffffffffffffff168152602001908152602001600020600081548110620002fe57fe5b906000526020600020906003020160000154600260003373ffffffffffffffffffffffffffffffffffffffff1673ffffffffffffffffffffffffffffffffffffffff1681526020019081526020016000206000815481106200035c57fe5b90600052602060002090600302016001018054600181600116156101000203166002900480601f016020809104026020016040519081016040528092919081815260200182805460018160011615610100020316600290048015620004055780601f10620003d95761010080835404028352916020019162000405565b820191906000526020600020905b815481529060010190602001808311620003e757829003601f168201915b505050505062000bc660201b60201c565b620005b5816040518060400160405280600e81526020017f506f77657220456e67696e656572000000000000000000000000000000000000815250600260003373ffffffffffffffffffffffffffffffffffffffff1673ffffffffffffffffffffffffffffffffffffffff1681526020019081526020016000206001815481106200049d57fe5b906000526020600020906003020160000154600260003373ffffffffffffffffffffffffffffffffffffffff1673ffffffffffffffffffffffffffffffffffffffff168152602001908152602001600020600181548110620004fb57fe5b90600052602060002090600302016001018054600181600116156101000203166002900480601f016020809104026020016040519081016040528092919081815260200182805460018160011615610100020316600290048015620005a45780601f106200057857610100808354040283529160200191620005a4565b820191906000526020600020905b8154815290600101906020018083116200058657829003601f168201915b505050505062000bc660201b60201c565b505050620010fa565b600260003373ffffffffffffffffffffffffffffffffffffffff1673ffffffffffffffffffffffffffffffffffffffff168152602001908152602001600020604051806060016040528060055481526020018381526020013373ffffffffffffffffffffffffffffffffffffffff16815250908060018154018082558091505090600182039060005260206000209060030201600090919290919091506000820151816000015560208201518160010190805190602001906200068392919062001014565b5060408201518160020160006101000a81548173ffffffffffffffffffffffffffffffffffffffff021916908373ffffffffffffffffffffffffffffffffffffffff16021790555050505060056000815480929190600101919050555050565b60011562000759576040517f08c379a00000000000000000000000000000000000000000000000000000000081526004018080602001828103825260108152602001807f4e6f20636f7572736520666f756e64210000000000000000000000000000000081525060200191505060405180910390fd5b6060600260003373ffffffffffffffffffffffffffffffffffffffff1673ffffffffffffffffffffffffffffffffffffffff168152602001908152602001600020805480602002602001604051908101604052809291908181526020016000905b82821015620008f4578382906000526020600020906003020160405180606001604052908160008201548152602001600182018054600181600116156101000203166002900480601f016020809104026020016040519081016040528092919081815260200182805460018160011615610100020316600290048015620008855780601f10620008595761010080835404028352916020019162000885565b820191906000526020600020905b8154815290600101906020018083116200086757829003601f168201915b505050505081526020016002820160009054906101000a900473ffffffffffffffffffffffffffffffffffffffff1673ffffffffffffffffffffffffffffffffffffffff1673ffffffffffffffffffffffffffffffffffffffff168152505081526020019060010190620007ba565b50505050905060008151905060008090506200090f6200109b565b60008090505b838110156200096e57868582815181106200092c57fe5b60200260200101516000015114156200096057600192508481815181106200095057fe5b602002602001015191506200096e565b808060010191505062000915565b5081620009e3576040517f08c379a00000000000000000000000000000000000000000000000000000000081526004018080602001828103825260168152602001807f436f7572736520646f6573206e6f74206578697374210000000000000000000081525060200191505060405180910390fd5b620009f5868662000ef760201b60201c565b1562000a69576040517f08c379a000000000000000000000000000000000000000000000000000000000815260040180806020018281038252601e8152602001807f5061727469636970616e7420616c726561647920696e20636f7572736521000081525060200191505060405180910390fd5b600460008781526020019081526020016000208590806001815401808255809150509060018203906000526020600020016000909192909190916101000a81548173ffffffffffffffffffffffffffffffffffffffff021916908373ffffffffffffffffffffffffffffffffffffffff16021790555050600360008673ffffffffffffffffffffffffffffffffffffffff1673ffffffffffffffffffffffffffffffffffffffff168152602001908152602001600020819080600181540180825580915050906001820390600052602060002090600302016000909192909190915060008201518160000155602082015181600101908051906020019062000b7392919062001014565b5060408201518160020160006101000a81548173ffffffffffffffffffffffffffffffffffffffff021916908373ffffffffffffffffffffffffffffffffffffffff160217905550505050505050505050565b600160008573ffffffffffffffffffffffffffffffffffffffff1673ffffffffffffffffffffffffffffffffffffffff1681526020019081526020016000206040518060a001604052803373ffffffffffffffffffffffffffffffffffffffff1681526020018673ffffffffffffffffffffffffffffffffffffffff168152602001858152602001848152602001838152509080600181540180825580915050906001820390600052602060002090600502016000909192909190915060008201518160000160006101000a81548173ffffffffffffffffffffffffffffffffffffffff021916908373ffffffffffffffffffffffffffffffffffffffff16021790555060208201518160010160006101000a81548173ffffffffffffffffffffffffffffffffffffffff021916908373ffffffffffffffffffffffffffffffffffffffff160217905550604082015181600201908051906020019062000d2f92919062001014565b5060608201518160030155608082015181600401908051906020019062000d5892919062001014565b505050506000803373ffffffffffffffffffffffffffffffffffffffff1673ffffffffffffffffffffffffffffffffffffffff1681526020019081526020016000206040518060a001604052803373ffffffffffffffffffffffffffffffffffffffff1681526020018673ffffffffffffffffffffffffffffffffffffffff168152602001858152602001848152602001838152509080600181540180825580915050906001820390600052602060002090600502016000909192909190915060008201518160000160006101000a81548173ffffffffffffffffffffffffffffffffffffffff021916908373ffffffffffffffffffffffffffffffffffffffff16021790555060208201518160010160006101000a81548173ffffffffffffffffffffffffffffffffffffffff021916908373ffffffffffffffffffffffffffffffffffffffff160217905550604082015181600201908051906020019062000ec492919062001014565b5060608201518160030155608082015181600401908051906020019062000eed92919062001014565b5050505050505050565b600060606004600085815260200190815260200160002080548060200260200160405190810160405280929190818152602001828054801562000f9057602002820191906000526020600020905b8160009054906101000a900473ffffffffffffffffffffffffffffffffffffffff1673ffffffffffffffffffffffffffffffffffffffff168152602001906001019080831162000f45575b5050505050905060005b815181101562001007578373ffffffffffffffffffffffffffffffffffffffff1682828151811062000fc857fe5b602002602001015173ffffffffffffffffffffffffffffffffffffffff16141562000ff9576001925050506200100e565b808060010191505062000f9a565b5060009150505b92915050565b828054600181600116156101000203166002900490600052602060002090601f016020900481019282601f106200105757805160ff191683800117855562001088565b8280016001018555821562001088579182015b82811115620010875782518255916020019190600101906200106a565b5b509050620010979190620010d2565b5090565b60405180606001604052806000815260200160608152602001600073ffffffffffffffffffffffffffffffffffffffff1681525090565b620010f791905b80821115620010f3576000816000905550600101620010d9565b5090565b90565b611dbc806200110a6000396000f3fe608060405234801561001057600080fd5b50600436106100f55760003560e01c80638f00931011610097578063e019600811610066578063e0196008146108e3578063e725d50014610925578063f6b4dfb414610aa1578063f850692f14610aeb576100f5565b80638f009310146104e9578063947ff324146105ea578063b03629931461078a578063b959097a1461088b576100f5565b8063355a8165116100d3578063355a81651461025b57806339fd6089146103fb578063401bcb0a1461047357806366055159146104cb576100f5565b806318d85e53146100fa5780632dcfa82a146101485780632e554076146101a0575b600080fd5b6101466004803603604081101561011057600080fd5b8101908080359060200190929190803573ffffffffffffffffffffffffffffffffffffffff169060200190929190505050610b43565b005b61018a6004803603602081101561015e57600080fd5b81019080803573ffffffffffffffffffffffffffffffffffffffff16906020019092919050505061100b565b6040518082815260200191505060405180910390f35b610259600480360360208110156101b657600080fd5b81019080803590602001906401000000008111156101d357600080fd5b8201836020820111156101e557600080fd5b8035906020019184600183028401116401000000008311171561020757600080fd5b91908080601f016020809104026020016040519081016040528093929190818152602001838380828437600081840152601f19601f820116905080830192505050505050509192919290505050611057565b005b6102a76004803603604081101561027157600080fd5b81019080803573ffffffffffffffffffffffffffffffffffffffff1690602001909291908035906020019092919050505061117a565b604051808673ffffffffffffffffffffffffffffffffffffffff1673ffffffffffffffffffffffffffffffffffffffff1681526020018573ffffffffffffffffffffffffffffffffffffffff1673ffffffffffffffffffffffffffffffffffffffff1681526020018060200184815260200180602001838103835286818151815260200191508051906020019080838360005b8381101561035557808201518184015260208101905061033a565b50505050905090810190601f1680156103825780820380516001836020036101000a031916815260200191505b50838103825284818151815260200191508051906020019080838360005b838110156103bb5780820151818401526020810190506103a0565b50505050905090810190601f1680156103e85780820380516001836020036101000a031916815260200191505b5097505050505050505060405180910390f35b6104316004803603604081101561041157600080fd5b81019080803590602001909291908035906020019092919050505061133a565b604051808273ffffffffffffffffffffffffffffffffffffffff1673ffffffffffffffffffffffffffffffffffffffff16815260200191505060405180910390f35b6104b56004803603602081101561048957600080fd5b81019080803573ffffffffffffffffffffffffffffffffffffffff169060200190929190505050611385565b6040518082815260200191505060405180910390f35b6104d36113d0565b6040518082815260200191505060405180910390f35b610535600480360360408110156104ff57600080fd5b81019080803573ffffffffffffffffffffffffffffffffffffffff169060200190929190803590602001909291905050506113d6565b60405180848152602001806020018373ffffffffffffffffffffffffffffffffffffffff1673ffffffffffffffffffffffffffffffffffffffff168152602001828103825284818151815260200191508051906020019080838360005b838110156105ad578082015181840152602081019050610592565b50505050905090810190601f1680156105da5780820380516001836020036101000a031916815260200191505b5094505050505060405180910390f35b6106366004803603604081101561060057600080fd5b81019080803573ffffffffffffffffffffffffffffffffffffffff169060200190929190803590602001909291905050506114d2565b604051808673ffffffffffffffffffffffffffffffffffffffff1673ffffffffffffffffffffffffffffffffffffffff1681526020018573ffffffffffffffffffffffffffffffffffffffff1673ffffffffffffffffffffffffffffffffffffffff1681526020018060200184815260200180602001838103835286818151815260200191508051906020019080838360005b838110156106e45780820151818401526020810190506106c9565b50505050905090810190601f1680156107115780820380516001836020036101000a031916815260200191505b50838103825284818151815260200191508051906020019080838360005b8381101561074a57808201518184015260208101905061072f565b50505050905090810190601f1680156107775780820380516001836020036101000a031916815260200191505b5097505050505050505060405180910390f35b6107d6600480360360408110156107a057600080fd5b81019080803573ffffffffffffffffffffffffffffffffffffffff16906020019092919080359060200190929190505050611692565b60405180848152602001806020018373ffffffffffffffffffffffffffffffffffffffff1673ffffffffffffffffffffffffffffffffffffffff168152602001828103825284818151815260200191508051906020019080838360005b8381101561084e578082015181840152602081019050610833565b50505050905090810190601f16801561087b5780820380516001836020036101000a031916815260200191505b5094505050505060405180910390f35b6108cd600480360360208110156108a157600080fd5b81019080803573ffffffffffffffffffffffffffffffffffffffff16906020019092919050505061178e565b6040518082815260200191505060405180910390f35b61090f600480360360208110156108f957600080fd5b81019080803590602001909291905050506117da565b6040518082815260200191505060405180910390f35b610a9f6004803603608081101561093b57600080fd5b81019080803573ffffffffffffffffffffffffffffffffffffffff1690602001909291908035906020019064010000000081111561097857600080fd5b82018360208201111561098a57600080fd5b803590602001918460018302840111640100000000831117156109ac57600080fd5b91908080601f016020809104026020016040519081016040528093929190818152602001838380828437600081840152601f19601f8201169050808301925050505050505091929192908035906020019092919080359060200190640100000000811115610a1957600080fd5b820183602082011115610a2b57600080fd5b80359060200191846001830284011164010000000083111715610a4d57600080fd5b91908080601f016020809104026020016040519081016040528093929190818152602001838380828437600081840152601f19601f8201169050808301925050505050505091929192905050506117fa565b005b610aa9611b23565b604051808273ffffffffffffffffffffffffffffffffffffffff1673ffffffffffffffffffffffffffffffffffffffff16815260200191505060405180910390f35b610b2d60048036036020811015610b0157600080fd5b81019080803573ffffffffffffffffffffffffffffffffffffffff169060200190929190505050611b49565b6040518082815260200191505060405180910390f35b600115610bb8576040517f08c379a00000000000000000000000000000000000000000000000000000000081526004018080602001828103825260108152602001807f4e6f20636f7572736520666f756e64210000000000000000000000000000000081525060200191505060405180910390fd5b6060600260003373ffffffffffffffffffffffffffffffffffffffff1673ffffffffffffffffffffffffffffffffffffffff168152602001908152602001600020805480602002602001604051908101604052809291908181526020016000905b82821015610d4d578382906000526020600020906003020160405180606001604052908160008201548152602001600182018054600181600116156101000203166002900480601f016020809104026020016040519081016040528092919081815260200182805460018160011615610100020316600290048015610cdf5780601f10610cb457610100808354040283529160200191610cdf565b820191906000526020600020905b815481529060010190602001808311610cc257829003601f168201915b505050505081526020016002820160009054906101000a900473ffffffffffffffffffffffffffffffffffffffff1673ffffffffffffffffffffffffffffffffffffffff1673ffffffffffffffffffffffffffffffffffffffff168152505081526020019060010190610c19565b5050505090506000815190506000809050610d66611cab565b60008090505b83811015610dbf5786858281518110610d8157fe5b6020026020010151600001511415610db25760019250848181518110610da357fe5b60200260200101519150610dbf565b8080600101915050610d6c565b5081610e33576040517f08c379a00000000000000000000000000000000000000000000000000000000081526004018080602001828103825260168152602001807f436f7572736520646f6573206e6f74206578697374210000000000000000000081525060200191505060405180910390fd5b610e3d8686611b95565b15610eb0576040517f08c379a000000000000000000000000000000000000000000000000000000000815260040180806020018281038252601e8152602001807f5061727469636970616e7420616c726561647920696e20636f7572736521000081525060200191505060405180910390fd5b600460008781526020019081526020016000208590806001815401808255809150509060018203906000526020600020016000909192909190916101000a81548173ffffffffffffffffffffffffffffffffffffffff021916908373ffffffffffffffffffffffffffffffffffffffff16021790555050600360008673ffffffffffffffffffffffffffffffffffffffff1673ffffffffffffffffffffffffffffffffffffffff1681526020019081526020016000208190806001815401808255809150509060018203906000526020600020906003020160009091929091909150600082015181600001556020820151816001019080519060200190610fb8929190611ce2565b5060408201518160020160006101000a81548173ffffffffffffffffffffffffffffffffffffffff021916908373ffffffffffffffffffffffffffffffffffffffff160217905550505050505050505050565b6000600360008373ffffffffffffffffffffffffffffffffffffffff1673ffffffffffffffffffffffffffffffffffffffff168152602001908152602001600020805490509050919050565b600260003373ffffffffffffffffffffffffffffffffffffffff1673ffffffffffffffffffffffffffffffffffffffff168152602001908152602001600020604051806060016040528060055481526020018381526020013373ffffffffffffffffffffffffffffffffffffffff168152509080600181540180825580915050906001820390600052602060002090600302016000909192909190915060008201518160000155602082015181600101908051906020019061111a929190611ce2565b5060408201518160020160006101000a81548173ffffffffffffffffffffffffffffffffffffffff021916908373ffffffffffffffffffffffffffffffffffffffff16021790555050505060056000815480929190600101919050555050565b6001602052816000526040600020818154811061119357fe5b9060005260206000209060050201600091509150508060000160009054906101000a900473ffffffffffffffffffffffffffffffffffffffff16908060010160009054906101000a900473ffffffffffffffffffffffffffffffffffffffff1690806002018054600181600116156101000203166002900480601f01602080910402602001604051908101604052809291908181526020018280546001816001161561010002031660029004801561128c5780601f106112615761010080835404028352916020019161128c565b820191906000526020600020905b81548152906001019060200180831161126f57829003601f168201915b505050505090806003015490806004018054600181600116156101000203166002900480601f0160208091040260200160405190810160405280929190818152602001828054600181600116156101000203166002900480156113305780601f1061130557610100808354040283529160200191611330565b820191906000526020600020905b81548152906001019060200180831161131357829003601f168201915b5050505050905085565b6004602052816000526040600020818154811061135357fe5b906000526020600020016000915091509054906101000a900473ffffffffffffffffffffffffffffffffffffffff1681565b60008060008373ffffffffffffffffffffffffffffffffffffffff1673ffffffffffffffffffffffffffffffffffffffff168152602001908152602001600020805490509050919050565b60055481565b600360205281600052604060002081815481106113ef57fe5b906000526020600020906003020160009150915050806000015490806001018054600181600116156101000203166002900480601f0160208091040260200160405190810160405280929190818152602001828054600181600116156101000203166002900480156114a25780601f10611477576101008083540402835291602001916114a2565b820191906000526020600020905b81548152906001019060200180831161148557829003601f168201915b5050505050908060020160009054906101000a900473ffffffffffffffffffffffffffffffffffffffff16905083565b600060205281600052604060002081815481106114eb57fe5b9060005260206000209060050201600091509150508060000160009054906101000a900473ffffffffffffffffffffffffffffffffffffffff16908060010160009054906101000a900473ffffffffffffffffffffffffffffffffffffffff1690806002018054600181600116156101000203166002900480601f0160208091040260200160405190810160405280929190818152602001828054600181600116156101000203166002900480156115e45780601f106115b9576101008083540402835291602001916115e4565b820191906000526020600020905b8154815290600101906020018083116115c757829003601f168201915b505050505090806003015490806004018054600181600116156101000203166002900480601f0160208091040260200160405190810160405280929190818152602001828054600181600116156101000203166002900480156116885780601f1061165d57610100808354040283529160200191611688565b820191906000526020600020905b81548152906001019060200180831161166b57829003601f168201915b5050505050905085565b600260205281600052604060002081815481106116ab57fe5b906000526020600020906003020160009150915050806000015490806001018054600181600116156101000203166002900480601f01602080910402602001604051908101604052809291908181526020018280546001816001161561010002031660029004801561175e5780601f106117335761010080835404028352916020019161175e565b820191906000526020600020905b81548152906001019060200180831161174157829003601f168201915b5050505050908060020160009054906101000a900473ffffffffffffffffffffffffffffffffffffffff16905083565b6000600260008373ffffffffffffffffffffffffffffffffffffffff1673ffffffffffffffffffffffffffffffffffffffff168152602001908152602001600020805490509050919050565b600060046000838152602001908152602001600020805490509050919050565b600160008573ffffffffffffffffffffffffffffffffffffffff1673ffffffffffffffffffffffffffffffffffffffff1681526020019081526020016000206040518060a001604052803373ffffffffffffffffffffffffffffffffffffffff1681526020018673ffffffffffffffffffffffffffffffffffffffff168152602001858152602001848152602001838152509080600181540180825580915050906001820390600052602060002090600502016000909192909190915060008201518160000160006101000a81548173ffffffffffffffffffffffffffffffffffffffff021916908373ffffffffffffffffffffffffffffffffffffffff16021790555060208201518160010160006101000a81548173ffffffffffffffffffffffffffffffffffffffff021916908373ffffffffffffffffffffffffffffffffffffffff1602179055506040820151816002019080519060200190611961929190611ce2565b50606082015181600301556080820151816004019080519060200190611988929190611ce2565b505050506000803373ffffffffffffffffffffffffffffffffffffffff1673ffffffffffffffffffffffffffffffffffffffff1681526020019081526020016000206040518060a001604052803373ffffffffffffffffffffffffffffffffffffffff1681526020018673ffffffffffffffffffffffffffffffffffffffff168152602001858152602001848152602001838152509080600181540180825580915050906001820390600052602060002090600502016000909192909190915060008201518160000160006101000a81548173ffffffffffffffffffffffffffffffffffffffff021916908373ffffffffffffffffffffffffffffffffffffffff16021790555060208201518160010160006101000a81548173ffffffffffffffffffffffffffffffffffffffff021916908373ffffffffffffffffffffffffffffffffffffffff1602179055506040820151816002019080519060200190611af2929190611ce2565b50606082015181600301556080820151816004019080519060200190611b19929190611ce2565b5050505050505050565b600660009054906101000a900473ffffffffffffffffffffffffffffffffffffffff1681565b6000600160008373ffffffffffffffffffffffffffffffffffffffff1673ffffffffffffffffffffffffffffffffffffffff168152602001908152602001600020805490509050919050565b6000606060046000858152602001908152602001600020805480602002602001604051908101604052809291908181526020018280548015611c2c57602002820191906000526020600020905b8160009054906101000a900473ffffffffffffffffffffffffffffffffffffffff1673ffffffffffffffffffffffffffffffffffffffff1681526020019060010190808311611be2575b5050505050905060005b8151811015611c9e578373ffffffffffffffffffffffffffffffffffffffff16828281518110611c6257fe5b602002602001015173ffffffffffffffffffffffffffffffffffffffff161415611c9157600192505050611ca5565b8080600101915050611c36565b5060009150505b92915050565b60405180606001604052806000815260200160608152602001600073ffffffffffffffffffffffffffffffffffffffff1681525090565b828054600181600116156101000203166002900490600052602060002090601f016020900481019282601f10611d2357805160ff1916838001178555611d51565b82800160010185558215611d51579182015b82811115611d50578251825591602001919060010190611d35565b5b509050611d5e9190611d62565b5090565b611d8491905b80821115611d80576000816000905550600101611d68565b5090565b9056fea265627a7a72315820be46b5327bce67b4619cea910f00e7eaf43decbc7f9eed7eb1ab2c9c1d2efe9064736f6c63430005100032",
  "source": "pragma solidity 0.5.16;\n\ncontract Certification {\n\n    struct Certifate {\n        address publisher;\n        address participant;\n        string title;\n        uint courseId;\n        string course;\n    }\n\n    struct Course {\n        uint id;\n        string title;\n        address issuer;\n    }\n\n    // map issuer address to Certifate to get own created Certifates\n    mapping(address => Certifate[]) public issuerCertificates;\n    // map participant to Certifate to get received Certifates\n    mapping(address => Certifate[]) public participantCertificates;\n\n    // map issuer address to Courses to get own created Courses\n    mapping(address => Course[]) public issuerCourses;\n    // map participant to Courses to get Courses where the user is a participant\n    mapping(address => Course[]) public participantCourses;\n    \n    // map Course ID to participant address for issuer to get all participants of a course\n    mapping(uint => address[]) public courseParticipants;\n\n    uint public courseCount;\n    address public contractAddress = msg.sender;\n\n    function addCertificate (address _participant, string memory _title, uint _courseId, string memory _courseTitle) public {\n        participantCertificates[_participant].push(\n            Certifate(msg.sender, _participant, _title, _courseId, _courseTitle)\n        );\n        issuerCertificates[msg.sender].push(\n            Certifate(msg.sender, _participant, _title, _courseId, _courseTitle)\n        );\n    }\n\n    function getIssuerCertificateCount (address _user) public view returns (uint count){\n        return issuerCertificates[_user].length;\n    }\n    \n    function getParticipantCertificateCount (address _user) public view returns (uint count){\n        return participantCertificates[_user].length;\n    }\n\n    function getIssuerCourseCount (address _issuer) public view returns (uint count){\n        return issuerCourses[_issuer].length;\n    }\n\n    function getParticipantCourseCount(address _participant) public view returns (uint count) {\n        return participantCourses[_participant].length;\n    }\n\n    function getCourseParticipantCount(uint _courseId) public view returns (uint count){\n        return courseParticipants[_courseId].length;\n    }\n\n    function addCourse (string memory _title) public {\n        issuerCourses[msg.sender].push(\n            Course(courseCount, _title, msg.sender)\n        );\n        courseCount++;\n    }\n\n    function addParticipant(uint _courseId, address _participant) public {\n\n        if(true) { revert(\"No course found!\"); }\n        \n        // check if course exists\n        Course[] memory myCourses = issuerCourses[msg.sender];\n\n        uint length = myCourses.length;\n        bool exists = false;\n        Course memory course;\n        for (uint i = 0; i < length; i++) {\n            if (myCourses[i].id == _courseId) {\n                exists = true;\n                course = myCourses[i];\n                break;\n            }\n        }\n\n        require(exists, \"Course does not exist!\");\n        require(!participantExists(_courseId, _participant), \"Participant already in course!\");\n\n        courseParticipants[_courseId].push(_participant);\n        participantCourses[_participant].push(course);\n    }\n\n    function participantExists (uint _courseId, address _participant) private view returns (bool) {\n        address[] memory participants = courseParticipants[_courseId];\n        for (uint i; i < participants.length; i++) {\n            if (participants[i]==_participant) {\n                return true;\n            }\n        }\n        return false;\n    }\n\n\n    constructor() public {\n        addCourse(\"Web Engineering 1\"); // course id: 0\n        addCourse(\"Power Engineering 1\"); // course id: 1\n\n        address participantA = 0xdCad3a6d3569DF655070DEd06cb7A1b2Ccd1D3AF;\n        address participantB = 0xfC9a8E621F0D8821A770a5Cee4cEF8a90D387e8D;\n        \n        addParticipant(issuerCourses[msg.sender][0].id, participantA);\n        addParticipant(issuerCourses[msg.sender][0].id, participantB);\n        addParticipant(issuerCourses[msg.sender][1].id, participantB);\n\n        //issueCertificates(0, \"Web Engineer\");\n\n        // test adding of certificates\n        address receiver = 0x53bde67D3614B1f85eD12B77adA1c0Ca4e86b840;\n        addCertificate(receiver, \"Web Engineer\", issuerCourses[msg.sender][0].id, issuerCourses[msg.sender][0].title);\n        addCertificate(receiver, \"Power Engineer\", issuerCourses[msg.sender][1].id, issuerCourses[msg.sender][1].title);\n    }\n}",
  "sourcePath": "/Users/jacob/Desktop/Projects/Blockchain/BlockCertify/contracts/Certification.sol",
  "compiler": {
    "name": "solc",
    "version": "0.5.16+commit.9c3226ce.Emscripten.clang"
  },
  "schemaVersion": "3.3.1",
  "updatedAt": "2020-11-18T13:49:02.767Z",
  "devdoc": {
    "methods": {}
  },
  "userdoc": {
    "methods": {}
  }
}