{
  "contractName": "Certification",
  "abi": [
    {
      "inputs": [],
      "payable": false,
      "stateMutability": "nonpayable",
      "type": "constructor"
    },
    {
      "constant": true,
      "inputs": [],
      "name": "contractAddress",
      "outputs": [
        {
          "internalType": "address",
          "name": "",
          "type": "address"
        }
      ],
      "payable": false,
      "stateMutability": "view",
      "type": "function"
    },
    {
      "constant": true,
      "inputs": [
        {
          "internalType": "uint256",
          "name": "",
          "type": "uint256"
        }
      ],
      "name": "courseCertificated",
      "outputs": [
        {
          "internalType": "bool",
          "name": "",
          "type": "bool"
        }
      ],
      "payable": false,
      "stateMutability": "view",
      "type": "function"
    },
    {
      "constant": true,
      "inputs": [],
      "name": "courseCount",
      "outputs": [
        {
          "internalType": "uint256",
          "name": "",
          "type": "uint256"
        }
      ],
      "payable": false,
      "stateMutability": "view",
      "type": "function"
    },
    {
      "constant": true,
      "inputs": [
        {
          "internalType": "uint256",
          "name": "",
          "type": "uint256"
        }
      ],
      "name": "courses",
      "outputs": [
        {
          "internalType": "uint256",
          "name": "id",
          "type": "uint256"
        },
        {
          "internalType": "string",
          "name": "title",
          "type": "string"
        },
        {
          "internalType": "address",
          "name": "issuer",
          "type": "address"
        }
      ],
      "payable": false,
      "stateMutability": "view",
      "type": "function"
    },
    {
      "constant": true,
      "inputs": [
        {
          "internalType": "address",
          "name": "",
          "type": "address"
        },
        {
          "internalType": "uint256",
          "name": "",
          "type": "uint256"
        }
      ],
      "name": "issuerCertificates",
      "outputs": [
        {
          "internalType": "address",
          "name": "publisher",
          "type": "address"
        },
        {
          "internalType": "address",
          "name": "participant",
          "type": "address"
        },
        {
          "internalType": "string",
          "name": "title",
          "type": "string"
        },
        {
          "internalType": "uint256",
          "name": "courseId",
          "type": "uint256"
        },
        {
          "internalType": "string",
          "name": "course",
          "type": "string"
        },
        {
          "internalType": "string",
          "name": "imageId",
          "type": "string"
        }
      ],
      "payable": false,
      "stateMutability": "view",
      "type": "function"
    },
    {
      "constant": true,
      "inputs": [
        {
          "internalType": "address",
          "name": "",
          "type": "address"
        },
        {
          "internalType": "uint256",
          "name": "",
          "type": "uint256"
        }
      ],
      "name": "issuerCourses",
      "outputs": [
        {
          "internalType": "uint256",
          "name": "",
          "type": "uint256"
        }
      ],
      "payable": false,
      "stateMutability": "view",
      "type": "function"
    },
    {
      "constant": true,
      "inputs": [
        {
          "internalType": "address",
          "name": "",
          "type": "address"
        },
        {
          "internalType": "uint256",
          "name": "",
          "type": "uint256"
        }
      ],
      "name": "participantCertificates",
      "outputs": [
        {
          "internalType": "address",
          "name": "publisher",
          "type": "address"
        },
        {
          "internalType": "address",
          "name": "participant",
          "type": "address"
        },
        {
          "internalType": "string",
          "name": "title",
          "type": "string"
        },
        {
          "internalType": "uint256",
          "name": "courseId",
          "type": "uint256"
        },
        {
          "internalType": "string",
          "name": "course",
          "type": "string"
        },
        {
          "internalType": "string",
          "name": "imageId",
          "type": "string"
        }
      ],
      "payable": false,
      "stateMutability": "view",
      "type": "function"
    },
    {
      "constant": true,
      "inputs": [
        {
          "internalType": "address",
          "name": "",
          "type": "address"
        },
        {
          "internalType": "uint256",
          "name": "",
          "type": "uint256"
        }
      ],
      "name": "participantCourses",
      "outputs": [
        {
          "internalType": "uint256",
          "name": "",
          "type": "uint256"
        }
      ],
      "payable": false,
      "stateMutability": "view",
      "type": "function"
    },
    {
      "constant": false,
      "inputs": [
        {
          "internalType": "string",
          "name": "_title",
          "type": "string"
        },
        {
          "internalType": "uint256",
          "name": "_courseId",
          "type": "uint256"
        },
        {
          "internalType": "string",
          "name": "_courseTitle",
          "type": "string"
        },
        {
          "internalType": "string",
          "name": "_imageId",
          "type": "string"
        }
      ],
      "name": "addCourseCertificates",
      "outputs": [],
      "payable": false,
      "stateMutability": "nonpayable",
      "type": "function"
    },
    {
      "constant": true,
      "inputs": [
        {
          "internalType": "address",
          "name": "_user",
          "type": "address"
        }
      ],
      "name": "getIssuerCertificateCount",
      "outputs": [
        {
          "internalType": "uint256",
          "name": "count",
          "type": "uint256"
        }
      ],
      "payable": false,
      "stateMutability": "view",
      "type": "function"
    },
    {
      "constant": true,
      "inputs": [
        {
          "internalType": "address",
          "name": "_user",
          "type": "address"
        }
      ],
      "name": "getParticipantCertificateCount",
      "outputs": [
        {
          "internalType": "uint256",
          "name": "count",
          "type": "uint256"
        }
      ],
      "payable": false,
      "stateMutability": "view",
      "type": "function"
    },
    {
      "constant": true,
      "inputs": [
        {
          "internalType": "address",
          "name": "_issuer",
          "type": "address"
        }
      ],
      "name": "getIssuerCourseCount",
      "outputs": [
        {
          "internalType": "uint256",
          "name": "count",
          "type": "uint256"
        }
      ],
      "payable": false,
      "stateMutability": "view",
      "type": "function"
    },
    {
      "constant": true,
      "inputs": [
        {
          "internalType": "address",
          "name": "_participant",
          "type": "address"
        }
      ],
      "name": "getParticipantCourseCount",
      "outputs": [
        {
          "internalType": "uint256",
          "name": "count",
          "type": "uint256"
        }
      ],
      "payable": false,
      "stateMutability": "view",
      "type": "function"
    },
    {
      "constant": true,
      "inputs": [
        {
          "internalType": "uint256",
          "name": "_courseId",
          "type": "uint256"
        }
      ],
      "name": "getCourseParticipantCount",
      "outputs": [
        {
          "internalType": "uint256",
          "name": "count",
          "type": "uint256"
        }
      ],
      "payable": false,
      "stateMutability": "view",
      "type": "function"
    },
    {
      "constant": false,
      "inputs": [
        {
          "internalType": "string",
          "name": "_title",
          "type": "string"
        }
      ],
      "name": "addCourse",
      "outputs": [],
      "payable": false,
      "stateMutability": "nonpayable",
      "type": "function"
    },
    {
      "constant": false,
      "inputs": [
        {
          "internalType": "uint256",
          "name": "_courseId",
          "type": "uint256"
        },
        {
          "internalType": "address",
          "name": "_participant",
          "type": "address"
        }
      ],
      "name": "addParticipant",
      "outputs": [],
      "payable": false,
      "stateMutability": "nonpayable",
      "type": "function"
    }
  ],
  "bytecode": "0x608060405233600760006101000a81548173ffffffffffffffffffffffffffffffffffffffff021916908373ffffffffffffffffffffffffffffffffffffffff1602179055503480156200005257600080fd5b50620000996040518060400160405280601181526020017f57656220456e67696e656572696e6720310000000000000000000000000000008152506200016c60201b60201c565b620000df6040518060400160405280601381526020017f506f77657220456e67696e656572696e672031000000000000000000000000008152506200016c60201b60201c565b600073dcad3a6d3569df655070ded06cb7a1b2ccd1d3af9050600073fc9a8e621f0d8821a770a5cee4cef8a90d387e8d905062000124600083620002fd60201b60201c565b62000137600082620002fd60201b60201c565b6200014a600182620002fd60201b60201c565b60007353bde67d3614b1f85ed12b77ada1c0ca4e86b84090505050506200096f565b604051806080016040528060065481526020018281526020013373ffffffffffffffffffffffffffffffffffffffff168152602001600a604051908082528060200260200182016040528015620001d25781602001602082028038833980820191505090505b508152506005600060065481526020019081526020016000206000820151816000015560208201518160010190805190602001906200021392919062000688565b5060408201518160020160006101000a81548173ffffffffffffffffffffffffffffffffffffffff021916908373ffffffffffffffffffffffffffffffffffffffff1602179055506060820151816003019080519060200190620002799291906200070f565b50905050600260003373ffffffffffffffffffffffffffffffffffffffff1673ffffffffffffffffffffffffffffffffffffffff168152602001908152602001600020600654908060018154018082558091505090600182039060005260206000200160009091929091909150555060066000815480929190600101919050555050565b6000600260003373ffffffffffffffffffffffffffffffffffffffff1673ffffffffffffffffffffffffffffffffffffffff168152602001908152602001600020805490501162000385576040517f08c379a00000000000000000000000000000000000000000000000000000000081526004016200037c906200091a565b60405180910390fd5b3373ffffffffffffffffffffffffffffffffffffffff166005600084815260200190815260200160002060020160009054906101000a900473ffffffffffffffffffffffffffffffffffffffff1673ffffffffffffffffffffffffffffffffffffffff16146200042c576040517f08c379a00000000000000000000000000000000000000000000000000000000081526004016200042390620008f8565b60405180910390fd5b6200043e82826200056860201b60201c565b1562000481576040517f08c379a000000000000000000000000000000000000000000000000000000000815260040162000478906200093c565b60405180910390fd5b600560008381526020019081526020016000206003018190806001815401808255809150509060018203906000526020600020016000909192909190916101000a81548173ffffffffffffffffffffffffffffffffffffffff021916908373ffffffffffffffffffffffffffffffffffffffff16021790555050600360008273ffffffffffffffffffffffffffffffffffffffff1673ffffffffffffffffffffffffffffffffffffffff1681526020019081526020016000208290806001815401808255809150509060018203906000526020600020016000909192909190915055505050565b60006060600560008581526020019081526020016000206003018054806020026020016040519081016040528092919081815260200182805480156200060457602002820191906000526020600020905b8160009054906101000a900473ffffffffffffffffffffffffffffffffffffffff1673ffffffffffffffffffffffffffffffffffffffff1681526020019060010190808311620005b9575b5050505050905060005b81518110156200067b578373ffffffffffffffffffffffffffffffffffffffff168282815181106200063c57fe5b602002602001015173ffffffffffffffffffffffffffffffffffffffff1614156200066d5760019250505062000682565b80806001019150506200060e565b5060009150505b92915050565b828054600181600116156101000203166002900490600052602060002090601f016020900481019282601f10620006cb57805160ff1916838001178555620006fc565b82800160010185558215620006fc579182015b82811115620006fb578251825591602001919060010190620006de565b5b5090506200070b91906200079e565b5090565b8280548282559060005260206000209081019282156200078b579160200282015b828111156200078a5782518260006101000a81548173ffffffffffffffffffffffffffffffffffffffff021916908373ffffffffffffffffffffffffffffffffffffffff1602179055509160200191906001019062000730565b5b5090506200079a9190620007c6565b5090565b620007c391905b80821115620007bf576000816000905550600101620007a5565b5090565b90565b6200080991905b808211156200080557600081816101000a81549073ffffffffffffffffffffffffffffffffffffffff021916905550600101620007cd565b5090565b90565b60006200081b6021836200095e565b91507f596f7520617265206e6f74206f776e6572206f66207468697320636f7572736560008301527f21000000000000000000000000000000000000000000000000000000000000006020830152604082019050919050565b6000620008836010836200095e565b91507f4e6f20636f7572736520666f756e6421000000000000000000000000000000006000830152602082019050919050565b6000620008c5601e836200095e565b91507f5061727469636970616e7420616c726561647920696e20636f757273652100006000830152602082019050919050565b6000602082019050818103600083015262000913816200080c565b9050919050565b60006020820190508181036000830152620009358162000874565b9050919050565b600060208201905081810360008301526200095781620008b6565b9050919050565b600082825260208201905092915050565b611c91806200097f6000396000f3fe608060405234801561001057600080fd5b50600436106101005760003560e01c8063947ff32411610097578063d167aa4211610066578063d167aa4214610303578063e019600814610333578063f6b4dfb414610363578063f850692f1461038157610100565b8063947ff3241461023c57806396f979d214610271578063b0362993146102a3578063b959097a146102d357610100565b8063355a8165116100d3578063355a816514610189578063401bcb0a146101be57806366055159146101ee5780638f0093101461020c57610100565b806318d85e53146101055780632a4b78dd146101215780632dcfa82a1461013d5780632e5540761461016d575b600080fd5b61011f600480360361011a9190810190611823565b6103b1565b005b61013b6004803603610136919081019061174f565b61060b565b005b610157600480360361015291908101906116a9565b610a7c565b6040516101649190611ab7565b60405180910390f35b6101876004803603610182919081019061170e565b610ac8565b005b6101a3600480360361019e91908101906116d2565b610c54565b6040516101b5969594939291906119c6565b60405180910390f35b6101d860048036036101d391908101906116a9565b610eb2565b6040516101e59190611ab7565b60405180910390f35b6101f6610efd565b6040516102039190611ab7565b60405180910390f35b610226600480360361022191908101906116d2565b610f03565b6040516102339190611ab7565b60405180910390f35b610256600480360361025191908101906116d2565b610f31565b604051610268969594939291906119c6565b60405180910390f35b61028b600480360361028691908101906117fa565b61118f565b60405161029a93929190611ad2565b60405180910390f35b6102bd60048036036102b891908101906116d2565b611271565b6040516102ca9190611ab7565b60405180910390f35b6102ed60048036036102e891908101906116a9565b61129f565b6040516102fa9190611ab7565b60405180910390f35b61031d600480360361031891908101906117fa565b6112eb565b60405161032a9190611a3c565b60405180910390f35b61034d600480360361034891908101906117fa565b61130b565b60405161035a9190611ab7565b60405180910390f35b61036b61132e565b60405161037891906119ab565b60405180910390f35b61039b600480360361039691908101906116a9565b611354565b6040516103a89190611ab7565b60405180910390f35b6000600260003373ffffffffffffffffffffffffffffffffffffffff1673ffffffffffffffffffffffffffffffffffffffff1681526020019081526020016000208054905011610436576040517f08c379a000000000000000000000000000000000000000000000000000000000815260040161042d90611a77565b60405180910390fd5b3373ffffffffffffffffffffffffffffffffffffffff166005600084815260200190815260200160002060020160009054906101000a900473ffffffffffffffffffffffffffffffffffffffff1673ffffffffffffffffffffffffffffffffffffffff16146104da576040517f08c379a00000000000000000000000000000000000000000000000000000000081526004016104d190611a57565b60405180910390fd5b6104e482826113a0565b15610524576040517f08c379a000000000000000000000000000000000000000000000000000000000815260040161051b90611a97565b60405180910390fd5b600560008381526020019081526020016000206003018190806001815401808255809150509060018203906000526020600020016000909192909190916101000a81548173ffffffffffffffffffffffffffffffffffffffff021916908373ffffffffffffffffffffffffffffffffffffffff16021790555050600360008273ffffffffffffffffffffffffffffffffffffffff1673ffffffffffffffffffffffffffffffffffffffff1681526020019081526020016000208290806001815401808255809150509060018203906000526020600020016000909192909190915055505050565b6060600560008581526020019081526020016000206003018054806020026020016040519081016040528092919081815260200182805480156106a357602002820191906000526020600020905b8160009054906101000a900473ffffffffffffffffffffffffffffffffffffffff1673ffffffffffffffffffffffffffffffffffffffff1681526020019060010190808311610659575b5050505050905060008090505b8151811015610a485760008282815181106106c757fe5b60200260200101519050600160008273ffffffffffffffffffffffffffffffffffffffff1673ffffffffffffffffffffffffffffffffffffffff1681526020019081526020016000206040518060c001604052803373ffffffffffffffffffffffffffffffffffffffff1681526020018373ffffffffffffffffffffffffffffffffffffffff168152602001898152602001888152602001878152602001868152509080600181540180825580915050906001820390600052602060002090600602016000909192909190915060008201518160000160006101000a81548173ffffffffffffffffffffffffffffffffffffffff021916908373ffffffffffffffffffffffffffffffffffffffff16021790555060208201518160010160006101000a81548173ffffffffffffffffffffffffffffffffffffffff021916908373ffffffffffffffffffffffffffffffffffffffff160217905550604082015181600201908051906020019061083e9291906114b9565b506060820151816003015560808201518160040190805190602001906108659291906114b9565b5060a08201518160050190805190602001906108829291906114b9565b505050506000803373ffffffffffffffffffffffffffffffffffffffff1673ffffffffffffffffffffffffffffffffffffffff1681526020019081526020016000206040518060c001604052803373ffffffffffffffffffffffffffffffffffffffff1681526020018373ffffffffffffffffffffffffffffffffffffffff168152602001898152602001888152602001878152602001868152509080600181540180825580915050906001820390600052602060002090600602016000909192909190915060008201518160000160006101000a81548173ffffffffffffffffffffffffffffffffffffffff021916908373ffffffffffffffffffffffffffffffffffffffff16021790555060208201518160010160006101000a81548173ffffffffffffffffffffffffffffffffffffffff021916908373ffffffffffffffffffffffffffffffffffffffff16021790555060408201518160020190805190602001906109f29291906114b9565b50606082015181600301556080820151816004019080519060200190610a199291906114b9565b5060a0820151816005019080519060200190610a369291906114b9565b505050505080806001019150506106b0565b5060016004600086815260200190815260200160002060006101000a81548160ff0219169083151502179055505050505050565b6000600360008373ffffffffffffffffffffffffffffffffffffffff1673ffffffffffffffffffffffffffffffffffffffff168152602001908152602001600020805490509050919050565b604051806080016040528060065481526020018281526020013373ffffffffffffffffffffffffffffffffffffffff168152602001600a604051908082528060200260200182016040528015610b2d5781602001602082028038833980820191505090505b50815250600560006006548152602001908152602001600020600082015181600001556020820151816001019080519060200190610b6c9291906114b9565b5060408201518160020160006101000a81548173ffffffffffffffffffffffffffffffffffffffff021916908373ffffffffffffffffffffffffffffffffffffffff1602179055506060820151816003019080519060200190610bd0929190611539565b50905050600260003373ffffffffffffffffffffffffffffffffffffffff1673ffffffffffffffffffffffffffffffffffffffff168152602001908152602001600020600654908060018154018082558091505090600182039060005260206000200160009091929091909150555060066000815480929190600101919050555050565b60016020528160005260406000208181548110610c6d57fe5b9060005260206000209060060201600091509150508060000160009054906101000a900473ffffffffffffffffffffffffffffffffffffffff16908060010160009054906101000a900473ffffffffffffffffffffffffffffffffffffffff1690806002018054600181600116156101000203166002900480601f016020809104026020016040519081016040528092919081815260200182805460018160011615610100020316600290048015610d665780601f10610d3b57610100808354040283529160200191610d66565b820191906000526020600020905b815481529060010190602001808311610d4957829003601f168201915b505050505090806003015490806004018054600181600116156101000203166002900480601f016020809104026020016040519081016040528092919081815260200182805460018160011615610100020316600290048015610e0a5780601f10610ddf57610100808354040283529160200191610e0a565b820191906000526020600020905b815481529060010190602001808311610ded57829003601f168201915b505050505090806005018054600181600116156101000203166002900480601f016020809104026020016040519081016040528092919081815260200182805460018160011615610100020316600290048015610ea85780601f10610e7d57610100808354040283529160200191610ea8565b820191906000526020600020905b815481529060010190602001808311610e8b57829003601f168201915b5050505050905086565b60008060008373ffffffffffffffffffffffffffffffffffffffff1673ffffffffffffffffffffffffffffffffffffffff168152602001908152602001600020805490509050919050565b60065481565b60036020528160005260406000208181548110610f1c57fe5b90600052602060002001600091509150505481565b60006020528160005260406000208181548110610f4a57fe5b9060005260206000209060060201600091509150508060000160009054906101000a900473ffffffffffffffffffffffffffffffffffffffff16908060010160009054906101000a900473ffffffffffffffffffffffffffffffffffffffff1690806002018054600181600116156101000203166002900480601f0160208091040260200160405190810160405280929190818152602001828054600181600116156101000203166002900480156110435780601f1061101857610100808354040283529160200191611043565b820191906000526020600020905b81548152906001019060200180831161102657829003601f168201915b505050505090806003015490806004018054600181600116156101000203166002900480601f0160208091040260200160405190810160405280929190818152602001828054600181600116156101000203166002900480156110e75780601f106110bc576101008083540402835291602001916110e7565b820191906000526020600020905b8154815290600101906020018083116110ca57829003601f168201915b505050505090806005018054600181600116156101000203166002900480601f0160208091040260200160405190810160405280929190818152602001828054600181600116156101000203166002900480156111855780601f1061115a57610100808354040283529160200191611185565b820191906000526020600020905b81548152906001019060200180831161116857829003601f168201915b5050505050905086565b6005602052806000526040600020600091509050806000015490806001018054600181600116156101000203166002900480601f0160208091040260200160405190810160405280929190818152602001828054600181600116156101000203166002900480156112415780601f1061121657610100808354040283529160200191611241565b820191906000526020600020905b81548152906001019060200180831161122457829003601f168201915b5050505050908060020160009054906101000a900473ffffffffffffffffffffffffffffffffffffffff16905083565b6002602052816000526040600020818154811061128a57fe5b90600052602060002001600091509150505481565b6000600260008373ffffffffffffffffffffffffffffffffffffffff1673ffffffffffffffffffffffffffffffffffffffff168152602001908152602001600020805490509050919050565b60046020528060005260406000206000915054906101000a900460ff1681565b600060056000838152602001908152602001600020600301805490509050919050565b600760009054906101000a900473ffffffffffffffffffffffffffffffffffffffff1681565b6000600160008373ffffffffffffffffffffffffffffffffffffffff1673ffffffffffffffffffffffffffffffffffffffff168152602001908152602001600020805490509050919050565b600060606005600085815260200190815260200160002060030180548060200260200160405190810160405280929190818152602001828054801561143a57602002820191906000526020600020905b8160009054906101000a900473ffffffffffffffffffffffffffffffffffffffff1673ffffffffffffffffffffffffffffffffffffffff16815260200190600101908083116113f0575b5050505050905060005b81518110156114ac578373ffffffffffffffffffffffffffffffffffffffff1682828151811061147057fe5b602002602001015173ffffffffffffffffffffffffffffffffffffffff16141561149f576001925050506114b3565b8080600101915050611444565b5060009150505b92915050565b828054600181600116156101000203166002900490600052602060002090601f016020900481019282601f106114fa57805160ff1916838001178555611528565b82800160010185558215611528579182015b8281111561152757825182559160200191906001019061150c565b5b50905061153591906115c3565b5090565b8280548282559060005260206000209081019282156115b2579160200282015b828111156115b15782518260006101000a81548173ffffffffffffffffffffffffffffffffffffffff021916908373ffffffffffffffffffffffffffffffffffffffff16021790555091602001919060010190611559565b5b5090506115bf91906115e8565b5090565b6115e591905b808211156115e15760008160009055506001016115c9565b5090565b90565b61162891905b8082111561162457600081816101000a81549073ffffffffffffffffffffffffffffffffffffffff0219169055506001016115ee565b5090565b90565b60008135905061163a81611c20565b92915050565b600082601f83011261165157600080fd5b813561166461165f82611b3d565b611b10565b9150808252602083016020830185838301111561168057600080fd5b61168b838284611bcd565b50505092915050565b6000813590506116a381611c37565b92915050565b6000602082840312156116bb57600080fd5b60006116c98482850161162b565b91505092915050565b600080604083850312156116e557600080fd5b60006116f38582860161162b565b925050602061170485828601611694565b9150509250929050565b60006020828403121561172057600080fd5b600082013567ffffffffffffffff81111561173a57600080fd5b61174684828501611640565b91505092915050565b6000806000806080858703121561176557600080fd5b600085013567ffffffffffffffff81111561177f57600080fd5b61178b87828801611640565b945050602061179c87828801611694565b935050604085013567ffffffffffffffff8111156117b957600080fd5b6117c587828801611640565b925050606085013567ffffffffffffffff8111156117e257600080fd5b6117ee87828801611640565b91505092959194509250565b60006020828403121561180c57600080fd5b600061181a84828501611694565b91505092915050565b6000806040838503121561183657600080fd5b600061184485828601611694565b92505060206118558582860161162b565b9150509250929050565b61186881611b85565b82525050565b61187781611b97565b82525050565b600061188882611b69565b6118928185611b74565b93506118a2818560208601611bdc565b6118ab81611c0f565b840191505092915050565b60006118c3602183611b74565b91507f596f7520617265206e6f74206f776e6572206f66207468697320636f7572736560008301527f21000000000000000000000000000000000000000000000000000000000000006020830152604082019050919050565b6000611929601083611b74565b91507f4e6f20636f7572736520666f756e6421000000000000000000000000000000006000830152602082019050919050565b6000611969601e83611b74565b91507f5061727469636970616e7420616c726561647920696e20636f757273652100006000830152602082019050919050565b6119a581611bc3565b82525050565b60006020820190506119c0600083018461185f565b92915050565b600060c0820190506119db600083018961185f565b6119e8602083018861185f565b81810360408301526119fa818761187d565b9050611a09606083018661199c565b8181036080830152611a1b818561187d565b905081810360a0830152611a2f818461187d565b9050979650505050505050565b6000602082019050611a51600083018461186e565b92915050565b60006020820190508181036000830152611a70816118b6565b9050919050565b60006020820190508181036000830152611a908161191c565b9050919050565b60006020820190508181036000830152611ab08161195c565b9050919050565b6000602082019050611acc600083018461199c565b92915050565b6000606082019050611ae7600083018661199c565b8181036020830152611af9818561187d565b9050611b08604083018461185f565b949350505050565b6000604051905081810181811067ffffffffffffffff82111715611b3357600080fd5b8060405250919050565b600067ffffffffffffffff821115611b5457600080fd5b601f19601f8301169050602081019050919050565b600081519050919050565b600082825260208201905092915050565b6000611b9082611ba3565b9050919050565b60008115159050919050565b600073ffffffffffffffffffffffffffffffffffffffff82169050919050565b6000819050919050565b82818337600083830152505050565b60005b83811015611bfa578082015181840152602081019050611bdf565b83811115611c09576000848401525b50505050565b6000601f19601f8301169050919050565b611c2981611b85565b8114611c3457600080fd5b50565b611c4081611bc3565b8114611c4b57600080fd5b5056fea365627a7a723158204885dc853f96b56d7b3c1a0958ed87b006d02b5a29f75e8455282fc61ebf51646c6578706572696d656e74616cf564736f6c63430005100040",
  "source": "pragma solidity 0.5.16;\npragma experimental ABIEncoderV2;\n\ncontract Certification {\n\n    struct Certifate {\n        address publisher;\n        address participant;\n        string title;\n        uint courseId;\n        string course;\n        string imageId;\n    }\n\n    struct Course {\n        uint id;\n        string title;\n        address issuer;\n\n        address[] participants;\n    }\n\n    // map issuer address to Certifate to get own created Certifates\n    mapping(address => Certifate[]) public issuerCertificates;\n    // map participant to Certifate to get received Certifates\n    mapping(address => Certifate[]) public participantCertificates;\n\n    // map issuer address to Courses to get own created Courses\n    mapping(address => uint[]) public issuerCourses;\n    // map participant to Courses to get Courses where the user is a participant\n    mapping(address => uint[]) public participantCourses;\n\n    mapping(uint => bool) public courseCertificated;\n\n    mapping(uint => Course) public courses;\n\n    uint public courseCount;\n    address public contractAddress = msg.sender;\n\n    function addCourseCertificates(string memory _title, uint _courseId, string memory _courseTitle, string memory _imageId) public {\n        address[] memory participants = courses[_courseId].participants;\n    \n        for (uint i = 0; i < participants.length; i++) {\n            address participant = participants[i];\n            \n            participantCertificates[participant].push(\n                Certifate(msg.sender, participant, _title, _courseId, _courseTitle, _imageId)\n            );\n\n            issuerCertificates[msg.sender].push(\n                Certifate(msg.sender, participant, _title, _courseId, _courseTitle, _imageId)\n            );\n        }\n\n        courseCertificated[_courseId] = true;\n    }\n\n    function getIssuerCertificateCount (address _user) public view returns (uint count){\n        return issuerCertificates[_user].length;\n    }\n    \n    function getParticipantCertificateCount (address _user) public view returns (uint count){\n        return participantCertificates[_user].length;\n    }\n\n    function getIssuerCourseCount (address _issuer) public view returns (uint count){\n        return issuerCourses[_issuer].length;\n    }\n\n    function getParticipantCourseCount(address _participant) public view returns (uint count) {\n        return participantCourses[_participant].length;\n    }\n\n    function getCourseParticipantCount(uint _courseId) public view returns (uint count){\n        return courses[_courseId].participants.length;\n    }\n\n    function addCourse (string memory _title) public {\n        courses[courseCount] = Course(courseCount, _title, msg.sender, new address[](10));\n        issuerCourses[msg.sender].push(courseCount);\n        courseCount++;\n    }\n\n    function addParticipant(uint _courseId, address _participant) public {\n\n        require(issuerCourses[msg.sender].length > 0, \"No course found!\");\n        require(courses[_courseId].issuer == msg.sender, \"You are not owner of this course!\");\n        require(!participantExists(_courseId, _participant), \"Participant already in course!\");\n\n        courses[_courseId].participants.push(_participant);\n        participantCourses[_participant].push(_courseId);\n    }\n\n    function participantExists (uint _courseId, address _participant) private view returns (bool) {\n        address[] memory participants = courses[_courseId].participants;\n        for (uint i; i < participants.length; i++) {\n            if (participants[i]==_participant) {\n                return true;\n            }\n        }\n        return false;\n    }\n\n\n    constructor() public {\n        addCourse(\"Web Engineering 1\"); // course id: 0\n        addCourse(\"Power Engineering 1\"); // course id: 1\n\n        address participantA = 0xdCad3a6d3569DF655070DEd06cb7A1b2Ccd1D3AF;\n        address participantB = 0xfC9a8E621F0D8821A770a5Cee4cEF8a90D387e8D;\n        \n        addParticipant(0, participantA);\n        addParticipant(0, participantB);\n        addParticipant(1, participantB);\n\n        //issueCertificates(0, \"Web Engineer\");\n\n        // test adding of certificates\n        address receiver = 0x53bde67D3614B1f85eD12B77adA1c0Ca4e86b840;\n    }\n}",
  "sourcePath": "/Users/jacob/Desktop/Projects/Blockchain/BlockCertify/contracts/Certification.sol",
  "compiler": {
    "name": "solc",
    "version": "0.5.16+commit.9c3226ce.Emscripten.clang"
  },
  "schemaVersion": "3.3.1",
  "updatedAt": "2020-11-19T13:18:58.282Z",
  "networkType": "ethereum",
  "devdoc": {
    "methods": {}
  },
  "userdoc": {
    "methods": {}
  }
}