{
  "contractName": "Certification",
  "abi": [
    {
      "inputs": [],
      "payable": false,
      "stateMutability": "nonpayable",
      "type": "constructor"
    },
    {
      "constant": true,
      "inputs": [],
      "name": "contractAddress",
      "outputs": [
        {
          "internalType": "address",
          "name": "",
          "type": "address"
        }
      ],
      "payable": false,
      "stateMutability": "view",
      "type": "function"
    },
    {
      "constant": true,
      "inputs": [
        {
          "internalType": "uint256",
          "name": "",
          "type": "uint256"
        }
      ],
      "name": "courseCertificated",
      "outputs": [
        {
          "internalType": "bool",
          "name": "",
          "type": "bool"
        }
      ],
      "payable": false,
      "stateMutability": "view",
      "type": "function"
    },
    {
      "constant": true,
      "inputs": [],
      "name": "courseCount",
      "outputs": [
        {
          "internalType": "uint256",
          "name": "",
          "type": "uint256"
        }
      ],
      "payable": false,
      "stateMutability": "view",
      "type": "function"
    },
    {
      "constant": true,
      "inputs": [
        {
          "internalType": "uint256",
          "name": "",
          "type": "uint256"
        }
      ],
      "name": "courses",
      "outputs": [
        {
          "internalType": "uint256",
          "name": "id",
          "type": "uint256"
        },
        {
          "internalType": "string",
          "name": "title",
          "type": "string"
        },
        {
          "internalType": "address",
          "name": "issuer",
          "type": "address"
        },
        {
          "internalType": "uint256",
          "name": "participantCount",
          "type": "uint256"
        }
      ],
      "payable": false,
      "stateMutability": "view",
      "type": "function"
    },
    {
      "constant": true,
      "inputs": [
        {
          "internalType": "address",
          "name": "",
          "type": "address"
        },
        {
          "internalType": "uint256",
          "name": "",
          "type": "uint256"
        }
      ],
      "name": "issuerCertificates",
      "outputs": [
        {
          "internalType": "address",
          "name": "publisher",
          "type": "address"
        },
        {
          "internalType": "address",
          "name": "participant",
          "type": "address"
        },
        {
          "internalType": "string",
          "name": "title",
          "type": "string"
        },
        {
          "internalType": "uint256",
          "name": "courseId",
          "type": "uint256"
        },
        {
          "internalType": "string",
          "name": "course",
          "type": "string"
        },
        {
          "internalType": "string",
          "name": "imageId",
          "type": "string"
        }
      ],
      "payable": false,
      "stateMutability": "view",
      "type": "function"
    },
    {
      "constant": true,
      "inputs": [
        {
          "internalType": "address",
          "name": "",
          "type": "address"
        },
        {
          "internalType": "uint256",
          "name": "",
          "type": "uint256"
        }
      ],
      "name": "issuerCourses",
      "outputs": [
        {
          "internalType": "uint256",
          "name": "",
          "type": "uint256"
        }
      ],
      "payable": false,
      "stateMutability": "view",
      "type": "function"
    },
    {
      "constant": true,
      "inputs": [
        {
          "internalType": "address",
          "name": "",
          "type": "address"
        },
        {
          "internalType": "uint256",
          "name": "",
          "type": "uint256"
        }
      ],
      "name": "participantCertificates",
      "outputs": [
        {
          "internalType": "address",
          "name": "publisher",
          "type": "address"
        },
        {
          "internalType": "address",
          "name": "participant",
          "type": "address"
        },
        {
          "internalType": "string",
          "name": "title",
          "type": "string"
        },
        {
          "internalType": "uint256",
          "name": "courseId",
          "type": "uint256"
        },
        {
          "internalType": "string",
          "name": "course",
          "type": "string"
        },
        {
          "internalType": "string",
          "name": "imageId",
          "type": "string"
        }
      ],
      "payable": false,
      "stateMutability": "view",
      "type": "function"
    },
    {
      "constant": true,
      "inputs": [
        {
          "internalType": "address",
          "name": "",
          "type": "address"
        },
        {
          "internalType": "uint256",
          "name": "",
          "type": "uint256"
        }
      ],
      "name": "participantCourses",
      "outputs": [
        {
          "internalType": "uint256",
          "name": "",
          "type": "uint256"
        }
      ],
      "payable": false,
      "stateMutability": "view",
      "type": "function"
    },
    {
      "constant": false,
      "inputs": [
        {
          "internalType": "string",
          "name": "_title",
          "type": "string"
        },
        {
          "internalType": "uint256",
          "name": "_courseId",
          "type": "uint256"
        },
        {
          "internalType": "string",
          "name": "_courseTitle",
          "type": "string"
        },
        {
          "internalType": "string",
          "name": "_imageId",
          "type": "string"
        }
      ],
      "name": "addCourseCertificates",
      "outputs": [],
      "payable": false,
      "stateMutability": "nonpayable",
      "type": "function"
    },
    {
      "constant": true,
      "inputs": [
        {
          "internalType": "address",
          "name": "_user",
          "type": "address"
        }
      ],
      "name": "getIssuerCertificateCount",
      "outputs": [
        {
          "internalType": "uint256",
          "name": "count",
          "type": "uint256"
        }
      ],
      "payable": false,
      "stateMutability": "view",
      "type": "function"
    },
    {
      "constant": true,
      "inputs": [
        {
          "internalType": "address",
          "name": "_user",
          "type": "address"
        }
      ],
      "name": "getParticipantCertificateCount",
      "outputs": [
        {
          "internalType": "uint256",
          "name": "count",
          "type": "uint256"
        }
      ],
      "payable": false,
      "stateMutability": "view",
      "type": "function"
    },
    {
      "constant": true,
      "inputs": [
        {
          "internalType": "address",
          "name": "_issuer",
          "type": "address"
        }
      ],
      "name": "getIssuerCourseCount",
      "outputs": [
        {
          "internalType": "uint256",
          "name": "count",
          "type": "uint256"
        }
      ],
      "payable": false,
      "stateMutability": "view",
      "type": "function"
    },
    {
      "constant": true,
      "inputs": [
        {
          "internalType": "address",
          "name": "_participant",
          "type": "address"
        }
      ],
      "name": "getParticipantCourseCount",
      "outputs": [
        {
          "internalType": "uint256",
          "name": "count",
          "type": "uint256"
        }
      ],
      "payable": false,
      "stateMutability": "view",
      "type": "function"
    },
    {
      "constant": true,
      "inputs": [
        {
          "internalType": "uint256",
          "name": "_courseId",
          "type": "uint256"
        },
        {
          "internalType": "uint256",
          "name": "index",
          "type": "uint256"
        }
      ],
      "name": "getCourseParticipantAt",
      "outputs": [
        {
          "internalType": "address",
          "name": "count",
          "type": "address"
        }
      ],
      "payable": false,
      "stateMutability": "view",
      "type": "function"
    },
    {
      "constant": false,
      "inputs": [
        {
          "internalType": "string",
          "name": "_title",
          "type": "string"
        }
      ],
      "name": "addCourse",
      "outputs": [],
      "payable": false,
      "stateMutability": "nonpayable",
      "type": "function"
    },
    {
      "constant": false,
      "inputs": [
        {
          "internalType": "uint256",
          "name": "_courseId",
          "type": "uint256"
        },
        {
          "internalType": "address",
          "name": "_participant",
          "type": "address"
        }
      ],
      "name": "addParticipant",
      "outputs": [],
      "payable": false,
      "stateMutability": "nonpayable",
      "type": "function"
    }
  ],
  "bytecode": "0x608060405233600760006101000a81548173ffffffffffffffffffffffffffffffffffffffff021916908373ffffffffffffffffffffffffffffffffffffffff1602179055503480156200005257600080fd5b50620000996040518060400160405280601181526020017f57656220456e67696e656572696e6720310000000000000000000000000000008152506200016c60201b60201c565b620000df6040518060400160405280601381526020017f506f77657220456e67696e656572696e672031000000000000000000000000008152506200016c60201b60201c565b600073dcad3a6d3569df655070ded06cb7a1b2ccd1d3af9050600073fc9a8e621f0d8821a770a5cee4cef8a90d387e8d9050620001246000836200030e60201b60201c565b620001376000826200030e60201b60201c565b6200014a6001826200030e60201b60201c565b60007353bde67d3614b1f85ed12b77ada1c0ca4e86b8409050505050620009a6565b6040518060a0016040528060065481526020018281526020013373ffffffffffffffffffffffffffffffffffffffff168152602001600081526020016000604051908082528060200260200182016040528015620001d95781602001602082028038833980820191505090505b508152506005600060065481526020019081526020016000206000820151816000015560208201518160010190805190602001906200021a929190620006bf565b5060408201518160020160006101000a81548173ffffffffffffffffffffffffffffffffffffffff021916908373ffffffffffffffffffffffffffffffffffffffff1602179055506060820151816003015560808201518160040190805190602001906200028a92919062000746565b50905050600260003373ffffffffffffffffffffffffffffffffffffffff1673ffffffffffffffffffffffffffffffffffffffff168152602001908152602001600020600654908060018154018082558091505090600182039060005260206000200160009091929091909150555060066000815480929190600101919050555050565b6000600260003373ffffffffffffffffffffffffffffffffffffffff1673ffffffffffffffffffffffffffffffffffffffff168152602001908152602001600020805490501162000396576040517f08c379a00000000000000000000000000000000000000000000000000000000081526004016200038d9062000951565b60405180910390fd5b3373ffffffffffffffffffffffffffffffffffffffff166005600084815260200190815260200160002060020160009054906101000a900473ffffffffffffffffffffffffffffffffffffffff1673ffffffffffffffffffffffffffffffffffffffff16146200043d576040517f08c379a000000000000000000000000000000000000000000000000000000000815260040162000434906200092f565b60405180910390fd5b6200044f82826200059f60201b60201c565b1562000492576040517f08c379a0000000000000000000000000000000000000000000000000000000008152600401620004899062000973565b60405180910390fd5b600560008381526020019081526020016000206004018190806001815401808255809150509060018203906000526020600020016000909192909190916101000a81548173ffffffffffffffffffffffffffffffffffffffff021916908373ffffffffffffffffffffffffffffffffffffffff16021790555050600360008273ffffffffffffffffffffffffffffffffffffffff1673ffffffffffffffffffffffffffffffffffffffff16815260200190815260200160002082908060018154018082558091505090600182039060005260206000200160009091929091909150555060056000838152602001908152602001600020600301600081548092919060010191905055505050565b60006060600560008581526020019081526020016000206004018054806020026020016040519081016040528092919081815260200182805480156200063b57602002820191906000526020600020905b8160009054906101000a900473ffffffffffffffffffffffffffffffffffffffff1673ffffffffffffffffffffffffffffffffffffffff1681526020019060010190808311620005f0575b5050505050905060005b8151811015620006b2578373ffffffffffffffffffffffffffffffffffffffff168282815181106200067357fe5b602002602001015173ffffffffffffffffffffffffffffffffffffffff161415620006a457600192505050620006b9565b808060010191505062000645565b5060009150505b92915050565b828054600181600116156101000203166002900490600052602060002090601f016020900481019282601f106200070257805160ff191683800117855562000733565b8280016001018555821562000733579182015b828111156200073257825182559160200191906001019062000715565b5b509050620007429190620007d5565b5090565b828054828255906000526020600020908101928215620007c2579160200282015b82811115620007c15782518260006101000a81548173ffffffffffffffffffffffffffffffffffffffff021916908373ffffffffffffffffffffffffffffffffffffffff1602179055509160200191906001019062000767565b5b509050620007d19190620007fd565b5090565b620007fa91905b80821115620007f6576000816000905550600101620007dc565b5090565b90565b6200084091905b808211156200083c57600081816101000a81549073ffffffffffffffffffffffffffffffffffffffff02191690555060010162000804565b5090565b90565b60006200085260218362000995565b91507f596f7520617265206e6f74206f776e6572206f66207468697320636f7572736560008301527f21000000000000000000000000000000000000000000000000000000000000006020830152604082019050919050565b6000620008ba60108362000995565b91507f4e6f20636f7572736520666f756e6421000000000000000000000000000000006000830152602082019050919050565b6000620008fc601e8362000995565b91507f5061727469636970616e7420616c726561647920696e20636f757273652100006000830152602082019050919050565b600060208201905081810360008301526200094a8162000843565b9050919050565b600060208201905081810360008301526200096c81620008ab565b9050919050565b600060208201905081810360008301526200098e81620008ed565b9050919050565b600082825260208201905092915050565b611d4c80620009b66000396000f3fe608060405234801561001057600080fd5b50600436106101005760003560e01c8063947ff32411610097578063b959097a11610066578063b959097a14610304578063d167aa4214610334578063f6b4dfb414610364578063f850692f1461038257610100565b8063947ff3241461023c57806396f979d214610271578063a5399aaa146102a4578063b0362993146102d457610100565b8063355a8165116100d3578063355a816514610189578063401bcb0a146101be57806366055159146101ee5780638f0093101461020c57610100565b806318d85e53146101055780632a4b78dd146101215780632dcfa82a1461013d5780632e5540761461016d575b600080fd5b61011f600480360361011a9190810190611894565b6103b2565b005b61013b600480360361013691908101906117c0565b610632565b005b6101576004803603610152919081019061171a565b610aa3565b6040516101649190611b64565b60405180910390f35b6101876004803603610182919081019061177f565b610aef565b005b6101a3600480360361019e9190810190611743565b610c8c565b6040516101b596959493929190611a73565b60405180910390f35b6101d860048036036101d3919081019061171a565b610eea565b6040516101e59190611b64565b60405180910390f35b6101f6610f35565b6040516102039190611b64565b60405180910390f35b61022660048036036102219190810190611743565b610f3b565b6040516102339190611b64565b60405180910390f35b61025660048036036102519190810190611743565b610f69565b60405161026896959493929190611a73565b60405180910390f35b61028b6004803603610286919081019061186b565b6111c7565b60405161029b9493929190611b7f565b60405180910390f35b6102be60048036036102b991908101906118d0565b6112af565b6040516102cb9190611a58565b60405180910390f35b6102ee60048036036102e99190810190611743565b611305565b6040516102fb9190611b64565b60405180910390f35b61031e6004803603610319919081019061171a565b611333565b60405161032b9190611b64565b60405180910390f35b61034e6004803603610349919081019061186b565b61137f565b60405161035b9190611ae9565b60405180910390f35b61036c61139f565b6040516103799190611a58565b60405180910390f35b61039c6004803603610397919081019061171a565b6113c5565b6040516103a99190611b64565b60405180910390f35b6000600260003373ffffffffffffffffffffffffffffffffffffffff1673ffffffffffffffffffffffffffffffffffffffff1681526020019081526020016000208054905011610437576040517f08c379a000000000000000000000000000000000000000000000000000000000815260040161042e90611b24565b60405180910390fd5b3373ffffffffffffffffffffffffffffffffffffffff166005600084815260200190815260200160002060020160009054906101000a900473ffffffffffffffffffffffffffffffffffffffff1673ffffffffffffffffffffffffffffffffffffffff16146104db576040517f08c379a00000000000000000000000000000000000000000000000000000000081526004016104d290611b04565b60405180910390fd5b6104e58282611411565b15610525576040517f08c379a000000000000000000000000000000000000000000000000000000000815260040161051c90611b44565b60405180910390fd5b600560008381526020019081526020016000206004018190806001815401808255809150509060018203906000526020600020016000909192909190916101000a81548173ffffffffffffffffffffffffffffffffffffffff021916908373ffffffffffffffffffffffffffffffffffffffff16021790555050600360008273ffffffffffffffffffffffffffffffffffffffff1673ffffffffffffffffffffffffffffffffffffffff16815260200190815260200160002082908060018154018082558091505090600182039060005260206000200160009091929091909150555060056000838152602001908152602001600020600301600081548092919060010191905055505050565b6060600560008581526020019081526020016000206004018054806020026020016040519081016040528092919081815260200182805480156106ca57602002820191906000526020600020905b8160009054906101000a900473ffffffffffffffffffffffffffffffffffffffff1673ffffffffffffffffffffffffffffffffffffffff1681526020019060010190808311610680575b5050505050905060008090505b8151811015610a6f5760008282815181106106ee57fe5b60200260200101519050600160008273ffffffffffffffffffffffffffffffffffffffff1673ffffffffffffffffffffffffffffffffffffffff1681526020019081526020016000206040518060c001604052803373ffffffffffffffffffffffffffffffffffffffff1681526020018373ffffffffffffffffffffffffffffffffffffffff168152602001898152602001888152602001878152602001868152509080600181540180825580915050906001820390600052602060002090600602016000909192909190915060008201518160000160006101000a81548173ffffffffffffffffffffffffffffffffffffffff021916908373ffffffffffffffffffffffffffffffffffffffff16021790555060208201518160010160006101000a81548173ffffffffffffffffffffffffffffffffffffffff021916908373ffffffffffffffffffffffffffffffffffffffff160217905550604082015181600201908051906020019061086592919061152a565b5060608201518160030155608082015181600401908051906020019061088c92919061152a565b5060a08201518160050190805190602001906108a992919061152a565b505050506000803373ffffffffffffffffffffffffffffffffffffffff1673ffffffffffffffffffffffffffffffffffffffff1681526020019081526020016000206040518060c001604052803373ffffffffffffffffffffffffffffffffffffffff1681526020018373ffffffffffffffffffffffffffffffffffffffff168152602001898152602001888152602001878152602001868152509080600181540180825580915050906001820390600052602060002090600602016000909192909190915060008201518160000160006101000a81548173ffffffffffffffffffffffffffffffffffffffff021916908373ffffffffffffffffffffffffffffffffffffffff16021790555060208201518160010160006101000a81548173ffffffffffffffffffffffffffffffffffffffff021916908373ffffffffffffffffffffffffffffffffffffffff1602179055506040820151816002019080519060200190610a1992919061152a565b50606082015181600301556080820151816004019080519060200190610a4092919061152a565b5060a0820151816005019080519060200190610a5d92919061152a565b505050505080806001019150506106d7565b5060016004600086815260200190815260200160002060006101000a81548160ff0219169083151502179055505050505050565b6000600360008373ffffffffffffffffffffffffffffffffffffffff1673ffffffffffffffffffffffffffffffffffffffff168152602001908152602001600020805490509050919050565b6040518060a0016040528060065481526020018281526020013373ffffffffffffffffffffffffffffffffffffffff168152602001600081526020016000604051908082528060200260200182016040528015610b5b5781602001602082028038833980820191505090505b50815250600560006006548152602001908152602001600020600082015181600001556020820151816001019080519060200190610b9a92919061152a565b5060408201518160020160006101000a81548173ffffffffffffffffffffffffffffffffffffffff021916908373ffffffffffffffffffffffffffffffffffffffff160217905550606082015181600301556080820151816004019080519060200190610c089291906115aa565b50905050600260003373ffffffffffffffffffffffffffffffffffffffff1673ffffffffffffffffffffffffffffffffffffffff168152602001908152602001600020600654908060018154018082558091505090600182039060005260206000200160009091929091909150555060066000815480929190600101919050555050565b60016020528160005260406000208181548110610ca557fe5b9060005260206000209060060201600091509150508060000160009054906101000a900473ffffffffffffffffffffffffffffffffffffffff16908060010160009054906101000a900473ffffffffffffffffffffffffffffffffffffffff1690806002018054600181600116156101000203166002900480601f016020809104026020016040519081016040528092919081815260200182805460018160011615610100020316600290048015610d9e5780601f10610d7357610100808354040283529160200191610d9e565b820191906000526020600020905b815481529060010190602001808311610d8157829003601f168201915b505050505090806003015490806004018054600181600116156101000203166002900480601f016020809104026020016040519081016040528092919081815260200182805460018160011615610100020316600290048015610e425780601f10610e1757610100808354040283529160200191610e42565b820191906000526020600020905b815481529060010190602001808311610e2557829003601f168201915b505050505090806005018054600181600116156101000203166002900480601f016020809104026020016040519081016040528092919081815260200182805460018160011615610100020316600290048015610ee05780601f10610eb557610100808354040283529160200191610ee0565b820191906000526020600020905b815481529060010190602001808311610ec357829003601f168201915b5050505050905086565b60008060008373ffffffffffffffffffffffffffffffffffffffff1673ffffffffffffffffffffffffffffffffffffffff168152602001908152602001600020805490509050919050565b60065481565b60036020528160005260406000208181548110610f5457fe5b90600052602060002001600091509150505481565b60006020528160005260406000208181548110610f8257fe5b9060005260206000209060060201600091509150508060000160009054906101000a900473ffffffffffffffffffffffffffffffffffffffff16908060010160009054906101000a900473ffffffffffffffffffffffffffffffffffffffff1690806002018054600181600116156101000203166002900480601f01602080910402602001604051908101604052809291908181526020018280546001816001161561010002031660029004801561107b5780601f106110505761010080835404028352916020019161107b565b820191906000526020600020905b81548152906001019060200180831161105e57829003601f168201915b505050505090806003015490806004018054600181600116156101000203166002900480601f01602080910402602001604051908101604052809291908181526020018280546001816001161561010002031660029004801561111f5780601f106110f45761010080835404028352916020019161111f565b820191906000526020600020905b81548152906001019060200180831161110257829003601f168201915b505050505090806005018054600181600116156101000203166002900480601f0160208091040260200160405190810160405280929190818152602001828054600181600116156101000203166002900480156111bd5780601f10611192576101008083540402835291602001916111bd565b820191906000526020600020905b8154815290600101906020018083116111a057829003601f168201915b5050505050905086565b6005602052806000526040600020600091509050806000015490806001018054600181600116156101000203166002900480601f0160208091040260200160405190810160405280929190818152602001828054600181600116156101000203166002900480156112795780601f1061124e57610100808354040283529160200191611279565b820191906000526020600020905b81548152906001019060200180831161125c57829003601f168201915b5050505050908060020160009054906101000a900473ffffffffffffffffffffffffffffffffffffffff16908060030154905084565b60006005600084815260200190815260200160002060040182815481106112d257fe5b9060005260206000200160009054906101000a900473ffffffffffffffffffffffffffffffffffffffff16905092915050565b6002602052816000526040600020818154811061131e57fe5b90600052602060002001600091509150505481565b6000600260008373ffffffffffffffffffffffffffffffffffffffff1673ffffffffffffffffffffffffffffffffffffffff168152602001908152602001600020805490509050919050565b60046020528060005260406000206000915054906101000a900460ff1681565b600760009054906101000a900473ffffffffffffffffffffffffffffffffffffffff1681565b6000600160008373ffffffffffffffffffffffffffffffffffffffff1673ffffffffffffffffffffffffffffffffffffffff168152602001908152602001600020805490509050919050565b60006060600560008581526020019081526020016000206004018054806020026020016040519081016040528092919081815260200182805480156114ab57602002820191906000526020600020905b8160009054906101000a900473ffffffffffffffffffffffffffffffffffffffff1673ffffffffffffffffffffffffffffffffffffffff1681526020019060010190808311611461575b5050505050905060005b815181101561151d578373ffffffffffffffffffffffffffffffffffffffff168282815181106114e157fe5b602002602001015173ffffffffffffffffffffffffffffffffffffffff16141561151057600192505050611524565b80806001019150506114b5565b5060009150505b92915050565b828054600181600116156101000203166002900490600052602060002090601f016020900481019282601f1061156b57805160ff1916838001178555611599565b82800160010185558215611599579182015b8281111561159857825182559160200191906001019061157d565b5b5090506115a69190611634565b5090565b828054828255906000526020600020908101928215611623579160200282015b828111156116225782518260006101000a81548173ffffffffffffffffffffffffffffffffffffffff021916908373ffffffffffffffffffffffffffffffffffffffff160217905550916020019190600101906115ca565b5b5090506116309190611659565b5090565b61165691905b8082111561165257600081600090555060010161163a565b5090565b90565b61169991905b8082111561169557600081816101000a81549073ffffffffffffffffffffffffffffffffffffffff02191690555060010161165f565b5090565b90565b6000813590506116ab81611cdb565b92915050565b600082601f8301126116c257600080fd5b81356116d56116d082611bf8565b611bcb565b915080825260208301602083018583830111156116f157600080fd5b6116fc838284611c88565b50505092915050565b60008135905061171481611cf2565b92915050565b60006020828403121561172c57600080fd5b600061173a8482850161169c565b91505092915050565b6000806040838503121561175657600080fd5b60006117648582860161169c565b925050602061177585828601611705565b9150509250929050565b60006020828403121561179157600080fd5b600082013567ffffffffffffffff8111156117ab57600080fd5b6117b7848285016116b1565b91505092915050565b600080600080608085870312156117d657600080fd5b600085013567ffffffffffffffff8111156117f057600080fd5b6117fc878288016116b1565b945050602061180d87828801611705565b935050604085013567ffffffffffffffff81111561182a57600080fd5b611836878288016116b1565b925050606085013567ffffffffffffffff81111561185357600080fd5b61185f878288016116b1565b91505092959194509250565b60006020828403121561187d57600080fd5b600061188b84828501611705565b91505092915050565b600080604083850312156118a757600080fd5b60006118b585828601611705565b92505060206118c68582860161169c565b9150509250929050565b600080604083850312156118e357600080fd5b60006118f185828601611705565b925050602061190285828601611705565b9150509250929050565b61191581611c40565b82525050565b61192481611c52565b82525050565b600061193582611c24565b61193f8185611c2f565b935061194f818560208601611c97565b61195881611cca565b840191505092915050565b6000611970602183611c2f565b91507f596f7520617265206e6f74206f776e6572206f66207468697320636f7572736560008301527f21000000000000000000000000000000000000000000000000000000000000006020830152604082019050919050565b60006119d6601083611c2f565b91507f4e6f20636f7572736520666f756e6421000000000000000000000000000000006000830152602082019050919050565b6000611a16601e83611c2f565b91507f5061727469636970616e7420616c726561647920696e20636f757273652100006000830152602082019050919050565b611a5281611c7e565b82525050565b6000602082019050611a6d600083018461190c565b92915050565b600060c082019050611a88600083018961190c565b611a95602083018861190c565b8181036040830152611aa7818761192a565b9050611ab66060830186611a49565b8181036080830152611ac8818561192a565b905081810360a0830152611adc818461192a565b9050979650505050505050565b6000602082019050611afe600083018461191b565b92915050565b60006020820190508181036000830152611b1d81611963565b9050919050565b60006020820190508181036000830152611b3d816119c9565b9050919050565b60006020820190508181036000830152611b5d81611a09565b9050919050565b6000602082019050611b796000830184611a49565b92915050565b6000608082019050611b946000830187611a49565b8181036020830152611ba6818661192a565b9050611bb5604083018561190c565b611bc26060830184611a49565b95945050505050565b6000604051905081810181811067ffffffffffffffff82111715611bee57600080fd5b8060405250919050565b600067ffffffffffffffff821115611c0f57600080fd5b601f19601f8301169050602081019050919050565b600081519050919050565b600082825260208201905092915050565b6000611c4b82611c5e565b9050919050565b60008115159050919050565b600073ffffffffffffffffffffffffffffffffffffffff82169050919050565b6000819050919050565b82818337600083830152505050565b60005b83811015611cb5578082015181840152602081019050611c9a565b83811115611cc4576000848401525b50505050565b6000601f19601f8301169050919050565b611ce481611c40565b8114611cef57600080fd5b50565b611cfb81611c7e565b8114611d0657600080fd5b5056fea365627a7a723158203910aa1b0071a4ee71eec6280cc5fc52f7993b22fd517432208b3d1f3c373a256c6578706572696d656e74616cf564736f6c63430005100040",
  "source": "pragma solidity 0.5.16;\npragma experimental ABIEncoderV2;\n\ncontract Certification {\n\n    struct Certifate {\n        address publisher;\n        address participant;\n        string title;\n        uint courseId;\n        string course;\n        string imageId;\n    }\n\n    struct Course {\n        uint id;\n        string title;\n        address issuer;\n        uint participantCount;\n        address[] participants;\n    }\n\n    // map issuer address to Certifate to get own created Certifates\n    mapping(address => Certifate[]) public issuerCertificates;\n    // map participant to Certifate to get received Certifates\n    mapping(address => Certifate[]) public participantCertificates;\n\n    // map issuer address to Courses to get own created Courses\n    mapping(address => uint[]) public issuerCourses;\n    // map participant to Courses to get Courses where the user is a participant\n    mapping(address => uint[]) public participantCourses;\n\n    mapping(uint => bool) public courseCertificated;\n\n    mapping(uint => Course) public courses;\n\n    uint public courseCount;\n    address public contractAddress = msg.sender;\n\n    function addCourseCertificates(string memory _title, uint _courseId, string memory _courseTitle, string memory _imageId) public {\n        address[] memory participants = courses[_courseId].participants;\n    \n        for (uint i = 0; i < participants.length; i++) {\n            address participant = participants[i];\n            \n            participantCertificates[participant].push(\n                Certifate(msg.sender, participant, _title, _courseId, _courseTitle, _imageId)\n            );\n\n            issuerCertificates[msg.sender].push(\n                Certifate(msg.sender, participant, _title, _courseId, _courseTitle, _imageId)\n            );\n        }\n\n        courseCertificated[_courseId] = true;\n    }\n\n    function getIssuerCertificateCount (address _user) public view returns (uint count){\n        return issuerCertificates[_user].length;\n    }\n    \n    function getParticipantCertificateCount (address _user) public view returns (uint count){\n        return participantCertificates[_user].length;\n    }\n\n    function getIssuerCourseCount (address _issuer) public view returns (uint count){\n        return issuerCourses[_issuer].length;\n    }\n\n    function getParticipantCourseCount(address _participant) public view returns (uint count) {\n        return participantCourses[_participant].length;\n    }\n\n    function getCourseParticipantAt(uint _courseId, uint index) public view returns (address count){\n        return courses[_courseId].participants[index];\n    }\n\n    function addCourse (string memory _title) public {\n        courses[courseCount] = Course(courseCount, _title, msg.sender, 0, new address[](0));\n        issuerCourses[msg.sender].push(courseCount);\n        courseCount++;\n    }\n\n    function addParticipant(uint _courseId, address _participant) public {\n\n        require(issuerCourses[msg.sender].length > 0, \"No course found!\");\n        require(courses[_courseId].issuer == msg.sender, \"You are not owner of this course!\");\n        require(!participantExists(_courseId, _participant), \"Participant already in course!\");\n\n        courses[_courseId].participants.push(_participant);\n        participantCourses[_participant].push(_courseId);\n        courses[_courseId].participantCount++;\n    }\n\n    function participantExists (uint _courseId, address _participant) private view returns (bool) {\n        address[] memory participants = courses[_courseId].participants;\n        for (uint i; i < participants.length; i++) {\n            if (participants[i]==_participant) {\n                return true;\n            }\n        }\n        return false;\n    }\n\n\n    constructor() public {\n        addCourse(\"Web Engineering 1\"); // course id: 0\n        addCourse(\"Power Engineering 1\"); // course id: 1\n\n        address participantA = 0xdCad3a6d3569DF655070DEd06cb7A1b2Ccd1D3AF;\n        address participantB = 0xfC9a8E621F0D8821A770a5Cee4cEF8a90D387e8D;\n        \n        addParticipant(0, participantA);\n        addParticipant(0, participantB);\n        addParticipant(1, participantB);\n\n        //issueCertificates(0, \"Web Engineer\");\n\n        // test adding of certificates\n        address receiver = 0x53bde67D3614B1f85eD12B77adA1c0Ca4e86b840;\n    }\n}",
  "sourcePath": "/Users/jacob/Desktop/Projects/Blockchain/BlockCertify/contracts/Certification.sol",
  "compiler": {
    "name": "solc",
    "version": "0.5.16+commit.9c3226ce.Emscripten.clang"
  },
  "schemaVersion": "3.3.1",
  "updatedAt": "2020-11-19T14:45:51.759Z",
  "networkType": "ethereum",
  "devdoc": {
    "methods": {}
  },
  "userdoc": {
    "methods": {}
  }
}