{
  "contractName": "Certification",
  "abi": [
    {
      "inputs": [],
      "payable": false,
      "stateMutability": "nonpayable",
      "type": "constructor"
    },
    {
      "constant": true,
      "inputs": [],
      "name": "contractAddress",
      "outputs": [
        {
          "internalType": "address",
          "name": "",
          "type": "address"
        }
      ],
      "payable": false,
      "stateMutability": "view",
      "type": "function"
    },
    {
      "constant": true,
      "inputs": [],
      "name": "courseCount",
      "outputs": [
        {
          "internalType": "uint256",
          "name": "",
          "type": "uint256"
        }
      ],
      "payable": false,
      "stateMutability": "view",
      "type": "function"
    },
    {
      "constant": true,
      "inputs": [
        {
          "internalType": "uint256",
          "name": "",
          "type": "uint256"
        },
        {
          "internalType": "uint256",
          "name": "",
          "type": "uint256"
        }
      ],
      "name": "courseParticipants",
      "outputs": [
        {
          "internalType": "address",
          "name": "",
          "type": "address"
        }
      ],
      "payable": false,
      "stateMutability": "view",
      "type": "function"
    },
    {
      "constant": true,
      "inputs": [
        {
          "internalType": "address",
          "name": "",
          "type": "address"
        },
        {
          "internalType": "uint256",
          "name": "",
          "type": "uint256"
        }
      ],
      "name": "issuerCertificates",
      "outputs": [
        {
          "internalType": "address",
          "name": "publisher",
          "type": "address"
        },
        {
          "internalType": "address",
          "name": "participant",
          "type": "address"
        },
        {
          "internalType": "string",
          "name": "title",
          "type": "string"
        },
        {
          "internalType": "uint256",
          "name": "courseId",
          "type": "uint256"
        },
        {
          "internalType": "string",
          "name": "course",
          "type": "string"
        }
      ],
      "payable": false,
      "stateMutability": "view",
      "type": "function"
    },
    {
      "constant": true,
      "inputs": [
        {
          "internalType": "address",
          "name": "",
          "type": "address"
        },
        {
          "internalType": "uint256",
          "name": "",
          "type": "uint256"
        }
      ],
      "name": "issuerCourses",
      "outputs": [
        {
          "internalType": "uint256",
          "name": "id",
          "type": "uint256"
        },
        {
          "internalType": "string",
          "name": "title",
          "type": "string"
        }
      ],
      "payable": false,
      "stateMutability": "view",
      "type": "function"
    },
    {
      "constant": true,
      "inputs": [
        {
          "internalType": "address",
          "name": "",
          "type": "address"
        },
        {
          "internalType": "uint256",
          "name": "",
          "type": "uint256"
        }
      ],
      "name": "participantCertificates",
      "outputs": [
        {
          "internalType": "address",
          "name": "publisher",
          "type": "address"
        },
        {
          "internalType": "address",
          "name": "participant",
          "type": "address"
        },
        {
          "internalType": "string",
          "name": "title",
          "type": "string"
        },
        {
          "internalType": "uint256",
          "name": "courseId",
          "type": "uint256"
        },
        {
          "internalType": "string",
          "name": "course",
          "type": "string"
        }
      ],
      "payable": false,
      "stateMutability": "view",
      "type": "function"
    },
    {
      "constant": true,
      "inputs": [
        {
          "internalType": "address",
          "name": "",
          "type": "address"
        },
        {
          "internalType": "uint256",
          "name": "",
          "type": "uint256"
        }
      ],
      "name": "participantCourses",
      "outputs": [
        {
          "internalType": "uint256",
          "name": "id",
          "type": "uint256"
        },
        {
          "internalType": "string",
          "name": "title",
          "type": "string"
        }
      ],
      "payable": false,
      "stateMutability": "view",
      "type": "function"
    },
    {
      "constant": false,
      "inputs": [
        {
          "internalType": "address",
          "name": "_participant",
          "type": "address"
        },
        {
          "internalType": "string",
          "name": "_title",
          "type": "string"
        },
        {
          "internalType": "uint256",
          "name": "_courseId",
          "type": "uint256"
        },
        {
          "internalType": "string",
          "name": "_courseTitle",
          "type": "string"
        }
      ],
      "name": "addCertificate",
      "outputs": [],
      "payable": false,
      "stateMutability": "nonpayable",
      "type": "function"
    },
    {
      "constant": true,
      "inputs": [
        {
          "internalType": "address",
          "name": "_user",
          "type": "address"
        }
      ],
      "name": "getIssuerCertificateCount",
      "outputs": [
        {
          "internalType": "uint256",
          "name": "count",
          "type": "uint256"
        }
      ],
      "payable": false,
      "stateMutability": "view",
      "type": "function"
    },
    {
      "constant": true,
      "inputs": [
        {
          "internalType": "address",
          "name": "_user",
          "type": "address"
        }
      ],
      "name": "getParticipantCertificateCount",
      "outputs": [
        {
          "internalType": "uint256",
          "name": "count",
          "type": "uint256"
        }
      ],
      "payable": false,
      "stateMutability": "view",
      "type": "function"
    },
    {
      "constant": false,
      "inputs": [
        {
          "internalType": "string",
          "name": "_title",
          "type": "string"
        }
      ],
      "name": "addCourse",
      "outputs": [],
      "payable": false,
      "stateMutability": "nonpayable",
      "type": "function"
    },
    {
      "constant": true,
      "inputs": [
        {
          "internalType": "address",
          "name": "_user",
          "type": "address"
        }
      ],
      "name": "getIssuerCourseCount",
      "outputs": [
        {
          "internalType": "uint256",
          "name": "count",
          "type": "uint256"
        }
      ],
      "payable": false,
      "stateMutability": "view",
      "type": "function"
    },
    {
      "constant": true,
      "inputs": [
        {
          "internalType": "address",
          "name": "_user",
          "type": "address"
        }
      ],
      "name": "getParticipantCourseCount",
      "outputs": [
        {
          "internalType": "uint256",
          "name": "count",
          "type": "uint256"
        }
      ],
      "payable": false,
      "stateMutability": "view",
      "type": "function"
    },
    {
      "constant": false,
      "inputs": [
        {
          "internalType": "uint256",
          "name": "_courseId",
          "type": "uint256"
        },
        {
          "internalType": "address",
          "name": "_participant",
          "type": "address"
        }
      ],
      "name": "addParticipant",
      "outputs": [],
      "payable": false,
      "stateMutability": "nonpayable",
      "type": "function"
    },
    {
      "constant": true,
      "inputs": [
        {
          "internalType": "uint256",
          "name": "_courseId",
          "type": "uint256"
        }
      ],
      "name": "getCourseParticipants",
      "outputs": [
        {
          "internalType": "address[]",
          "name": "",
          "type": "address[]"
        }
      ],
      "payable": false,
      "stateMutability": "view",
      "type": "function"
    }
  ],
  "bytecode": "0x608060405233600660006101000a81548173ffffffffffffffffffffffffffffffffffffffff021916908373ffffffffffffffffffffffffffffffffffffffff1602179055503480156200005257600080fd5b50620000996040518060400160405280601181526020017f57656220456e67696e656572696e672031000000000000000000000000000000815250620005be60201b60201c565b620000df6040518060400160405280601381526020017f506f77657220456e67696e656572696e67203100000000000000000000000000815250620005be60201b60201c565b600073dcad3a6d3569df655070ded06cb7a1b2ccd1d3af9050600073fc9a8e621f0d8821a770a5cee4cef8a90d387e8d905062000180600260003373ffffffffffffffffffffffffffffffffffffffff1673ffffffffffffffffffffffffffffffffffffffff1681526020019081526020016000206000815481106200016157fe5b906000526020600020906002020160000154836200068060201b60201c565b620001ef600260003373ffffffffffffffffffffffffffffffffffffffff1673ffffffffffffffffffffffffffffffffffffffff168152602001908152602001600020600081548110620001d057fe5b906000526020600020906002020160000154826200068060201b60201c565b6200025e600260003373ffffffffffffffffffffffffffffffffffffffff1673ffffffffffffffffffffffffffffffffffffffff1681526020019081526020016000206001815481106200023f57fe5b906000526020600020906002020160000154826200068060201b60201c565b60007353bde67d3614b1f85ed12b77ada1c0ca4e86b840905062000416816040518060400160405280600c81526020017f57656220456e67696e6565720000000000000000000000000000000000000000815250600260003373ffffffffffffffffffffffffffffffffffffffff1673ffffffffffffffffffffffffffffffffffffffff168152602001908152602001600020600081548110620002fe57fe5b906000526020600020906002020160000154600260003373ffffffffffffffffffffffffffffffffffffffff1673ffffffffffffffffffffffffffffffffffffffff1681526020019081526020016000206000815481106200035c57fe5b90600052602060002090600202016001018054600181600116156101000203166002900480601f016020809104026020016040519081016040528092919081815260200182805460018160011615610100020316600290048015620004055780601f10620003d95761010080835404028352916020019162000405565b820191906000526020600020905b815481529060010190602001808311620003e757829003601f168201915b505050505062000a7b60201b60201c565b620005b5816040518060400160405280600e81526020017f506f77657220456e67696e656572000000000000000000000000000000000000815250600260003373ffffffffffffffffffffffffffffffffffffffff1673ffffffffffffffffffffffffffffffffffffffff1681526020019081526020016000206001815481106200049d57fe5b906000526020600020906002020160000154600260003373ffffffffffffffffffffffffffffffffffffffff1673ffffffffffffffffffffffffffffffffffffffff168152602001908152602001600020600181548110620004fb57fe5b90600052602060002090600202016001018054600181600116156101000203166002900480601f016020809104026020016040519081016040528092919081815260200182805460018160011615610100020316600290048015620005a45780601f106200057857610100808354040283529160200191620005a4565b820191906000526020600020905b8154815290600101906020018083116200058657829003601f168201915b505050505062000a7b60201b60201c565b505050620010cf565b600260003373ffffffffffffffffffffffffffffffffffffffff1673ffffffffffffffffffffffffffffffffffffffff1681526020019081526020016000206040518060400160405280600554815260200183815250908060018154018082558091505090600182039060005260206000209060020201600090919290919091506000820151816000015560208201518160010190805190602001906200066792919062000ec9565b5050505060056000815480929190600101919050555050565b6000600260003373ffffffffffffffffffffffffffffffffffffffff1673ffffffffffffffffffffffffffffffffffffffff168152602001908152602001600020805490501162000708576040517f08c379a0000000000000000000000000000000000000000000000000000000008152600401620006ff9062001058565b60405180910390fd5b6060600260003373ffffffffffffffffffffffffffffffffffffffff1673ffffffffffffffffffffffffffffffffffffffff168152602001908152602001600020805480602002602001604051908101604052809291908181526020016000905b828210156200084d578382906000526020600020906002020160405180604001604052908160008201548152602001600182018054600181600116156101000203166002900480601f016020809104026020016040519081016040528092919081815260200182805460018160011615610100020316600290048015620008345780601f10620008085761010080835404028352916020019162000834565b820191906000526020600020905b8154815290600101906020018083116200081657829003601f168201915b5050505050815250508152602001906001019062000769565b50505050905060008151905060008090506200086862000f50565b60008090505b83811015620008cc57868582815181106200088557fe5b602002602001015160000151146200089d57620008be565b60019250848181518110620008ae57fe5b60200260200101519150620008cc565b80806001019150506200086e565b508162000910576040517f08c379a000000000000000000000000000000000000000000000000000000000815260040162000907906200109c565b60405180910390fd5b62000922868662000dac60201b60201c565b1562000965576040517f08c379a00000000000000000000000000000000000000000000000000000000081526004016200095c906200107a565b60405180910390fd5b600460008781526020019081526020016000208590806001815401808255809150509060018203906000526020600020016000909192909190916101000a81548173ffffffffffffffffffffffffffffffffffffffff021916908373ffffffffffffffffffffffffffffffffffffffff16021790555050600360008673ffffffffffffffffffffffffffffffffffffffff1673ffffffffffffffffffffffffffffffffffffffff168152602001908152602001600020819080600181540180825580915050906001820390600052602060002090600202016000909192909190915060008201518160000155602082015181600101908051906020019062000a6f92919062000ec9565b50505050505050505050565b600160008573ffffffffffffffffffffffffffffffffffffffff1673ffffffffffffffffffffffffffffffffffffffff1681526020019081526020016000206040518060a001604052803373ffffffffffffffffffffffffffffffffffffffff1681526020018673ffffffffffffffffffffffffffffffffffffffff168152602001858152602001848152602001838152509080600181540180825580915050906001820390600052602060002090600502016000909192909190915060008201518160000160006101000a81548173ffffffffffffffffffffffffffffffffffffffff021916908373ffffffffffffffffffffffffffffffffffffffff16021790555060208201518160010160006101000a81548173ffffffffffffffffffffffffffffffffffffffff021916908373ffffffffffffffffffffffffffffffffffffffff160217905550604082015181600201908051906020019062000be492919062000ec9565b5060608201518160030155608082015181600401908051906020019062000c0d92919062000ec9565b505050506000803373ffffffffffffffffffffffffffffffffffffffff1673ffffffffffffffffffffffffffffffffffffffff1681526020019081526020016000206040518060a001604052803373ffffffffffffffffffffffffffffffffffffffff1681526020018673ffffffffffffffffffffffffffffffffffffffff168152602001858152602001848152602001838152509080600181540180825580915050906001820390600052602060002090600502016000909192909190915060008201518160000160006101000a81548173ffffffffffffffffffffffffffffffffffffffff021916908373ffffffffffffffffffffffffffffffffffffffff16021790555060208201518160010160006101000a81548173ffffffffffffffffffffffffffffffffffffffff021916908373ffffffffffffffffffffffffffffffffffffffff160217905550604082015181600201908051906020019062000d7992919062000ec9565b5060608201518160030155608082015181600401908051906020019062000da292919062000ec9565b5050505050505050565b600060606004600085815260200190815260200160002080548060200260200160405190810160405280929190818152602001828054801562000e4557602002820191906000526020600020905b8160009054906101000a900473ffffffffffffffffffffffffffffffffffffffff1673ffffffffffffffffffffffffffffffffffffffff168152602001906001019080831162000dfa575b5050505050905060005b815181101562000ebc578373ffffffffffffffffffffffffffffffffffffffff1682828151811062000e7d57fe5b602002602001015173ffffffffffffffffffffffffffffffffffffffff16141562000eae5760019250505062000ec3565b808060010191505062000e4f565b5060009150505b92915050565b828054600181600116156101000203166002900490600052602060002090601f016020900481019282601f1062000f0c57805160ff191683800117855562000f3d565b8280016001018555821562000f3d579182015b8281111562000f3c57825182559160200191906001019062000f1f565b5b50905062000f4c919062000f6a565b5090565b604051806040016040528060008152602001606081525090565b62000f8f91905b8082111562000f8b57600081600090555060010162000f71565b5090565b90565b600062000fa1601083620010be565b91507f4e6f20636f7572736520666f756e6421000000000000000000000000000000006000830152602082019050919050565b600062000fe3601e83620010be565b91507f5061727469636970616e7420616c726561647920696e20636f757273652100006000830152602082019050919050565b600062001025601683620010be565b91507f436f7572736520646f6573206e6f7420657869737421000000000000000000006000830152602082019050919050565b60006020820190508181036000830152620010738162000f92565b9050919050565b60006020820190508181036000830152620010958162000fd4565b9050919050565b60006020820190508181036000830152620010b78162001016565b9050919050565b600082825260208201905092915050565b611b6980620010df6000396000f3fe608060405234801561001057600080fd5b50600436106100f55760003560e01c80638f00931011610097578063b959097a11610066578063b959097a146102da578063e725d5001461030a578063f6b4dfb414610326578063f850692f14610344576100f5565b80638f00931014610214578063947ff3241461024557806399aa3f5d14610279578063b0362993146102a9576100f5565b8063355a8165116100d3578063355a81651461016257806339fd608914610196578063401bcb0a146101c657806366055159146101f6576100f5565b806318d85e53146100fa5780632dcfa82a146101165780632e55407614610146575b600080fd5b610114600480360361010f919081019061165e565b610374565b005b610130600480360361012b91908101906114fc565b61074d565b60405161013d9190611970565b60405180910390f35b610160600480360361015b91908101906115f4565b610799565b005b61017c600480360361017791908101906115b8565b610859565b60405161018d95949392919061188d565b60405180910390f35b6101b060048036036101ab919081019061169a565b610a19565b6040516101bd9190611872565b60405180910390f35b6101e060048036036101db91908101906114fc565b610a64565b6040516101ed9190611970565b60405180910390f35b6101fe610aaf565b60405161020b9190611970565b60405180910390f35b61022e600480360361022991908101906115b8565b610ab5565b60405161023c92919061198b565b60405180910390f35b61025f600480360361025a91908101906115b8565b610b8b565b60405161027095949392919061188d565b60405180910390f35b610293600480360361028e9190810190611635565b610d4b565b6040516102a091906118ee565b60405180910390f35b6102c360048036036102be91908101906115b8565b610dec565b6040516102d192919061198b565b60405180910390f35b6102f460048036036102ef91908101906114fc565b610ec2565b6040516103019190611970565b60405180910390f35b610324600480360361031f9190810190611525565b610f0e565b005b61032e611237565b60405161033b9190611872565b60405180910390f35b61035e600480360361035991908101906114fc565b61125d565b60405161036b9190611970565b60405180910390f35b6000600260003373ffffffffffffffffffffffffffffffffffffffff1673ffffffffffffffffffffffffffffffffffffffff16815260200190815260200160002080549050116103f9576040517f08c379a00000000000000000000000000000000000000000000000000000000081526004016103f090611910565b60405180910390fd5b6060600260003373ffffffffffffffffffffffffffffffffffffffff1673ffffffffffffffffffffffffffffffffffffffff168152602001908152602001600020805480602002602001604051908101604052809291908181526020016000905b82821015610538578382906000526020600020906002020160405180604001604052908160008201548152602001600182018054600181600116156101000203166002900480601f0160208091040260200160405190810160405280929190818152602001828054600181600116156101000203166002900480156105205780601f106104f557610100808354040283529160200191610520565b820191906000526020600020905b81548152906001019060200180831161050357829003601f168201915b5050505050815250508152602001906001019061045a565b50505050905060008151905060008090506105516113bf565b60008090505b838110156105ae578685828151811061056c57fe5b60200260200101516000015114610582576105a1565b6001925084818151811061059257fe5b602002602001015191506105ae565b8080600101915050610557565b50816105ef576040517f08c379a00000000000000000000000000000000000000000000000000000000081526004016105e690611950565b60405180910390fd5b6105f986866112a9565b15610639576040517f08c379a000000000000000000000000000000000000000000000000000000000815260040161063090611930565b60405180910390fd5b600460008781526020019081526020016000208590806001815401808255809150509060018203906000526020600020016000909192909190916101000a81548173ffffffffffffffffffffffffffffffffffffffff021916908373ffffffffffffffffffffffffffffffffffffffff16021790555050600360008673ffffffffffffffffffffffffffffffffffffffff1673ffffffffffffffffffffffffffffffffffffffff16815260200190815260200160002081908060018154018082558091505090600182039060005260206000209060020201600090919290919091506000820151816000015560208201518160010190805190602001906107419291906113d9565b50505050505050505050565b6000600360008373ffffffffffffffffffffffffffffffffffffffff1673ffffffffffffffffffffffffffffffffffffffff168152602001908152602001600020805490509050919050565b600260003373ffffffffffffffffffffffffffffffffffffffff1673ffffffffffffffffffffffffffffffffffffffff1681526020019081526020016000206040518060400160405280600554815260200183815250908060018154018082558091505090600182039060005260206000209060020201600090919290919091506000820151816000015560208201518160010190805190602001906108409291906113d9565b5050505060056000815480929190600101919050555050565b6001602052816000526040600020818154811061087257fe5b9060005260206000209060050201600091509150508060000160009054906101000a900473ffffffffffffffffffffffffffffffffffffffff16908060010160009054906101000a900473ffffffffffffffffffffffffffffffffffffffff1690806002018054600181600116156101000203166002900480601f01602080910402602001604051908101604052809291908181526020018280546001816001161561010002031660029004801561096b5780601f106109405761010080835404028352916020019161096b565b820191906000526020600020905b81548152906001019060200180831161094e57829003601f168201915b505050505090806003015490806004018054600181600116156101000203166002900480601f016020809104026020016040519081016040528092919081815260200182805460018160011615610100020316600290048015610a0f5780601f106109e457610100808354040283529160200191610a0f565b820191906000526020600020905b8154815290600101906020018083116109f257829003601f168201915b5050505050905085565b60046020528160005260406000208181548110610a3257fe5b906000526020600020016000915091509054906101000a900473ffffffffffffffffffffffffffffffffffffffff1681565b60008060008373ffffffffffffffffffffffffffffffffffffffff1673ffffffffffffffffffffffffffffffffffffffff168152602001908152602001600020805490509050919050565b60055481565b60036020528160005260406000208181548110610ace57fe5b906000526020600020906002020160009150915050806000015490806001018054600181600116156101000203166002900480601f016020809104026020016040519081016040528092919081815260200182805460018160011615610100020316600290048015610b815780601f10610b5657610100808354040283529160200191610b81565b820191906000526020600020905b815481529060010190602001808311610b6457829003601f168201915b5050505050905082565b60006020528160005260406000208181548110610ba457fe5b9060005260206000209060050201600091509150508060000160009054906101000a900473ffffffffffffffffffffffffffffffffffffffff16908060010160009054906101000a900473ffffffffffffffffffffffffffffffffffffffff1690806002018054600181600116156101000203166002900480601f016020809104026020016040519081016040528092919081815260200182805460018160011615610100020316600290048015610c9d5780601f10610c7257610100808354040283529160200191610c9d565b820191906000526020600020905b815481529060010190602001808311610c8057829003601f168201915b505050505090806003015490806004018054600181600116156101000203166002900480601f016020809104026020016040519081016040528092919081815260200182805460018160011615610100020316600290048015610d415780601f10610d1657610100808354040283529160200191610d41565b820191906000526020600020905b815481529060010190602001808311610d2457829003601f168201915b5050505050905085565b606060046000838152602001908152602001600020805480602002602001604051908101604052809291908181526020018280548015610de057602002820191906000526020600020905b8160009054906101000a900473ffffffffffffffffffffffffffffffffffffffff1673ffffffffffffffffffffffffffffffffffffffff1681526020019060010190808311610d96575b50505050509050919050565b60026020528160005260406000208181548110610e0557fe5b906000526020600020906002020160009150915050806000015490806001018054600181600116156101000203166002900480601f016020809104026020016040519081016040528092919081815260200182805460018160011615610100020316600290048015610eb85780601f10610e8d57610100808354040283529160200191610eb8565b820191906000526020600020905b815481529060010190602001808311610e9b57829003601f168201915b5050505050905082565b6000600260008373ffffffffffffffffffffffffffffffffffffffff1673ffffffffffffffffffffffffffffffffffffffff168152602001908152602001600020805490509050919050565b600160008573ffffffffffffffffffffffffffffffffffffffff1673ffffffffffffffffffffffffffffffffffffffff1681526020019081526020016000206040518060a001604052803373ffffffffffffffffffffffffffffffffffffffff1681526020018673ffffffffffffffffffffffffffffffffffffffff168152602001858152602001848152602001838152509080600181540180825580915050906001820390600052602060002090600502016000909192909190915060008201518160000160006101000a81548173ffffffffffffffffffffffffffffffffffffffff021916908373ffffffffffffffffffffffffffffffffffffffff16021790555060208201518160010160006101000a81548173ffffffffffffffffffffffffffffffffffffffff021916908373ffffffffffffffffffffffffffffffffffffffff16021790555060408201518160020190805190602001906110759291906113d9565b5060608201518160030155608082015181600401908051906020019061109c9291906113d9565b505050506000803373ffffffffffffffffffffffffffffffffffffffff1673ffffffffffffffffffffffffffffffffffffffff1681526020019081526020016000206040518060a001604052803373ffffffffffffffffffffffffffffffffffffffff1681526020018673ffffffffffffffffffffffffffffffffffffffff168152602001858152602001848152602001838152509080600181540180825580915050906001820390600052602060002090600502016000909192909190915060008201518160000160006101000a81548173ffffffffffffffffffffffffffffffffffffffff021916908373ffffffffffffffffffffffffffffffffffffffff16021790555060208201518160010160006101000a81548173ffffffffffffffffffffffffffffffffffffffff021916908373ffffffffffffffffffffffffffffffffffffffff16021790555060408201518160020190805190602001906112069291906113d9565b5060608201518160030155608082015181600401908051906020019061122d9291906113d9565b5050505050505050565b600660009054906101000a900473ffffffffffffffffffffffffffffffffffffffff1681565b6000600160008373ffffffffffffffffffffffffffffffffffffffff1673ffffffffffffffffffffffffffffffffffffffff168152602001908152602001600020805490509050919050565b600060606004600085815260200190815260200160002080548060200260200160405190810160405280929190818152602001828054801561134057602002820191906000526020600020905b8160009054906101000a900473ffffffffffffffffffffffffffffffffffffffff1673ffffffffffffffffffffffffffffffffffffffff16815260200190600101908083116112f6575b5050505050905060005b81518110156113b2578373ffffffffffffffffffffffffffffffffffffffff1682828151811061137657fe5b602002602001015173ffffffffffffffffffffffffffffffffffffffff1614156113a5576001925050506113b9565b808060010191505061134a565b5060009150505b92915050565b604051806040016040528060008152602001606081525090565b828054600181600116156101000203166002900490600052602060002090601f016020900481019282601f1061141a57805160ff1916838001178555611448565b82800160010185558215611448579182015b8281111561144757825182559160200191906001019061142c565b5b5090506114559190611459565b5090565b61147b91905b8082111561147757600081600090555060010161145f565b5090565b90565b60008135905061148d81611af8565b92915050565b600082601f8301126114a457600080fd5b81356114b76114b2826119e8565b6119bb565b915080825260208301602083018583830111156114d357600080fd5b6114de838284611aa5565b50505092915050565b6000813590506114f681611b0f565b92915050565b60006020828403121561150e57600080fd5b600061151c8482850161147e565b91505092915050565b6000806000806080858703121561153b57600080fd5b60006115498782880161147e565b945050602085013567ffffffffffffffff81111561156657600080fd5b61157287828801611493565b9350506040611583878288016114e7565b925050606085013567ffffffffffffffff8111156115a057600080fd5b6115ac87828801611493565b91505092959194509250565b600080604083850312156115cb57600080fd5b60006115d98582860161147e565b92505060206115ea858286016114e7565b9150509250929050565b60006020828403121561160657600080fd5b600082013567ffffffffffffffff81111561162057600080fd5b61162c84828501611493565b91505092915050565b60006020828403121561164757600080fd5b6000611655848285016114e7565b91505092915050565b6000806040838503121561167157600080fd5b600061167f858286016114e7565b92505060206116908582860161147e565b9150509250929050565b600080604083850312156116ad57600080fd5b60006116bb858286016114e7565b92505060206116cc858286016114e7565b9150509250929050565b60006116e283836116ee565b60208301905092915050565b6116f781611a69565b82525050565b61170681611a69565b82525050565b600061171782611a24565b6117218185611a47565b935061172c83611a14565b8060005b8381101561175d57815161174488826116d6565b975061174f83611a3a565b925050600181019050611730565b5085935050505092915050565b600061177582611a2f565b61177f8185611a58565b935061178f818560208601611ab4565b61179881611ae7565b840191505092915050565b60006117b0601083611a58565b91507f4e6f20636f7572736520666f756e6421000000000000000000000000000000006000830152602082019050919050565b60006117f0601e83611a58565b91507f5061727469636970616e7420616c726561647920696e20636f757273652100006000830152602082019050919050565b6000611830601683611a58565b91507f436f7572736520646f6573206e6f7420657869737421000000000000000000006000830152602082019050919050565b61186c81611a9b565b82525050565b600060208201905061188760008301846116fd565b92915050565b600060a0820190506118a260008301886116fd565b6118af60208301876116fd565b81810360408301526118c1818661176a565b90506118d06060830185611863565b81810360808301526118e2818461176a565b90509695505050505050565b60006020820190508181036000830152611908818461170c565b905092915050565b60006020820190508181036000830152611929816117a3565b9050919050565b60006020820190508181036000830152611949816117e3565b9050919050565b6000602082019050818103600083015261196981611823565b9050919050565b60006020820190506119856000830184611863565b92915050565b60006040820190506119a06000830185611863565b81810360208301526119b2818461176a565b90509392505050565b6000604051905081810181811067ffffffffffffffff821117156119de57600080fd5b8060405250919050565b600067ffffffffffffffff8211156119ff57600080fd5b601f19601f8301169050602081019050919050565b6000819050602082019050919050565b600081519050919050565b600081519050919050565b6000602082019050919050565b600082825260208201905092915050565b600082825260208201905092915050565b6000611a7482611a7b565b9050919050565b600073ffffffffffffffffffffffffffffffffffffffff82169050919050565b6000819050919050565b82818337600083830152505050565b60005b83811015611ad2578082015181840152602081019050611ab7565b83811115611ae1576000848401525b50505050565b6000601f19601f8301169050919050565b611b0181611a69565b8114611b0c57600080fd5b50565b611b1881611a9b565b8114611b2357600080fd5b5056fea365627a7a723158203ce0e136cde152b414583f962f2463dfea199659c51abfb7628d364a8f2fea166c6578706572696d656e74616cf564736f6c63430005100040",
  "source": "pragma solidity 0.5.16;\npragma experimental ABIEncoderV2;\n\ncontract Certification {\n\n    struct Certifate {\n        address publisher;\n        address participant;\n        string title;\n        uint courseId;\n        string course;\n    }\n\n    struct Course {\n        uint id;\n        string title;\n    }\n\n    // map issuer address to Certifate to get own created Certifates\n    mapping(address => Certifate[]) public issuerCertificates;\n    // map participant to Certifate to get received Certifates\n    mapping(address => Certifate[]) public participantCertificates;\n    // map issuer address to Courses to get own created Courses\n    mapping(address => Course[]) public issuerCourses;\n    // map participant to Courses to get Courses where the user is a participant\n    mapping(address => Course[]) public participantCourses;\n    // map Course ID to participant address for issuer to get all participants of a course\n    mapping(uint => address[]) public courseParticipants;\n\n    uint public courseCount;\n    address public contractAddress = msg.sender;\n\n    function addCertificate (address _participant, string memory _title, uint _courseId, string memory _courseTitle) public {\n        participantCertificates[_participant].push(\n            Certifate(msg.sender, _participant, _title, _courseId, _courseTitle)\n        );\n        issuerCertificates[msg.sender].push(\n            Certifate(msg.sender, _participant, _title, _courseId, _courseTitle)\n        );\n    }\n\n    function getIssuerCertificateCount (address _user) public view returns (uint count){\n        return issuerCertificates[_user].length;\n    }\n    \n    function getParticipantCertificateCount (address _user) public view returns (uint count){\n        return participantCertificates[_user].length;\n    }\n\n    // function issueCertificates (uint _courseId, string memory _title) public {\n    //     certificateCount++;\n    //     certificates[] = Certifate(certificateCount, _courseId, msg.sender, _title);\n    // }\n\n    function addCourse (string memory _title) public {\n        issuerCourses[msg.sender].push(\n            Course(courseCount, _title)\n        );\n        courseCount++;\n    }\n\n    function getIssuerCourseCount (address _user) public view returns (uint count){\n        return issuerCourses[_user].length;\n    }\n    \n    function getParticipantCourseCount(address _user) public view returns (uint count) {\n        return participantCourses[_user].length;\n    }\n\n\n    function addParticipant(uint _courseId, address _participant) public {\n\n        require(issuerCourses[msg.sender].length > 0, \"No course found!\");\n        \n        // check if course exists\n        Course[] memory myCourses = issuerCourses[msg.sender];\n\n        uint length = myCourses.length;\n        bool exists = false;\n        Course  memory course;\n        for (uint i = 0; i < length; i++) {\n            if (myCourses[i].id != _courseId) {\n                continue;\n            }\n            exists = true;\n            course = myCourses[i];\n            break;\n        }\n\n        require(exists, \"Course does not exist!\");\n        require(!participantExists(_courseId, _participant), \"Participant already in course!\");\n\n        courseParticipants[_courseId].push(_participant);\n        participantCourses[_participant].push(course);\n    }\n\n    function participantExists (uint _courseId, address _participant) private view returns (bool) {\n        address[] memory participants = courseParticipants[_courseId];\n        for (uint i; i < participants.length; i++) {\n            if (participants[i]==_participant) {\n                return true;\n            }\n        }\n        return false;\n    }\n\n    function getCourseParticipants(uint _courseId) public view returns (address[] memory){\n        return courseParticipants[_courseId];\n    }\n\n\n    constructor() public {\n        addCourse(\"Web Engineering 1\"); // course id: 0\n        addCourse(\"Power Engineering 1\"); // course id: 1\n\n        address participantA = 0xdCad3a6d3569DF655070DEd06cb7A1b2Ccd1D3AF;\n        address participantB = 0xfC9a8E621F0D8821A770a5Cee4cEF8a90D387e8D;\n        \n        addParticipant(issuerCourses[msg.sender][0].id, participantA);\n        addParticipant(issuerCourses[msg.sender][0].id, participantB);\n        addParticipant(issuerCourses[msg.sender][1].id, participantB);\n\n        //issueCertificates(0, \"Web Engineer\");\n\n        // test adding of certificates\n        address receiver = 0x53bde67D3614B1f85eD12B77adA1c0Ca4e86b840;\n        addCertificate(receiver, \"Web Engineer\", issuerCourses[msg.sender][0].id, issuerCourses[msg.sender][0].title);\n        addCertificate(receiver, \"Power Engineer\", issuerCourses[msg.sender][1].id, issuerCourses[msg.sender][1].title);\n    }\n}",
  "sourcePath": "/Users/jacob/Desktop/Projects/Blockchain/BlockCertify/contracts/Certification.sol",
  "compiler": {
    "name": "solc",
    "version": "0.5.16+commit.9c3226ce.Emscripten.clang"
  },
  "schemaVersion": "3.3.1",
  "updatedAt": "2020-11-16T16:04:35.345Z",
  "networkType": "ethereum",
  "devdoc": {
    "methods": {}
  },
  "userdoc": {
    "methods": {}
  }
}