{
  "contractName": "Certification",
  "abi": [
    {
      "inputs": [],
      "payable": false,
      "stateMutability": "nonpayable",
      "type": "constructor"
    },
    {
      "constant": true,
      "inputs": [],
      "name": "contractAddress",
      "outputs": [
        {
          "internalType": "address",
          "name": "",
          "type": "address"
        }
      ],
      "payable": false,
      "stateMutability": "view",
      "type": "function"
    },
    {
      "constant": true,
      "inputs": [],
      "name": "courseCount",
      "outputs": [
        {
          "internalType": "uint256",
          "name": "",
          "type": "uint256"
        }
      ],
      "payable": false,
      "stateMutability": "view",
      "type": "function"
    },
    {
      "constant": true,
      "inputs": [
        {
          "internalType": "uint256",
          "name": "",
          "type": "uint256"
        }
      ],
      "name": "courses",
      "outputs": [
        {
          "internalType": "uint256",
          "name": "id",
          "type": "uint256"
        },
        {
          "internalType": "string",
          "name": "title",
          "type": "string"
        },
        {
          "internalType": "address",
          "name": "issuer",
          "type": "address"
        },
        {
          "internalType": "bool",
          "name": "certificated",
          "type": "bool"
        },
        {
          "internalType": "uint256",
          "name": "participantCount",
          "type": "uint256"
        }
      ],
      "payable": false,
      "stateMutability": "view",
      "type": "function"
    },
    {
      "constant": true,
      "inputs": [
        {
          "internalType": "address",
          "name": "",
          "type": "address"
        },
        {
          "internalType": "uint256",
          "name": "",
          "type": "uint256"
        }
      ],
      "name": "issuerCertificates",
      "outputs": [
        {
          "internalType": "address",
          "name": "issuer",
          "type": "address"
        },
        {
          "internalType": "address",
          "name": "participant",
          "type": "address"
        },
        {
          "internalType": "string",
          "name": "title",
          "type": "string"
        },
        {
          "internalType": "uint256",
          "name": "courseId",
          "type": "uint256"
        },
        {
          "internalType": "string",
          "name": "courseTitle",
          "type": "string"
        },
        {
          "internalType": "string",
          "name": "imageId",
          "type": "string"
        }
      ],
      "payable": false,
      "stateMutability": "view",
      "type": "function"
    },
    {
      "constant": true,
      "inputs": [
        {
          "internalType": "address",
          "name": "",
          "type": "address"
        },
        {
          "internalType": "uint256",
          "name": "",
          "type": "uint256"
        }
      ],
      "name": "issuerCourses",
      "outputs": [
        {
          "internalType": "uint256",
          "name": "",
          "type": "uint256"
        }
      ],
      "payable": false,
      "stateMutability": "view",
      "type": "function"
    },
    {
      "constant": true,
      "inputs": [
        {
          "internalType": "address",
          "name": "",
          "type": "address"
        },
        {
          "internalType": "uint256",
          "name": "",
          "type": "uint256"
        }
      ],
      "name": "participantCertificates",
      "outputs": [
        {
          "internalType": "address",
          "name": "issuer",
          "type": "address"
        },
        {
          "internalType": "address",
          "name": "participant",
          "type": "address"
        },
        {
          "internalType": "string",
          "name": "title",
          "type": "string"
        },
        {
          "internalType": "uint256",
          "name": "courseId",
          "type": "uint256"
        },
        {
          "internalType": "string",
          "name": "courseTitle",
          "type": "string"
        },
        {
          "internalType": "string",
          "name": "imageId",
          "type": "string"
        }
      ],
      "payable": false,
      "stateMutability": "view",
      "type": "function"
    },
    {
      "constant": true,
      "inputs": [
        {
          "internalType": "address",
          "name": "",
          "type": "address"
        },
        {
          "internalType": "uint256",
          "name": "",
          "type": "uint256"
        }
      ],
      "name": "participantCourses",
      "outputs": [
        {
          "internalType": "uint256",
          "name": "",
          "type": "uint256"
        }
      ],
      "payable": false,
      "stateMutability": "view",
      "type": "function"
    },
    {
      "constant": false,
      "inputs": [
        {
          "internalType": "string",
          "name": "_title",
          "type": "string"
        },
        {
          "internalType": "uint256",
          "name": "_courseId",
          "type": "uint256"
        },
        {
          "internalType": "string",
          "name": "_imageId",
          "type": "string"
        }
      ],
      "name": "addCourseCertificates",
      "outputs": [],
      "payable": false,
      "stateMutability": "nonpayable",
      "type": "function"
    },
    {
      "constant": true,
      "inputs": [
        {
          "internalType": "address",
          "name": "_user",
          "type": "address"
        }
      ],
      "name": "getIssuerCertificateCount",
      "outputs": [
        {
          "internalType": "uint256",
          "name": "count",
          "type": "uint256"
        }
      ],
      "payable": false,
      "stateMutability": "view",
      "type": "function"
    },
    {
      "constant": true,
      "inputs": [
        {
          "internalType": "address",
          "name": "_user",
          "type": "address"
        }
      ],
      "name": "getParticipantCertificateCount",
      "outputs": [
        {
          "internalType": "uint256",
          "name": "count",
          "type": "uint256"
        }
      ],
      "payable": false,
      "stateMutability": "view",
      "type": "function"
    },
    {
      "constant": true,
      "inputs": [
        {
          "internalType": "address",
          "name": "_issuer",
          "type": "address"
        }
      ],
      "name": "getIssuerCourseCount",
      "outputs": [
        {
          "internalType": "uint256",
          "name": "count",
          "type": "uint256"
        }
      ],
      "payable": false,
      "stateMutability": "view",
      "type": "function"
    },
    {
      "constant": true,
      "inputs": [
        {
          "internalType": "address",
          "name": "_participant",
          "type": "address"
        }
      ],
      "name": "getParticipantCourseCount",
      "outputs": [
        {
          "internalType": "uint256",
          "name": "count",
          "type": "uint256"
        }
      ],
      "payable": false,
      "stateMutability": "view",
      "type": "function"
    },
    {
      "constant": true,
      "inputs": [
        {
          "internalType": "uint256",
          "name": "_courseId",
          "type": "uint256"
        },
        {
          "internalType": "uint256",
          "name": "index",
          "type": "uint256"
        }
      ],
      "name": "getCourseParticipantAt",
      "outputs": [
        {
          "internalType": "address",
          "name": "count",
          "type": "address"
        }
      ],
      "payable": false,
      "stateMutability": "view",
      "type": "function"
    },
    {
      "constant": false,
      "inputs": [
        {
          "internalType": "string",
          "name": "_title",
          "type": "string"
        }
      ],
      "name": "addCourse",
      "outputs": [],
      "payable": false,
      "stateMutability": "nonpayable",
      "type": "function"
    },
    {
      "constant": false,
      "inputs": [
        {
          "internalType": "uint256",
          "name": "_courseId",
          "type": "uint256"
        },
        {
          "internalType": "address[]",
          "name": "_participants",
          "type": "address[]"
        }
      ],
      "name": "addCourseParticipants",
      "outputs": [],
      "payable": false,
      "stateMutability": "nonpayable",
      "type": "function"
    },
    {
      "constant": false,
      "inputs": [
        {
          "internalType": "uint256",
          "name": "_courseId",
          "type": "uint256"
        },
        {
          "internalType": "address[]",
          "name": "_participants",
          "type": "address[]"
        }
      ],
      "name": "removeCourseParticipants",
      "outputs": [],
      "payable": false,
      "stateMutability": "nonpayable",
      "type": "function"
    }
  ],
  "bytecode": "0x608060405233600660006101000a81548173ffffffffffffffffffffffffffffffffffffffff021916908373ffffffffffffffffffffffffffffffffffffffff1602179055503480156200005257600080fd5b50620000996040518060400160405280601181526020017f57656220456e67696e656572696e6720310000000000000000000000000000008152506200015460201b60201c565b620000df6040518060400160405280601381526020017f506f77657220456e67696e656572696e672031000000000000000000000000008152506200015460201b60201c565b600073ededb61b4efe88a65221109ddf44c85cde0b89ee9050806004600080815260200190815260200160002060020160006101000a81548173ffffffffffffffffffffffffffffffffffffffff021916908373ffffffffffffffffffffffffffffffffffffffff16021790555050620004a3565b6040518060c0016040528060055481526020018281526020013373ffffffffffffffffffffffffffffffffffffffff168152602001600015158152602001600081526020016000604051908082528060200260200182016040528015620001ca5781602001602082028038833980820191505090505b508152506004600060055481526020019081526020016000206000820151816000015560208201518160010190805190602001906200020b9291906200031f565b5060408201518160020160006101000a81548173ffffffffffffffffffffffffffffffffffffffff021916908373ffffffffffffffffffffffffffffffffffffffff16021790555060608201518160020160146101000a81548160ff0219169083151502179055506080820151816003015560a08201518160040190805190602001906200029b929190620003a6565b50905050600260003373ffffffffffffffffffffffffffffffffffffffff1673ffffffffffffffffffffffffffffffffffffffff168152602001908152602001600020600554908060018154018082558091505090600182039060005260206000200160009091929091909150555060056000815480929190600101919050555050565b828054600181600116156101000203166002900490600052602060002090601f016020900481019282601f106200036257805160ff191683800117855562000393565b8280016001018555821562000393579182015b828111156200039257825182559160200191906001019062000375565b5b509050620003a2919062000435565b5090565b82805482825590600052602060002090810192821562000422579160200282015b82811115620004215782518260006101000a81548173ffffffffffffffffffffffffffffffffffffffff021916908373ffffffffffffffffffffffffffffffffffffffff16021790555091602001919060010190620003c7565b5b5090506200043191906200045d565b5090565b6200045a91905b80821115620004565760008160009055506001016200043c565b5090565b90565b620004a091905b808211156200049c57600081816101000a81549073ffffffffffffffffffffffffffffffffffffffff02191690555060010162000464565b5090565b90565b61251b80620004b36000396000f3fe608060405234801561001057600080fd5b50600436106101005760003560e01c80638f00931011610097578063b036299311610066578063b0362993146102f1578063b959097a14610321578063f6b4dfb414610351578063f850692f1461036f57610100565b80638f00931014610228578063947ff3241461025857806396f979d21461028d578063a5399aaa146102c157610100565b8063355a8165116100d3578063355a816514610189578063401bcb0a146101be5780635bbc1c43146101ee578063660551591461020a57610100565b80631801604b146101055780631e0f92e9146101215780632dcfa82a1461013d5780632e5540761461016d575b600080fd5b61011f600480360361011a9190810190612030565b61039f565b005b61013b60048036036101369190810190612030565b610516565b005b61015760048036036101529190810190611ee2565b6107aa565b60405161016491906122fd565b60405180910390f35b61018760048036036101829190810190611f47565b6107f6565b005b6101a3600480360361019e9190810190611f0b565b6109bc565b6040516101b596959493929190612227565b60405180910390f35b6101d860048036036101d39190810190611ee2565b610c1a565b6040516101e591906122fd565b60405180910390f35b61020860048036036102039190810190611f88565b610c65565b005b610212611230565b60405161021f91906122fd565b60405180910390f35b610242600480360361023d9190810190611f0b565b611236565b60405161024f91906122fd565b60405180910390f35b610272600480360361026d9190810190611f0b565b611264565b60405161028496959493929190612227565b60405180910390f35b6102a760048036036102a29190810190612007565b6114c2565b6040516102b8959493929190612318565b60405180910390f35b6102db60048036036102d69190810190612084565b6115bd565b6040516102e8919061220c565b60405180910390f35b61030b60048036036103069190810190611f0b565b611613565b60405161031891906122fd565b60405180910390f35b61033b60048036036103369190810190611ee2565b611641565b60405161034891906122fd565b60405180910390f35b61035961168d565b604051610366919061220c565b60405180910390f35b61038960048036036103849190810190611ee2565b6116b3565b60405161039691906122fd565b60405180910390f35b6000600260003373ffffffffffffffffffffffffffffffffffffffff1673ffffffffffffffffffffffffffffffffffffffff1681526020019081526020016000208054905011610424576040517f08c379a000000000000000000000000000000000000000000000000000000000815260040161041b906122dd565b60405180910390fd5b3373ffffffffffffffffffffffffffffffffffffffff166004600084815260200190815260200160002060020160009054906101000a900473ffffffffffffffffffffffffffffffffffffffff1673ffffffffffffffffffffffffffffffffffffffff16146104c8576040517f08c379a00000000000000000000000000000000000000000000000000000000081526004016104bf9061229d565b60405180910390fd5b60008090505b81518110156105115760008282815181106104e557fe5b602002602001015190506104f981856116ff565b61050384826118f3565b5080806001019150506104ce565b505050565b6000600260003373ffffffffffffffffffffffffffffffffffffffff1673ffffffffffffffffffffffffffffffffffffffff168152602001908152602001600020805490501161059b576040517f08c379a0000000000000000000000000000000000000000000000000000000008152600401610592906122dd565b60405180910390fd5b3373ffffffffffffffffffffffffffffffffffffffff166004600084815260200190815260200160002060020160009054906101000a900473ffffffffffffffffffffffffffffffffffffffff1673ffffffffffffffffffffffffffffffffffffffff161461063f576040517f08c379a00000000000000000000000000000000000000000000000000000000081526004016106369061229d565b60405180910390fd5b60008090505b81518110156107a557600061066d8484848151811061066057fe5b6020026020010151611afe565b90508061079757600083838151811061068257fe5b60200260200101519050600460008681526020019081526020016000206004018190806001815401808255809150509060018203906000526020600020016000909192909190916101000a81548173ffffffffffffffffffffffffffffffffffffffff021916908373ffffffffffffffffffffffffffffffffffffffff16021790555050600360008273ffffffffffffffffffffffffffffffffffffffff1673ffffffffffffffffffffffffffffffffffffffff1681526020019081526020016000208590806001815401808255809150509060018203906000526020600020016000909192909190915055506004600086815260200190815260200160002060030160008154809291906001019190505550505b508080600101915050610645565b505050565b6000600360008373ffffffffffffffffffffffffffffffffffffffff1673ffffffffffffffffffffffffffffffffffffffff168152602001908152602001600020805490509050919050565b6040518060c0016040528060055481526020018281526020013373ffffffffffffffffffffffffffffffffffffffff16815260200160001515815260200160008152602001600060405190808252806020026020018201604052801561086b5781602001602082028038833980820191505090505b508152506004600060055481526020019081526020016000206000820151816000015560208201518160010190805190602001906108aa929190611c17565b5060408201518160020160006101000a81548173ffffffffffffffffffffffffffffffffffffffff021916908373ffffffffffffffffffffffffffffffffffffffff16021790555060608201518160020160146101000a81548160ff0219169083151502179055506080820151816003015560a0820151816004019080519060200190610938929190611c97565b50905050600260003373ffffffffffffffffffffffffffffffffffffffff1673ffffffffffffffffffffffffffffffffffffffff168152602001908152602001600020600554908060018154018082558091505090600182039060005260206000200160009091929091909150555060056000815480929190600101919050555050565b600160205281600052604060002081815481106109d557fe5b9060005260206000209060060201600091509150508060000160009054906101000a900473ffffffffffffffffffffffffffffffffffffffff16908060010160009054906101000a900473ffffffffffffffffffffffffffffffffffffffff1690806002018054600181600116156101000203166002900480601f016020809104026020016040519081016040528092919081815260200182805460018160011615610100020316600290048015610ace5780601f10610aa357610100808354040283529160200191610ace565b820191906000526020600020905b815481529060010190602001808311610ab157829003601f168201915b505050505090806003015490806004018054600181600116156101000203166002900480601f016020809104026020016040519081016040528092919081815260200182805460018160011615610100020316600290048015610b725780601f10610b4757610100808354040283529160200191610b72565b820191906000526020600020905b815481529060010190602001808311610b5557829003601f168201915b505050505090806005018054600181600116156101000203166002900480601f016020809104026020016040519081016040528092919081815260200182805460018160011615610100020316600290048015610c105780601f10610be557610100808354040283529160200191610c10565b820191906000526020600020905b815481529060010190602001808311610bf357829003601f168201915b5050505050905086565b60008060008373ffffffffffffffffffffffffffffffffffffffff1673ffffffffffffffffffffffffffffffffffffffff168152602001908152602001600020805490509050919050565b606060046000848152602001908152602001600020600401805480602002602001604051908101604052809291908181526020018280548015610cfd57602002820191906000526020600020905b8160009054906101000a900473ffffffffffffffffffffffffffffffffffffffff1673ffffffffffffffffffffffffffffffffffffffff1681526020019060010190808311610cb3575b505050505090506060600460008581526020019081526020016000206001018054600181600116156101000203166002900480601f016020809104026020016040519081016040528092919081815260200182805460018160011615610100020316600290048015610db05780601f10610d8557610100808354040283529160200191610db0565b820191906000526020600020905b815481529060010190602001808311610d9357829003601f168201915b505050505090503373ffffffffffffffffffffffffffffffffffffffff166004600086815260200190815260200160002060020160009054906101000a900473ffffffffffffffffffffffffffffffffffffffff1673ffffffffffffffffffffffffffffffffffffffff1614610e5b576040517f08c379a0000000000000000000000000000000000000000000000000000000008152600401610e52906122bd565b60405180910390fd5b60008090505b82518110156111f9576000838281518110610e7857fe5b60200260200101519050600160008273ffffffffffffffffffffffffffffffffffffffff1673ffffffffffffffffffffffffffffffffffffffff1681526020019081526020016000206040518060c001604052803373ffffffffffffffffffffffffffffffffffffffff1681526020018373ffffffffffffffffffffffffffffffffffffffff168152602001898152602001888152602001858152602001878152509080600181540180825580915050906001820390600052602060002090600602016000909192909190915060008201518160000160006101000a81548173ffffffffffffffffffffffffffffffffffffffff021916908373ffffffffffffffffffffffffffffffffffffffff16021790555060208201518160010160006101000a81548173ffffffffffffffffffffffffffffffffffffffff021916908373ffffffffffffffffffffffffffffffffffffffff1602179055506040820151816002019080519060200190610fef929190611c17565b50606082015181600301556080820151816004019080519060200190611016929190611c17565b5060a0820151816005019080519060200190611033929190611c17565b505050506000803373ffffffffffffffffffffffffffffffffffffffff1673ffffffffffffffffffffffffffffffffffffffff1681526020019081526020016000206040518060c001604052803373ffffffffffffffffffffffffffffffffffffffff1681526020018373ffffffffffffffffffffffffffffffffffffffff168152602001898152602001888152602001858152602001878152509080600181540180825580915050906001820390600052602060002090600602016000909192909190915060008201518160000160006101000a81548173ffffffffffffffffffffffffffffffffffffffff021916908373ffffffffffffffffffffffffffffffffffffffff16021790555060208201518160010160006101000a81548173ffffffffffffffffffffffffffffffffffffffff021916908373ffffffffffffffffffffffffffffffffffffffff16021790555060408201518160020190805190602001906111a3929190611c17565b506060820151816003015560808201518160040190805190602001906111ca929190611c17565b5060a08201518160050190805190602001906111e7929190611c17565b50505050508080600101915050610e61565b5060016004600086815260200190815260200160002060020160146101000a81548160ff0219169083151502179055505050505050565b60055481565b6003602052816000526040600020818154811061124f57fe5b90600052602060002001600091509150505481565b6000602052816000526040600020818154811061127d57fe5b9060005260206000209060060201600091509150508060000160009054906101000a900473ffffffffffffffffffffffffffffffffffffffff16908060010160009054906101000a900473ffffffffffffffffffffffffffffffffffffffff1690806002018054600181600116156101000203166002900480601f0160208091040260200160405190810160405280929190818152602001828054600181600116156101000203166002900480156113765780601f1061134b57610100808354040283529160200191611376565b820191906000526020600020905b81548152906001019060200180831161135957829003601f168201915b505050505090806003015490806004018054600181600116156101000203166002900480601f01602080910402602001604051908101604052809291908181526020018280546001816001161561010002031660029004801561141a5780601f106113ef5761010080835404028352916020019161141a565b820191906000526020600020905b8154815290600101906020018083116113fd57829003601f168201915b505050505090806005018054600181600116156101000203166002900480601f0160208091040260200160405190810160405280929190818152602001828054600181600116156101000203166002900480156114b85780601f1061148d576101008083540402835291602001916114b8565b820191906000526020600020905b81548152906001019060200180831161149b57829003601f168201915b5050505050905086565b6004602052806000526040600020600091509050806000015490806001018054600181600116156101000203166002900480601f0160208091040260200160405190810160405280929190818152602001828054600181600116156101000203166002900480156115745780601f1061154957610100808354040283529160200191611574565b820191906000526020600020905b81548152906001019060200180831161155757829003601f168201915b5050505050908060020160009054906101000a900473ffffffffffffffffffffffffffffffffffffffff16908060020160149054906101000a900460ff16908060030154905085565b60006004600084815260200190815260200160002060040182815481106115e057fe5b9060005260206000200160009054906101000a900473ffffffffffffffffffffffffffffffffffffffff16905092915050565b6002602052816000526040600020818154811061162c57fe5b90600052602060002001600091509150505481565b6000600260008373ffffffffffffffffffffffffffffffffffffffff1673ffffffffffffffffffffffffffffffffffffffff168152602001908152602001600020805490509050919050565b600660009054906101000a900473ffffffffffffffffffffffffffffffffffffffff1681565b6000600160008373ffffffffffffffffffffffffffffffffffffffff1673ffffffffffffffffffffffffffffffffffffffff168152602001908152602001600020805490509050919050565b6060600360008473ffffffffffffffffffffffffffffffffffffffff1673ffffffffffffffffffffffffffffffffffffffff16815260200190815260200160002080548060200260200160405190810160405280929190818152602001828054801561178a57602002820191906000526020600020905b815481526020019060010190808311611776575b5050505050905060008151905060005b818110156118ec57838382815181106117af57fe5b602002602001015114156118df578260018303815181106117cc57fe5b6020026020010151600360008773ffffffffffffffffffffffffffffffffffffffff1673ffffffffffffffffffffffffffffffffffffffff168152602001908152602001600020828154811061181e57fe5b9060005260206000200181905550600360008673ffffffffffffffffffffffffffffffffffffffff1673ffffffffffffffffffffffffffffffffffffffff168152602001908152602001600020600183038154811061187957fe5b9060005260206000200160009055600360008673ffffffffffffffffffffffffffffffffffffffff1673ffffffffffffffffffffffffffffffffffffffff1681526020019081526020016000208054809190600190036118d99190611d21565b506118ec565b808060010191505061179a565b5050505050565b60606004600084815260200190815260200160002060040180548060200260200160405190810160405280929190818152602001828054801561198b57602002820191906000526020600020905b8160009054906101000a900473ffffffffffffffffffffffffffffffffffffffff1673ffffffffffffffffffffffffffffffffffffffff1681526020019060010190808311611941575b5050505050905060008151905060005b81811015611af7578373ffffffffffffffffffffffffffffffffffffffff168382815181106119c657fe5b602002602001015173ffffffffffffffffffffffffffffffffffffffff161415611aea578260018303815181106119f957fe5b6020026020010151600460008781526020019081526020016000206004018281548110611a2257fe5b9060005260206000200160006101000a81548173ffffffffffffffffffffffffffffffffffffffff021916908373ffffffffffffffffffffffffffffffffffffffff160217905550600460008681526020019081526020016000206004016001830381548110611a8e57fe5b9060005260206000200160006101000a81549073ffffffffffffffffffffffffffffffffffffffff021916905560046000868152602001908152602001600020600401805480919060019003611ae49190611d4d565b50611af7565b808060010191505061199b565b5050505050565b6000606060046000858152602001908152602001600020600401805480602002602001604051908101604052809291908181526020018280548015611b9857602002820191906000526020600020905b8160009054906101000a900473ffffffffffffffffffffffffffffffffffffffff1673ffffffffffffffffffffffffffffffffffffffff1681526020019060010190808311611b4e575b5050505050905060005b8151811015611c0a578373ffffffffffffffffffffffffffffffffffffffff16828281518110611bce57fe5b602002602001015173ffffffffffffffffffffffffffffffffffffffff161415611bfd57600192505050611c11565b8080600101915050611ba2565b5060009150505b92915050565b828054600181600116156101000203166002900490600052602060002090601f016020900481019282601f10611c5857805160ff1916838001178555611c86565b82800160010185558215611c86579182015b82811115611c85578251825591602001919060010190611c6a565b5b509050611c939190611d79565b5090565b828054828255906000526020600020908101928215611d10579160200282015b82811115611d0f5782518260006101000a81548173ffffffffffffffffffffffffffffffffffffffff021916908373ffffffffffffffffffffffffffffffffffffffff16021790555091602001919060010190611cb7565b5b509050611d1d9190611d9e565b5090565b815481835581811115611d4857818360005260206000209182019101611d479190611d79565b5b505050565b815481835581811115611d7457818360005260206000209182019101611d739190611d79565b5b505050565b611d9b91905b80821115611d97576000816000905550600101611d7f565b5090565b90565b611dde91905b80821115611dda57600081816101000a81549073ffffffffffffffffffffffffffffffffffffffff021916905550600101611da4565b5090565b90565b600081359050611df0816124aa565b92915050565b600082601f830112611e0757600080fd5b8135611e1a611e158261239f565b612372565b91508181835260208401935060208101905083856020840282011115611e3f57600080fd5b60005b83811015611e6f5781611e558882611de1565b845260208401935060208301925050600181019050611e42565b5050505092915050565b600082601f830112611e8a57600080fd5b8135611e9d611e98826123c7565b612372565b91508082526020830160208301858383011115611eb957600080fd5b611ec4838284612457565b50505092915050565b600081359050611edc816124c1565b92915050565b600060208284031215611ef457600080fd5b6000611f0284828501611de1565b91505092915050565b60008060408385031215611f1e57600080fd5b6000611f2c85828601611de1565b9250506020611f3d85828601611ecd565b9150509250929050565b600060208284031215611f5957600080fd5b600082013567ffffffffffffffff811115611f7357600080fd5b611f7f84828501611e79565b91505092915050565b600080600060608486031215611f9d57600080fd5b600084013567ffffffffffffffff811115611fb757600080fd5b611fc386828701611e79565b9350506020611fd486828701611ecd565b925050604084013567ffffffffffffffff811115611ff157600080fd5b611ffd86828701611e79565b9150509250925092565b60006020828403121561201957600080fd5b600061202784828501611ecd565b91505092915050565b6000806040838503121561204357600080fd5b600061205185828601611ecd565b925050602083013567ffffffffffffffff81111561206e57600080fd5b61207a85828601611df6565b9150509250929050565b6000806040838503121561209757600080fd5b60006120a585828601611ecd565b92505060206120b685828601611ecd565b9150509250929050565b6120c98161240f565b82525050565b6120d881612421565b82525050565b60006120e9826123f3565b6120f381856123fe565b9350612103818560208601612466565b61210c81612499565b840191505092915050565b60006121246021836123fe565b91507f596f7520617265206e6f74206f776e6572206f66207468697320636f7572736560008301527f21000000000000000000000000000000000000000000000000000000000000006020830152604082019050919050565b600061218a6020836123fe565b91507f596f7520617265206e6f74206f776e6572206f66207468697320636f757273656000830152602082019050919050565b60006121ca6010836123fe565b91507f4e6f20636f7572736520666f756e6421000000000000000000000000000000006000830152602082019050919050565b6122068161244d565b82525050565b600060208201905061222160008301846120c0565b92915050565b600060c08201905061223c60008301896120c0565b61224960208301886120c0565b818103604083015261225b81876120de565b905061226a60608301866121fd565b818103608083015261227c81856120de565b905081810360a083015261229081846120de565b9050979650505050505050565b600060208201905081810360008301526122b681612117565b9050919050565b600060208201905081810360008301526122d68161217d565b9050919050565b600060208201905081810360008301526122f6816121bd565b9050919050565b600060208201905061231260008301846121fd565b92915050565b600060a08201905061232d60008301886121fd565b818103602083015261233f81876120de565b905061234e60408301866120c0565b61235b60608301856120cf565b61236860808301846121fd565b9695505050505050565b6000604051905081810181811067ffffffffffffffff8211171561239557600080fd5b8060405250919050565b600067ffffffffffffffff8211156123b657600080fd5b602082029050602081019050919050565b600067ffffffffffffffff8211156123de57600080fd5b601f19601f8301169050602081019050919050565b600081519050919050565b600082825260208201905092915050565b600061241a8261242d565b9050919050565b60008115159050919050565b600073ffffffffffffffffffffffffffffffffffffffff82169050919050565b6000819050919050565b82818337600083830152505050565b60005b83811015612484578082015181840152602081019050612469565b83811115612493576000848401525b50505050565b6000601f19601f8301169050919050565b6124b38161240f565b81146124be57600080fd5b50565b6124ca8161244d565b81146124d557600080fd5b5056fea365627a7a7231582026ec3d26206f3426c206259508be3cfbfa98ad339f51c64c81ebeec9550160736c6578706572696d656e74616cf564736f6c63430005100040",
  "source": "pragma solidity 0.5.16;\npragma experimental ABIEncoderV2;\n\ncontract Certification {\n\n    struct Certifate {\n        address issuer;\n        address participant;\n        string title;\n        uint courseId;\n        string courseTitle;\n        string imageId;\n    }\n\n    struct Course {\n        uint id;\n        string title;\n        address issuer;\n        bool certificated;\n\n        uint participantCount;\n        address[] participants;\n    }\n\n    // map issuer address to Certifate to get own created Certifates\n    mapping(address => Certifate[]) public issuerCertificates;\n    // map participant to Certifate to get received Certifates\n    mapping(address => Certifate[]) public participantCertificates;\n\n    // map issuer address to Courses to get own created Courses\n    mapping(address => uint[]) public issuerCourses;\n    // map participant to Courses to get Courses where the user is a participant\n    mapping(address => uint[]) public participantCourses;\n\n    mapping(uint => Course) public courses;\n\n    uint public courseCount;\n    address public contractAddress = msg.sender;\n\n    function addCourseCertificates(string memory _title, uint _courseId, string memory _imageId) public {\n        address[] memory participants = courses[_courseId].participants;\n\n        string memory courseTitle = courses[_courseId].title;\n\n        require(courses[_courseId].issuer == msg.sender, \"You are not owner of this course\");\n\n        for (uint i = 0; i < participants.length; i++) {\n            address participant = participants[i];\n            \n            participantCertificates[participant].push(\n                Certifate(msg.sender, participant, _title, _courseId, courseTitle, _imageId)\n            );\n\n            issuerCertificates[msg.sender].push(\n                Certifate(msg.sender, participant, _title, _courseId, courseTitle, _imageId)\n            );\n        }\n\n        courses[_courseId].certificated = true;\n    }\n\n    function getIssuerCertificateCount (address _user) public view returns (uint count){\n        return issuerCertificates[_user].length;\n    }\n    \n    function getParticipantCertificateCount (address _user) public view returns (uint count){\n        return participantCertificates[_user].length;\n    }\n\n    function getIssuerCourseCount (address _issuer) public view returns (uint count){\n        return issuerCourses[_issuer].length;\n    }\n\n    function getParticipantCourseCount(address _participant) public view returns (uint count) {\n        return participantCourses[_participant].length;\n    }\n\n    function getCourseParticipantAt(uint _courseId, uint index) public view returns (address count){\n        return courses[_courseId].participants[index];\n    }\n\n    function addCourse (string memory _title) public {\n        courses[courseCount] = Course(courseCount, _title, msg.sender, false, 0, new address[](0));\n        issuerCourses[msg.sender].push(courseCount);\n        courseCount++;\n    }\n\n    function addCourseParticipants(uint _courseId, address[] memory _participants) public {\n\n        require(issuerCourses[msg.sender].length > 0, \"No course found!\");\n        require(courses[_courseId].issuer == msg.sender, \"You are not owner of this course!\");\n\n        for (uint i = 0; i < _participants.length; i++) {\n            // check if participant is already in course\n            bool exists = participantExists(_courseId, _participants[i]);\n            if (!exists) {\n                address participant = _participants[i];\n                courses[_courseId].participants.push(participant);\n                participantCourses[participant].push(_courseId);\n                courses[_courseId].participantCount++;\n            }\n        }\n    }\n\n    function removeCourseParticipants(uint _courseId, address[] memory _participants) public {\n\n        require(issuerCourses[msg.sender].length > 0, \"No course found!\");\n        require(courses[_courseId].issuer == msg.sender, \"You are not owner of this course!\");\n\n        for (uint i = 0; i < _participants.length; i++) {\n            // check if participant is already in course\n            address participant = _participants[i];\n            removeParticipantCourse(participant, _courseId);\n            removeCourseParticipant(_courseId, participant);\n        }\n    }\n\n    function removeParticipantCourse (address _participant, uint _courseId) private {\n        uint[] memory _courses = participantCourses[_participant];\n\n        // go through all participantCourses\n        uint numberOfCourses = _courses.length;\n        for (uint i; i < numberOfCourses; i++) {\n\n            // check if participantCourse is the target one\n            if (_courses[i] == _courseId) {\n                // delete participantCourse by \"swaping & delete\"\n                participantCourses[_participant][i] = _courses[numberOfCourses - 1];\n                delete participantCourses[_participant][numberOfCourses - 1];\n                participantCourses[_participant].length--;\n                break;\n            }\n        }\n    }\n\n    function removeCourseParticipant (uint _courseId, address _participant) private {\n        address[] memory _participants = courses[_courseId].participants;\n\n        // go through all courseParticipants\n        uint numberOfParticipants = _participants.length;\n        for (uint i; i < numberOfParticipants; i++) {\n\n            // check if courseParticipant is the target one\n            if (_participants[i] == _participant) {\n                // delete courseParticipant by \"swaping & delete\"\n                courses[_courseId].participants[i] = _participants[numberOfParticipants - 1];\n                delete courses[_courseId].participants[numberOfParticipants - 1];\n                courses[_courseId].participants.length--;\n                break;\n            }\n        }\n    }\n\n    function participantExists (uint _courseId, address _participant) private view returns (bool) {\n        address[] memory participants = courses[_courseId].participants;\n        for (uint i; i < participants.length; i++) {\n            if (participants[i]==_participant) {\n                return true;\n            }\n        }\n        return false;\n    }\n\n\n    address[] participants;\n\n    constructor() public {\n        addCourse(\"Web Engineering 1\"); // course id: 0\n        addCourse(\"Power Engineering 1\"); // course id: 1\n        \n        // manually change owner of first course for testing if owner is correct\n        address mockIssuer = 0xededB61b4efE88a65221109ddF44C85cdE0B89ee;\n        courses[0].issuer = mockIssuer;\n\n        // addCourseParticipants(0, participants);\n        // addCourseParticipants(1, participants);\n    }\n}",
  "sourcePath": "/Users/jacob/Desktop/Projects/Blockchain/BlockCertify/contracts/Certification.sol",
  "compiler": {
    "name": "solc",
    "version": "0.5.16+commit.9c3226ce.Emscripten.clang"
  },
  "schemaVersion": "3.3.1",
  "updatedAt": "2020-12-05T09:29:49.561Z",
  "networkType": "ethereum",
  "devdoc": {
    "methods": {}
  },
  "userdoc": {
    "methods": {}
  }
}