{
  "contractName": "Certification",
  "abi": [
    {
      "inputs": [],
      "payable": false,
      "stateMutability": "nonpayable",
      "type": "constructor"
    },
    {
      "anonymous": false,
      "inputs": [
        {
          "indexed": false,
          "internalType": "address[]",
          "name": "",
          "type": "address[]"
        }
      ],
      "name": "logCourses",
      "type": "event"
    },
    {
      "constant": true,
      "inputs": [],
      "name": "certificateCount",
      "outputs": [
        {
          "internalType": "uint256",
          "name": "",
          "type": "uint256"
        }
      ],
      "payable": false,
      "stateMutability": "view",
      "type": "function"
    },
    {
      "constant": true,
      "inputs": [
        {
          "internalType": "uint256",
          "name": "",
          "type": "uint256"
        }
      ],
      "name": "certificates",
      "outputs": [
        {
          "internalType": "uint256",
          "name": "courseId",
          "type": "uint256"
        },
        {
          "internalType": "address",
          "name": "publisher",
          "type": "address"
        },
        {
          "internalType": "address",
          "name": "participant",
          "type": "address"
        },
        {
          "internalType": "string",
          "name": "title",
          "type": "string"
        },
        {
          "internalType": "string",
          "name": "course",
          "type": "string"
        }
      ],
      "payable": false,
      "stateMutability": "view",
      "type": "function"
    },
    {
      "constant": true,
      "inputs": [],
      "name": "courseCount",
      "outputs": [
        {
          "internalType": "uint256",
          "name": "",
          "type": "uint256"
        }
      ],
      "payable": false,
      "stateMutability": "view",
      "type": "function"
    },
    {
      "constant": true,
      "inputs": [
        {
          "internalType": "uint256",
          "name": "",
          "type": "uint256"
        },
        {
          "internalType": "uint256",
          "name": "",
          "type": "uint256"
        }
      ],
      "name": "courseParticipants",
      "outputs": [
        {
          "internalType": "address",
          "name": "",
          "type": "address"
        }
      ],
      "payable": false,
      "stateMutability": "view",
      "type": "function"
    },
    {
      "constant": true,
      "inputs": [
        {
          "internalType": "address",
          "name": "",
          "type": "address"
        },
        {
          "internalType": "uint256",
          "name": "",
          "type": "uint256"
        }
      ],
      "name": "courses",
      "outputs": [
        {
          "internalType": "uint256",
          "name": "id",
          "type": "uint256"
        },
        {
          "internalType": "string",
          "name": "title",
          "type": "string"
        }
      ],
      "payable": false,
      "stateMutability": "view",
      "type": "function"
    },
    {
      "constant": false,
      "inputs": [
        {
          "internalType": "address",
          "name": "_collector",
          "type": "address"
        },
        {
          "internalType": "string",
          "name": "_title",
          "type": "string"
        },
        {
          "internalType": "string",
          "name": "_course",
          "type": "string"
        }
      ],
      "name": "addCertificate",
      "outputs": [],
      "payable": false,
      "stateMutability": "nonpayable",
      "type": "function"
    },
    {
      "constant": false,
      "inputs": [
        {
          "internalType": "string",
          "name": "_title",
          "type": "string"
        }
      ],
      "name": "addCourse",
      "outputs": [],
      "payable": false,
      "stateMutability": "nonpayable",
      "type": "function"
    },
    {
      "constant": false,
      "inputs": [
        {
          "internalType": "uint256",
          "name": "_courseId",
          "type": "uint256"
        },
        {
          "internalType": "address",
          "name": "_participant",
          "type": "address"
        }
      ],
      "name": "addParticipant",
      "outputs": [],
      "payable": false,
      "stateMutability": "nonpayable",
      "type": "function"
    }
  ],
  "bytecode": "0x60806040523480156200001157600080fd5b50620000586040518060400160405280601181526020017f57656220456e67696e656572696e6720310000000000000000000000000000008152506200039a60201b60201c565b6200009e6040518060400160405280601381526020017f506f77657220456e67696e656572696e672031000000000000000000000000008152506200039a60201b60201c565b600073dcad3a6d3569df655070ded06cb7a1b2ccd1d3af9050600073fc9a8e621f0d8821a770a5cee4cef8a90d387e8d9050620000e36000836200045c60201b60201c565b620000f66001826200045c60201b60201c565b600073dcad3a6d3569df655070ded06cb7a1b2ccd1d3af905062000250816040518060400160405280600c81526020017f57656220456e67696e6565720000000000000000000000000000000000000000815250600160003373ffffffffffffffffffffffffffffffffffffffff1673ffffffffffffffffffffffffffffffffffffffff1681526020019081526020016000206000815481106200019657fe5b90600052602060002090600202016001018054600181600116156101000203166002900480601f0160208091040260200160405190810160405280929190818152602001828054600181600116156101000203166002900480156200023f5780601f1062000213576101008083540402835291602001916200023f565b820191906000526020600020905b8154815290600101906020018083116200022157829003601f168201915b50505050506200083160201b60201c565b62000391816040518060400160405280600e81526020017f506f77657220456e67696e656572000000000000000000000000000000000000815250600160003373ffffffffffffffffffffffffffffffffffffffff1673ffffffffffffffffffffffffffffffffffffffff168152602001908152602001600020600181548110620002d757fe5b90600052602060002090600202016001018054600181600116156101000203166002900480601f016020809104026020016040519081016040528092919081815260200182805460018160011615610100020316600290048015620003805780601f10620003545761010080835404028352916020019162000380565b820191906000526020600020905b8154815290600101906020018083116200036257829003601f168201915b50505050506200083160201b60201c565b50505062000b56565b600160003373ffffffffffffffffffffffffffffffffffffffff1673ffffffffffffffffffffffffffffffffffffffff1681526020019081526020016000206040518060400160405280600454815260200183815250908060018154018082558091505090600182039060005260206000209060020201600090919290919091506000820151816000015560208201518160010190805190602001906200044392919062000aa7565b5050505060046000815480929190600101919050555050565b6000600160003373ffffffffffffffffffffffffffffffffffffffff1673ffffffffffffffffffffffffffffffffffffffff168152602001908152602001600020805490501162000515576040517f08c379a00000000000000000000000000000000000000000000000000000000081526004018080602001828103825260108152602001807f4e6f20636f7572736520666f756e64210000000000000000000000000000000081525060200191505060405180910390fd5b6060600160003373ffffffffffffffffffffffffffffffffffffffff1673ffffffffffffffffffffffffffffffffffffffff168152602001908152602001600020805480602002602001604051908101604052809291908181526020016000905b828210156200065a578382906000526020600020906002020160405180604001604052908160008201548152602001600182018054600181600116156101000203166002900480601f016020809104026020016040519081016040528092919081815260200182805460018160011615610100020316600290048015620006415780601f10620006155761010080835404028352916020019162000641565b820191906000526020600020905b8154815290600101906020018083116200062357829003601f168201915b5050505050815250508152602001906001019062000576565b505050509050600081519050600080905060008090505b82811015620006b857858482815181106200068857fe5b60200260200101516000015114620006a057620006aa565b60019150620006b8565b808060010191505062000671565b50806200072d576040517f08c379a00000000000000000000000000000000000000000000000000000000081526004018080602001828103825260168152602001807f436f7572736520646f6573206e6f74206578697374210000000000000000000081525060200191505060405180910390fd5b6200073f85856200098a60201b60201c565b15620007b3576040517f08c379a000000000000000000000000000000000000000000000000000000000815260040180806020018281038252601e8152602001807f5061727469636970616e7420616c726561647920696e20636f7572736521000081525060200191505060405180910390fd5b600260008681526020019081526020016000208490806001815401808255809150509060018203906000526020600020016000909192909190916101000a81548173ffffffffffffffffffffffffffffffffffffffff021916908373ffffffffffffffffffffffffffffffffffffffff160217905550505050505050565b6040518060a0016040528060035481526020013373ffffffffffffffffffffffffffffffffffffffff1681526020018473ffffffffffffffffffffffffffffffffffffffff1681526020018381526020018281525060008060035481526020019081526020016000206000820151816000015560208201518160010160006101000a81548173ffffffffffffffffffffffffffffffffffffffff021916908373ffffffffffffffffffffffffffffffffffffffff16021790555060408201518160020160006101000a81548173ffffffffffffffffffffffffffffffffffffffff021916908373ffffffffffffffffffffffffffffffffffffffff16021790555060608201518160030190805190602001906200095092919062000aa7565b5060808201518160040190805190602001906200096f92919062000aa7565b50905050600360008154809291906001019190505550505050565b600060606002600085815260200190815260200160002080548060200260200160405190810160405280929190818152602001828054801562000a2357602002820191906000526020600020905b8160009054906101000a900473ffffffffffffffffffffffffffffffffffffffff1673ffffffffffffffffffffffffffffffffffffffff1681526020019060010190808311620009d8575b5050505050905060005b815181101562000a9a578373ffffffffffffffffffffffffffffffffffffffff1682828151811062000a5b57fe5b602002602001015173ffffffffffffffffffffffffffffffffffffffff16141562000a8c5760019250505062000aa1565b808060010191505062000a2d565b5060009150505b92915050565b828054600181600116156101000203166002900490600052602060002090601f016020900481019282601f1062000aea57805160ff191683800117855562000b1b565b8280016001018555821562000b1b579182015b8281111562000b1a57825182559160200191906001019062000afd565b5b50905062000b2a919062000b2e565b5090565b62000b5391905b8082111562000b4f57600081600090555060010162000b35565b5090565b90565b6110a08062000b666000396000f3fe608060405234801561001057600080fd5b50600436106100885760003560e01c8063660551591161005b578063660551591461022c578063663b3e221461024a578063c1e478cb146103ca578063ffecb92f1461049857610088565b806318d85e531461008d5780632e554076146100db57806339fd60891461019657806352d7b89c1461020e575b600080fd5b6100d9600480360360408110156100a357600080fd5b8101908080359060200190929190803573ffffffffffffffffffffffffffffffffffffffff16906020019092919050505061060a565b005b610194600480360360208110156100f157600080fd5b810190808035906020019064010000000081111561010e57600080fd5b82018360208201111561012057600080fd5b8035906020019184600183028401116401000000008311171561014257600080fd5b91908080601f016020809104026020016040519081016040528093929190818152602001838380828437600081840152601f19601f8201169050808301925050505050505091929192905050506109c8565b005b6101cc600480360360408110156101ac57600080fd5b810190808035906020019092919080359060200190929190505050610a88565b604051808273ffffffffffffffffffffffffffffffffffffffff1673ffffffffffffffffffffffffffffffffffffffff16815260200191505060405180910390f35b610216610ad3565b6040518082815260200191505060405180910390f35b610234610ad9565b6040518082815260200191505060405180910390f35b6102766004803603602081101561026057600080fd5b8101908080359060200190929190505050610adf565b604051808681526020018573ffffffffffffffffffffffffffffffffffffffff1673ffffffffffffffffffffffffffffffffffffffff1681526020018473ffffffffffffffffffffffffffffffffffffffff1673ffffffffffffffffffffffffffffffffffffffff1681526020018060200180602001838103835285818151815260200191508051906020019080838360005b83811015610324578082015181840152602081019050610309565b50505050905090810190601f1680156103515780820380516001836020036101000a031916815260200191505b50838103825284818151815260200191508051906020019080838360005b8381101561038a57808201518184015260208101905061036f565b50505050905090810190601f1680156103b75780820380516001836020036101000a031916815260200191505b5097505050505050505060405180910390f35b610416600480360360408110156103e057600080fd5b81019080803573ffffffffffffffffffffffffffffffffffffffff16906020019092919080359060200190929190505050610c85565b6040518083815260200180602001828103825283818151815260200191508051906020019080838360005b8381101561045c578082015181840152602081019050610441565b50505050905090810190601f1680156104895780820380516001836020036101000a031916815260200191505b50935050505060405180910390f35b610608600480360360608110156104ae57600080fd5b81019080803573ffffffffffffffffffffffffffffffffffffffff169060200190929190803590602001906401000000008111156104eb57600080fd5b8201836020820111156104fd57600080fd5b8035906020019184600183028401116401000000008311171561051f57600080fd5b91908080601f016020809104026020016040519081016040528093929190818152602001838380828437600081840152601f19601f8201169050808301925050505050505091929192908035906020019064010000000081111561058257600080fd5b82018360208201111561059457600080fd5b803590602001918460018302840111640100000000831117156105b657600080fd5b91908080601f016020809104026020016040519081016040528093929190818152602001838380828437600081840152601f19601f820116905080830192505050505050509192919290505050610d5b565b005b6000600160003373ffffffffffffffffffffffffffffffffffffffff1673ffffffffffffffffffffffffffffffffffffffff16815260200190815260200160002080549050116106c2576040517f08c379a00000000000000000000000000000000000000000000000000000000081526004018080602001828103825260108152602001807f4e6f20636f7572736520666f756e64210000000000000000000000000000000081525060200191505060405180910390fd5b6060600160003373ffffffffffffffffffffffffffffffffffffffff1673ffffffffffffffffffffffffffffffffffffffff168152602001908152602001600020805480602002602001604051908101604052809291908181526020016000905b82821015610801578382906000526020600020906002020160405180604001604052908160008201548152602001600182018054600181600116156101000203166002900480601f0160208091040260200160405190810160405280929190818152602001828054600181600116156101000203166002900480156107e95780601f106107be576101008083540402835291602001916107e9565b820191906000526020600020905b8154815290600101906020018083116107cc57829003601f168201915b50505050508152505081526020019060010190610723565b505050509050600081519050600080905060008090505b82811015610859578584828151811061082d57fe5b602002602001015160000151146108435761084c565b60019150610859565b8080600101915050610818565b50806108cd576040517f08c379a00000000000000000000000000000000000000000000000000000000081526004018080602001828103825260168152602001807f436f7572736520646f6573206e6f74206578697374210000000000000000000081525060200191505060405180910390fd5b6108d78585610eb0565b1561094a576040517f08c379a000000000000000000000000000000000000000000000000000000000815260040180806020018281038252601e8152602001807f5061727469636970616e7420616c726561647920696e20636f7572736521000081525060200191505060405180910390fd5b600260008681526020019081526020016000208490806001815401808255809150509060018203906000526020600020016000909192909190916101000a81548173ffffffffffffffffffffffffffffffffffffffff021916908373ffffffffffffffffffffffffffffffffffffffff160217905550505050505050565b600160003373ffffffffffffffffffffffffffffffffffffffff1673ffffffffffffffffffffffffffffffffffffffff168152602001908152602001600020604051806040016040528060045481526020018381525090806001815401808255809150509060018203906000526020600020906002020160009091929091909150600082015181600001556020820151816001019080519060200190610a6f929190610fc6565b5050505060046000815480929190600101919050555050565b60026020528160005260406000208181548110610aa157fe5b906000526020600020016000915091509054906101000a900473ffffffffffffffffffffffffffffffffffffffff1681565b60035481565b60045481565b60006020528060005260406000206000915090508060000154908060010160009054906101000a900473ffffffffffffffffffffffffffffffffffffffff16908060020160009054906101000a900473ffffffffffffffffffffffffffffffffffffffff1690806003018054600181600116156101000203166002900480601f016020809104026020016040519081016040528092919081815260200182805460018160011615610100020316600290048015610bdd5780601f10610bb257610100808354040283529160200191610bdd565b820191906000526020600020905b815481529060010190602001808311610bc057829003601f168201915b505050505090806004018054600181600116156101000203166002900480601f016020809104026020016040519081016040528092919081815260200182805460018160011615610100020316600290048015610c7b5780601f10610c5057610100808354040283529160200191610c7b565b820191906000526020600020905b815481529060010190602001808311610c5e57829003601f168201915b5050505050905085565b60016020528160005260406000208181548110610c9e57fe5b906000526020600020906002020160009150915050806000015490806001018054600181600116156101000203166002900480601f016020809104026020016040519081016040528092919081815260200182805460018160011615610100020316600290048015610d515780601f10610d2657610100808354040283529160200191610d51565b820191906000526020600020905b815481529060010190602001808311610d3457829003601f168201915b5050505050905082565b6040518060a0016040528060035481526020013373ffffffffffffffffffffffffffffffffffffffff1681526020018473ffffffffffffffffffffffffffffffffffffffff1681526020018381526020018281525060008060035481526020019081526020016000206000820151816000015560208201518160010160006101000a81548173ffffffffffffffffffffffffffffffffffffffff021916908373ffffffffffffffffffffffffffffffffffffffff16021790555060408201518160020160006101000a81548173ffffffffffffffffffffffffffffffffffffffff021916908373ffffffffffffffffffffffffffffffffffffffff1602179055506060820151816003019080519060200190610e78929190610fc6565b506080820151816004019080519060200190610e95929190610fc6565b50905050600360008154809291906001019190505550505050565b6000606060026000858152602001908152602001600020805480602002602001604051908101604052809291908181526020018280548015610f4757602002820191906000526020600020905b8160009054906101000a900473ffffffffffffffffffffffffffffffffffffffff1673ffffffffffffffffffffffffffffffffffffffff1681526020019060010190808311610efd575b5050505050905060005b8151811015610fb9578373ffffffffffffffffffffffffffffffffffffffff16828281518110610f7d57fe5b602002602001015173ffffffffffffffffffffffffffffffffffffffff161415610fac57600192505050610fc0565b8080600101915050610f51565b5060009150505b92915050565b828054600181600116156101000203166002900490600052602060002090601f016020900481019282601f1061100757805160ff1916838001178555611035565b82800160010185558215611035579182015b82811115611034578251825591602001919060010190611019565b5b5090506110429190611046565b5090565b61106891905b8082111561106457600081600090555060010161104c565b5090565b9056fea265627a7a72315820f8e7138b24cded4b0a6f1246730d2aeb3b7ffda248917b178e750da598b840c464736f6c63430005100032",
  "source": "pragma solidity 0.5.16;\n\ncontract Certification {\n\n    struct Certifate {\n        uint courseId;\n        address publisher;\n        address participant;\n        string title;\n        string course;\n    }\n\n    struct Course {\n        uint id;\n        string title;\n    }\n\n    mapping(uint => Certifate) public certificates; // TODO:remap to adress\n    mapping(address => Course[]) public courses;\n    mapping(uint => address[]) public courseParticipants;\n\n    event logCourses(address[]);\n\n    uint public certificateCount;\n    uint public courseCount;\n\n     function addCertificate (address _collector, string memory _title, string memory _course) public {\n        certificates[certificateCount] = Certifate(certificateCount, msg.sender, _collector, _title, _course);\n        certificateCount++;\n    }\n\n    // function issueCertificates (uint _courseId, string memory _title) public {\n    //     certificateCount++;\n    //     certificates[] = Certifate(certificateCount, _courseId, msg.sender, _title);\n    // }\n\n    function addCourse (string memory _title) public {\n        courses[msg.sender].push(\n            Course(courseCount, _title)\n        );\n        courseCount++;\n    }\n\n    function addParticipant(uint _courseId, address _participant) public {\n\n        require(courses[msg.sender].length > 0, \"No course found!\");\n        \n        // check if course exists\n        Course[] memory myCourses = courses[msg.sender];\n        //emit logCourses(courses[msg.sender]);\n        uint length = myCourses.length;\n        bool exists = false;\n\n        for (uint i = 0; i < length; i++) {\n            if (myCourses[i].id != _courseId) {\n                continue;\n            }\n            exists = true;\n            break;\n        }\n\n        require(exists, \"Course does not exist!\");\n        require(!participantExists(_courseId, _participant), \"Participant already in course!\");\n\n        courseParticipants[_courseId].push(_participant);\n    }\n\n    function participantExists (uint _courseId, address _participant) private view returns (bool) {\n        address[] memory participants = courseParticipants[_courseId];\n        for (uint i; i < participants.length; i++) {\n            if (participants[i]==_participant) {\n                return true;\n            }\n        }\n        return false;\n    }\n\n\n    constructor() public {\n        addCourse(\"Web Engineering 1\"); // course id: 0\n        addCourse(\"Power Engineering 1\"); // course id: 1\n\n        address participantA = 0xdCad3a6d3569DF655070DEd06cb7A1b2Ccd1D3AF;\n        address participantB = 0xfC9a8E621F0D8821A770a5Cee4cEF8a90D387e8D;\n        \n        addParticipant(0, participantA);\n        addParticipant(1, participantB);\n\n        //issueCertificates(0, \"Web Engineer\");\n\n\n        // test adding of certificates\n        address receiver = 0xdCad3a6d3569DF655070DEd06cb7A1b2Ccd1D3AF;\n        addCertificate(receiver, \"Web Engineer\", courses[msg.sender][0].title);\n        addCertificate(receiver, \"Power Engineer\", courses[msg.sender][1].title);\n    }\n}",
  "sourcePath": "/home/daniel/src/blockchain/BlockCertify/contracts/Certification.sol",
  "compiler": {
    "name": "solc",
    "version": "0.5.16+commit.9c3226ce.Emscripten.clang"
  },
  "schemaVersion": "3.3.1",
  "updatedAt": "2020-11-09T13:30:45.996Z",
  "networkType": "ethereum",
  "devdoc": {
    "methods": {}
  },
  "userdoc": {
    "methods": {}
  }
}